:100000000C9446000C946F000C946F000C946F00DD
:100010000C946F000C946F000C94D1010C946F0041
:100020000C946F000C946F000C946F000C94EF050F
:100030000C946F000C946F000C9449040C946F00A6
:100040000C946F000C946F000C946F000C946F0074
:100050000C946F000C946F000C946F000C941106BC
:100060000C946F000C946F00F8044F056305940521
:100070009B057A059E05FC06ED07ED0705070807B9
:100080000B070D070F071107C207230711241FBE17
:10009000CFEFD8E0DEBFCDBF14BE0FB6F894A89561
:1000A00080916000886180936000109260000FBEB4
:1000B00011E0A0E0B1E0E6E9F7E102C005900D92A1
:1000C000AC30B107D9F721E0ACE0B1E001C01D923E
:1000D000A238B207E1F70E949F080C94C90B0C9458
:1000E0000000FC01808190E0909323018093220125
:1000F000FB0180819181A281B38180931201909351
:100100001301A0931401B093150181E080930D01B8
:10011000089580917D018093160186E191E0089514
:10012000CF93DF93C6E1D1E01986CE010E9400088B
:100130009B878A87DF91CF91089580910D0181304F
:1001400001F510920D0182E191E00E94D1028093AD
:100150000C018091220190912301883E23E09207B7
:1001600011F480E10CC0893E23E0920711F484E091
:1001700006C08A3E934011F481E001C085E10E94EF
:10018000C50484E690E00E94E80180E00E94C50476
:1001900080917D0190917E01883E23E0920731F4A9
:1001A00084E690E00E94E80181E008C0893E934027
:1001B00039F484E690E00E94E80180E10E94C504E1
:1001C00084E690E00E94E80180E00C94C504089564
:1001D00080E090E008950895DF92EF92FF920F93F0
:1001E0001F93CF93DF93F89414B817B81AB815B8C3
:1001F00018B81BB8529A5A9A14BC85E085BD8FEF87
:1002000087BD82E080936E00109280001092810082
:100210002FE83BE0309389002093880080936F00A3
:100220005398239891EA9093B0008093B100109274
:10023000B4001092B3008BE080BF83E080937F0016
:1002400086E080937C0083E880937A0080917A0036
:10025000806480937A0080917A0086FDFCCF1092B2
:100260007C0083EA80937A0081E080937B0081E0C8
:1002700090E00E945F0B8F3F11F080936600109218
:100280004B01C1E0C0932401C09368011092420168
:1002900010927C0180E990E00E945F0B8093410105
:1002A00080914101887311F0C093410110926C015B
:1002B00010926B018FEF90E090936A018093690137
:1002C00010924701109248011092490110924A0180
:1002D00081E08093110182E49FE090937B01809301
:1002E0007A0180EB90E00E945F0BC82F81EB90E0D9
:1002F0000E945F0B2C2F30E0382B30937E0120932F
:100300007D0185E090E00E945F0B8093810189E090
:1003100090E00E945F0B80936D018CE090E00E9462
:100320005F0B80937F0184E190E00E945F0B8093DC
:1003300080010CE411E055E2E52E51E0F52EC0E21B
:10034000D0E0CE010E945F0BD82ECE0101960E9414
:100350005F0B2D2D30E0322F2227282BF80121931F
:1003600031938F01CE01C0960E945F0BD82ECE0133
:10037000C1960E945F0B2D2D30E0322F2227282BB3
:10038000F701219331937F012296CC33D105C9F631
:100390007894DF91CF911F910F91FF90EF90DF90B4
:1003A00008951F920F920FB60F9211248F930FB6DC
:1003B000F894A89580916000886180936000109205
:1003C00060000FBE8F910F900FBE0F901F90189579
:1003D000009741F0EFECF7E03197F1F700C0000033
:1003E0000197F6CF08958093B3006093B400089509
:1003F0008FEF8093B3008093B4008FE090E00C9473
:10040000E80180914B0181111EC0F89487E0809330
:100410007C0083E880937A0080917A0080648093E6
:100420007A0080917A0086FDFCCF809178009091CF
:10043000790010927C0023EA20937A0021E0209337
:100440007B00789408958FEF9FEF089580914B0182
:1004500081111EC0F89488EC80937C0087E880931B
:100460007A0080917A00806480937A0080917A008B
:1004700086FDFCCF809178009091790010927C00ED
:1004800023EA20937A0021E020937B00789408955A
:100490008FEF9FEF0895CF93DF9320E030E080E06F
:1004A000E3EAF1E0C6E0D3E8A1E0B0E090E0F89440
:1004B000C0937C00D0937A0040917A0040644093CE
:1004C0007A0040917A0046FDFCCF4091780050912F
:1004D0007900417050917A00506450937A005091A5
:1004E0007A0056FDFCCF60917800709179001092EF
:1004F0007C00E0937A00F0937B0078949F5F6170BA
:10050000461751F0442359F0AD01022E01C0440FAB
:100510000A94EAF7842B03C0903849F6F3CF2F5F93
:100520003F4F2830310509F0C1CFDF91CF910895B9
:100530008091000198E0899F9001112428279091D3
:100540000E0181E0890F80930E01822F829586959E
:100550008770282796959695822F8927809300018A
:10056000089580930001089580914B01811116C078
:10057000F89486E080937C0083E880937A008091F1
:100580007A00806480937A0080917A0086FDFCCFA7
:100590008091780090917900789408958FEF9FEF83
:1005A00008952F923F924F925F926F927F928F9217
:1005B0009F92AF92BF92CF92DF92EF92FF920F93F2
:1005C0001F93CF93DF931C01FC01C281D381C438F8
:1005D000F3E0DF070CF07EC08091250190912601A9
:1005E0008C179D0708F46FC0E7E2F1E011E08191FC
:1005F00091918C179D0720F01F5F1E30C1F71DE001
:10060000812F90E0FC01EE0FFF1FEB5DFE4FE080BD
:10061000F180880F991FFC01ED5DFE4F8081918173
:10062000B701681B790B80E090E00E94080A9B01EB
:10063000AC010E94F4084B015C01BE010D2E000CC0
:10064000880B990B0E940A0A2B013C01B70180E03C
:1006500090E00E94080A6B017C01612F70E080E04D
:1006600090E00E94080A20E030E040E05FE30E9452
:10067000960A20E030E0A9010E94F408A501940147
:100680000E94960A9B01AC01C701B6010E94F308C3
:100690009B01AC01C301B2010E94F30820E030E0ED
:1006A00040E251E40E94960A0E94D2097B01C501F2
:1006B000B4010E94D209AB01BC01C701BA010E947A
:1006C000B608162F01C010E0CD3B82E0D8070CF42D
:1006D000CAC001C01FEFF101C080D18080914C01E0
:1006E00090914D018C159D0588F0EEE4F1E081E0DC
:1006F00090E0382EE190F190EC14FD0408F458C01D
:1007000001968E309105A9F70AE501C000E01F3F70
:1007100009F44BC0BE01DD0F880B990B0E940A0A39
:100720006B017C01612F70E080E090E00E94080A7C
:100730004B015C01A701960160E070E081E694E462
:100740000E94F3089B01AC01C501B4010E94960A06
:100750004B015C01602F70E080E090E00E94080A8D
:100760002B013C0120E030E04FE254E4C701B60128
:100770000E94F3089B01AC01C301B2010E94960ADA
:100780009B01AC01C501B4010E94F40820E030E0F7
:1007900048E453E40E94600920E030E044E052E481
:1007A0000E94F4080E94D90960C061E2600F5DC038
:1007B000880F991FFC01E65BFE4F80819181B70194
:1007C000681B790B80E090E00E94080A9B01AC0155
:1007D0000E94F4084B015C01B601DD0C880B990BFB
:1007E0000E940A0A2B013C01B70180E090E00E94C0
:1007F000080A6B017C01632D70E080E090E00E94AC
:10080000080A20E030E040E05FE30E94960A20E022
:1008100030E0A9010E94F408A50194010E94960A03
:100820009B01AC01C701B6010E94F3089B01AC011A
:10083000C301B2010E94F30820E030E040E251E43D
:100840000E94960A0E94D2097B01C501B4010E9450
:10085000D209AB01BC01C701BA010E94B608062F3C
:100860006F3F09F054CF61E2610F862FDF91CF9186
:100870001F910F91FF90EF90DF90CF90BF90AF90BE
:100880009F908F907F906F905F904F903F902F90B0
:1008900008951F920F920FB60F9211242F933F933A
:1008A0004F935F936F937F938F939F93AF93BF9378
:1008B000EF93FF9320916B0130916C01809169015E
:1008C00090916A01820F931F90936C0180936B014A
:1008D0008FEF90E090936A01809369018FEF87BD5D
:1008E0008091470190914801A0914901B0914A013E
:1008F0000196A11DB11D8093470190934801A093DB
:100900004901B0934A0180914B0181112DC0809122
:100910007A0190917B0120916B0130916C018217DB
:10092000930710F5809111018430F1F4E0910301F7
:10093000F091040109950097B9F00E941C088823E2
:1009400051F0E0910101F0910201099510926C01C2
:1009500010926B0109C00E944F0B9C01332730930A
:100960006A012093690187BDFF91EF91BF91AF911B
:100970009F918F917F916F915F914F913F912F91B7
:100980000F900FBE0F901F90189580FF02C0559AD0
:1009900001C0559881FF02C0549A01C0549882FF4B
:1009A00002C03B9A01C03B9883FF02C03A9A01C043
:1009B0003A9884FF02C03D9A01C03D9885FF02C06D
:1009C0003C9A08953C9808958C017B01D0E0CFEFCC
:1009D00084E0D82E98E1C92E29E2B22EE0911101CF
:1009E000F0E0E730F105D0F7EC5CFF4F0C94CA085B
:1009F000F89480B7877F80BF80917A008F7780934B
:100A00007A0014B817B81AB815B818B81BB80FB6CA
:100A1000F894A895C09260000FBEB09260008091DB
:100A2000600080648093600083B7817F846083BFAF
:100A3000F89483B7816083BF7894889583B78E7F5D
:100A400083BF789410924B01529A5A9A80917A00FF
:100A5000806880937A0087E592E00197F1F700C003
:100A6000000080B7886180BF8FE30E94C504EFE17A
:100A7000FEE43197F1F700C0000080914B0188231C
:100A800009F450C083E00E94C504FFEF20E782E034
:100A9000F15020408040E1F700C0000043C08CE0EE
:100AA0000E94C504EFECF7E03197F1F700C00000B9
:100AB00080E00E94C504FFEF21EE84E0F150204069
:100AC0008040E1F72CC00E94B4028B3AE2E09E071E
:100AD00024F08CE00E94C50481CF8938F2E09F07A2
:100AE00014F080E3F7CF8736924014F08FE0F2CF16
:100AF00083E0F0CF489916C081E00E94C5048FECD6
:100B000097E00197F1F700C0000080E00E94C50463
:100B10009FEFE1EEF4E09150E040F040E1F700C0DB
:100B200000005CCF80E0D6CFD11102C0F80109955A
:100B3000D0921101D1E0F701099550CF80910F01BA
:100B4000811107C01092B3001092B40010921001EE
:100B500045CF90910F0180911001981709F43ECF75
:100B600080910F018093100180910F01813089F4F1
:100B7000C093B3001092B4008FE295E70197F1F7AC
:100B800000C00000809181018093B3001092B400F6
:100B900025CF80910F011092B300C093B400823032
:100BA00059F4EFE2F5E73197F1F700C000008091CA
:100BB0006D011092B30010C0C093B300C093B40095
:100BC0008FE295E70197F1F700C000008091800166
:100BD00090917F019093B3008093B400FFCE1F9259
:100BE0000F920FB60F9211248F939F931092810052
:100BF000109285001092840081E0809324018093FC
:100C0000680110924B0110927C0093EA90937A0055
:100C100080937B009F918F910F900FBE0F901F903C
:100C200018951F920F920FB60F9211240F931F93D6
:100C30002F933F934F935F936F937F938F939F93E4
:100C4000AF93BF93EF93FF93209184003091850081
:100C500041E040934B0180912401882321F11092BF
:100C60008500109284004093810010927C011092C4
:100C7000240180916801882309F4AFC180917A0032
:100C800086FDFCCF80917800909179009093460189
:100C90008093450181E080937C0093EA90937A00F1
:100CA00080937B009AC1C901875891098437994084
:100CB000A0F0109281001092850010928400409361
:100CC00024014093680110924B0110927C0083EA4A
:100CD00080937A0040937B0080C126583109A4EFAD
:100CE000B0E00E94D0088C0122273327083060F43E
:100CF00081E090E001C0880F0A95EAF790917C01AD
:100D0000892B80937C0169C1409324018091680103
:100D1000882341F180917A0086FDFCCF8091780094
:100D200090917900909344018093430110927C004C
:100D300083EA80937A0081E080937B0090917C012C
:100D4000992359F01092810010928500109284002E
:100D50008093680110924B0140C11092680110927B
:100D600042013BC180914201E82FF0E0E259FE4F81
:100D700090917C0190838F5F809342018C3009F0C9
:100D80002CC1109281001092850010928400409333
:100D9000680110924B0100917801109179018EE663
:100DA00091E00E9400080817190709F016C1E091A8
:100DB0007701E7FD0AC0E0910501F091060163E4C7
:100DC00071E08EE691E0099508C188E78E0F8330C7
:100DD00030F0539823981092B4001092B3008E2FE5
:100DE00090E0FC01E058F109EB30F10508F0F5C0A6
:100DF000E55CFF4F0C94CA0880916E008D7F809354
:100E00006E0016BCE0E0F0E702C0E0E0F0E009951B
:100E100010921101E2C081E0B2C085E0B0C082E072
:100E2000AEC080911101833009F4D7C080911101C7
:100E3000843009F4D2C0539A239A1092B4001092CD
:100E4000B30083E09CC080916E01823009F44BC0F6
:100E500080F48823A9F0813009F082C080916F016D
:100E60009091700190937E0180937D0110920F010B
:100E700077C0833009F449C0843009F458C070C089
:100E800080911101863009F06BC060917D0180EB8B
:100E900090E00E94670B60917E0181EB90E00E94E0
:100EA000670B6091810185E090E00E94670B609183
:100EB0006D0189E090E00E94670B60917F018CE0FA
:100EC00090E00E94670B6091800184E190E00E94B5
:100ED000670B539823981092B4001092B30081E0EE
:100EE000809311013DC090910F018091710191306B
:100EF00021F490918101891799F11092100191E0EC
:100F000090930F01809381012BC090910F018091EC
:100F10007201923021F490916D01891709F11092BC
:100F2000100192E090930F0180936D0119C0209100
:100F30000F018091740190917301233041F420914D
:100F40008001821304C020917F01921749F0109212
:100F5000100123E020930F0190937F018093800183
:100F600080916E018823C9F1809111018630A9F129
:100F7000539A239A1092B4001092B30086E08093A3
:100F800011012BC080911101863081F0539A239A70
:100F90001092B4001092B30080E00E94C504109239
:100FA0000F011092100186E08093110181E090E022
:100FB00000906E0102C0880F991F0A94E2F72091F9
:100FC0007D0130917E0182239323892B21F081E0E2
:100FD00080930F0102C010920F01FF91EF91BF911A
:100FE000AF919F918F917F916F915F914F913F91C1
:100FF0002F911F910F910F900FBE0F901F9018957A
:10100000FC019C01265F3F4F8FEF9FEF41918427AA
:10101000082E8295807F8025092E982F82958F70CB
:101020000826869598278927880F880F880F80259E
:10103000E217F30759F708950FB6F894A4B1209179
:1010400041012A2B24B921E030914101203029F0BF
:10105000000025B1232B25B904C0000000000000CA
:1010600000C0000000000000309525B1232325B901
:101070002EEA2A95F1F72BEE30B735FF0AC0A4B956
:1010800030914101309525B1232325B90FBE80E071
:10109000089500002A9581F721E030914101203028
:1010A00029F0000025B1232B25B904C00000000061
:1010B000000000C0000000000000309525B123238F
:1010C00025B9000024E52A95F1F7FC018CE0619137
:1010D00070E0660F771F616072609AE041E050E057
:1010E0009A0126233723232B30914101203029F008
:1010F000000025B1232B25B904C00000000000002A
:1011000000C0000000000000309525B1232325B960
:10111000000021E52A95F1F7440F551F9A9501F734
:101120008A95A9F620B7206120BFA4B9309141016A
:10113000309525B1232325B90FBE81E008950E9483
:10114000EC0081E790E0909306018093050189E827
:1011500090E090930401809303016DE970E080E9D1
:1011600090E00E94E40480E090E0089597FB072E51
:1011700016F4009407D077FD09D00E94DF0807FC21
:1011800005D03EF4909581959F4F08957095619597
:101190007F4F0895EE0FFF1F0590F491E02D099405
:1011A000A29FB001B39FC001A39F700D811D1124A8
:1011B000911DB29F700D811D1124911D0895AA1BD0
:1011C000BB1B51E107C0AA1FBB1FA617B70710F032
:1011D000A61BB70B881F991F5A95A9F78095909564
:1011E000BC01CD0108955058BB27AA270E940B09C6
:1011F0000C945C0A0E944E0A38F00E94550A20F0B6
:1012000039F49F3F19F426F40C944B0A0EF4E09540
:10121000E7FB0C94450AE92F0E946D0A58F3BA17B0
:10122000620773078407950720F079F4A6F50C94FC
:101230008F0A0EF4E0950B2EBA2FA02D0B01B901E9
:1012400090010C01CA01A0011124FF27591B99F03C
:10125000593F50F4503E68F11A16F040A22F232F48
:10126000342F4427585FF3CF469537952795A79598
:10127000F0405395C9F77EF41F16BA0B620B730B3F
:10128000840BBAF09150A1F0FF0FBB1F661F771FB0
:10129000881FC2F70EC0BA0F621F731F841F48F465
:1012A000879577956795B795F7959E3F08F0B0CFEE
:1012B0009395880F08F09927EE0F979587950895D5
:1012C0000E9474090C945C0A0E94550A58F00E940E
:1012D0004E0A40F029F45F3F29F00C94450A511161
:1012E0000C94900A0C944B0A0E946D0A68F399239F
:1012F000B1F3552391F3951B550BBB27AA27621712
:101300007307840738F09F5F5F4F220F331F441F1E
:10131000AA1FA9F335D00E2E3AF0E0E832D0915052
:101320005040E695001CCAF72BD0FE2F29D0660F3F
:10133000771F881FBB1F261737074807AB07B0E882
:1013400009F0BB0B802DBF01FF2793585F4F3AF088
:101350009E3F510578F00C94450A0C94900A5F3F2B
:10136000E4F3983ED4F3869577956795B795F7950E
:101370009F5FC9F7880F911D9695879597F90895F6
:10138000E1E0660F771F881FBB1F62177307840792
:10139000BA0720F0621B730B840BBA0BEE1F88F7A1
:1013A000E09508950E94D9096894B1110C94900AAF
:1013B00008950E94750A88F09F5798F0B92F9927D1
:1013C000B751B0F0E1F0660F771F881F991F1AF030
:1013D000BA95C9F714C0B13091F00E948F0AB1E0FC
:1013E00008950C948F0A672F782F8827B85F39F0FB
:1013F000B93FCCF3869577956795B395D9F73EF4C9
:1014000090958095709561957F4F8F4F9F4F089570
:10141000E89409C097FB3EF490958095709561958E
:101420007F4F8F4F9F4F9923A9F0F92F96E9BB2744
:101430009395F695879577956795B795F111F8CFC0
:10144000FAF4BB0F11F460FF1BC06F5F7F4F8F4F2B
:101450009F4F16C0882311F096E911C0772321F021
:101460009EE8872F762F05C0662371F096E8862FB9
:1014700070E060E02AF09A95660F771F881FDAF710
:10148000880F9695879597F9089597F99F6780E853
:1014900070E060E008959FEF80EC089500240A94C6
:1014A0001616170618060906089500240A9412163F
:1014B0001306140605060895092E0394000C11F472
:1014C000882352F0BB0F40F4BF2B11F460FF04C01F
:1014D0006F5F7F4F8F4F9F4F089557FD9058440F78
:1014E000551F59F05F3F71F04795880F97FB991F83
:1014F00061F09F3F79F08795089512161306140640
:10150000551FF2CF4695F1DF08C0161617061806CC
:10151000991FF1CF86957105610508940895E894A7
:10152000BB2766277727CB0197F908950E94A90A60
:101530000C945C0A0E944E0A38F00E94550A20F072
:10154000952311F00C94450A0C944B0A11240C9429
:10155000900A0E946D0A70F3959FC1F3950F50E0B9
:10156000551F629FF001729FBB27F00DB11D639F55
:10157000AA27F00DB11DAA1F649F6627B00DA11DFB
:10158000661F829F2227B00DA11D621F739FB00DA1
:10159000A11D621F839FA00D611D221F749F332711
:1015A000A00D611D231F849F600D211D822F762FAA
:1015B0006A2F11249F5750409AF0F1F088234AF087
:1015C000EE0FFF1FBB1F661F771F881F91505040F3
:1015D000A9F79E3F510580F00C94450A0C94900A9F
:1015E0005F3FE4F3983ED4F3869577956795B7957A
:1015F000F795E7959F5FC1F7FE2B880F911D969594
:10160000879597F908958F929F92AF92BF92CF924C
:10161000DF92EF92FF92CF93DF93EC0168817981A3
:101620008A819B81611571058105910521F464E230
:1016300079ED8BE597E02DE133EF41E050E00E943A
:10164000750B49015A019B01AC01A7EAB1E40E9464
:10165000940B6B017C01ACEEB4EFA50194010E94E8
:10166000A20BDC01CB018C0D9D1DAE1DBF1DB7FF74
:1016700003C00197A109B04888839983AA83BB83DB
:101680009F77DF91CF91FF90EF90DF90CF90BF9049
:10169000AF909F908F9008950E94030B089587E06C
:1016A00091E00E94030B0895A0E0B0E08093070151
:1016B00090930801A0930901B0930A010895F99944
:1016C000FECF92BD81BDF89A992780B50895262F47
:1016D000F999FECF1FBA92BD81BD20BD0FB6F89417
:1016E000FA9AF99A0FBE01960895052E97FB1EF4FB
:1016F00000940E948C0B57FD07D00E94A70B07FC9B
:1017000003D04EF40C948C0B509540953095219558
:101710003F4F4F4F5F4F089590958095709561951D
:101720007F4F8F4F9F4F08950E94D008A59F900D27
:10173000B49F900DA49F800D911D11240895B7FFB3
:101740000C94940B0E94940B821B930B0895A1E2BE
:101750001A2EAA1BBB1BFD010DC0AA1FBB1FEE1F2B
:10176000FF1FA217B307E407F50720F0A21BB30B76
:10177000E40BF50B661F771F881F991F1A9469F7F2
:1017800060957095809590959B01AC01BD01CF014E
:061790000895F894FFCF5C
:0C179600AAEB00E800E7000100000000E2
:00000001FF
