:100000000C9446000C946F000C946F000C946F00DD
:100010000C946F000C946F000C940C020C946F0005
:100020000C946F000C946F000C946F000C942A06D3
:100030000C946F000C946F000C9484040C946F006B
:100040000C946F000C946F000C946F000C946F0074
:100050000C946F000C946F000C946F000C944C0681
:100060000C946F000C946F0033058A059E05CF0534
:10007000D605B505D90537072808280840074307DE
:10008000460748074A074C07FD075E0711241FBEB5
:10009000CFEFD8E0DEBFCDBF14BE0FB6F894A89561
:1000A00080916000886180936000109260000FBEB4
:1000B00011E0A0E0B1E0E4EFF7E102C005900D929D
:1000C000AC30B107D9F721E0ACE0B1E001C01D923E
:1000D000A837B207E1F70E94DA080C94F80B0C94E9
:1000E000000020910C0130910D012817390721F1F2
:1000F00090930D0180930C01009711F460E019C0FA
:100100008130910539F40E9433026091760180912B
:10011000750110C08230910531F40E94330260E015
:100120008091770107C0039739F40E9433026091F0
:10013000630180E00C942E02089580E090E00C941E
:100140007100CF93DF9340913D0150913E0160914A
:100150003F01709140018091160190911701A0918B
:100160001801B0911901805C9F4FAF4FBF4F8417AA
:100170009507A607B70700F580913D0190913E01D4
:10018000A0913F01B0914001809316019093170117
:10019000A0931801B093190181E090E090930F01B2
:1001A00080930E0185E00E94000584E690E00E94A5
:1001B000230280E00E940005C0910E01D0910F0142
:1001C000C130D105E1F510920F0110920E0180911E
:1001D0001001909111018130910589F082309105D3
:1001E000E1F0892B31F584E00E94000581E090E088
:1001F0000E947100D0931101C093100120C081E0D2
:100200000E94000582E090E00E94710082E090E090
:10021000909311018093100112C080E10E940005AB
:1002200083E090E00E947100109211011092100181
:1002300006C080E090E0DF91CF910C947100DF91D7
:10024000CF910895089580E090E008950895DF9299
:10025000EF92FF920F931F93CF93DF93F89414B80C
:1002600017B81AB815B818B81BB8529A5A9A14BCCD
:1002700085E085BD8FEF87BD82E080936E00109290
:100280008000109281002FE83BE03093890020939A
:10029000880080936F005398239891EA9093B00060
:1002A0008093B1001092B4001092B3008BE080BF35
:1002B00083E080937F0086E080937C0083E88093D6
:1002C0007A0080917A00806480937A0080917A002D
:1002D00086FDFCCF10927C0083EA80937A0081E057
:1002E00080937B0081E090E00E948E0B8F3F11F0A5
:1002F0008093660010924101C1E0C0931A01C0933F
:100300005E01109238011092720180E990E00E9423
:100310008E0B8093370180913701887311F0C09361
:10032000370110926201109261018FEF90E090937B
:10033000600180935F0110923D0110923E01109286
:100340003F011092400181E08093150182E49FE01B
:10035000909371018093700180EB90E00E948E0B6E
:10036000C82F81EB90E00E948E0B2C2F30E0382BB1
:10037000309374012093730185E090E00E948E0B0E
:100380008093770189E090E00E948E0B8093630157
:100390008CE090E00E948E0B8093750184E190E0E8
:1003A0000E948E0B8093760102E411E05BE1E52E62
:1003B00051E0F52EC0E2D0E0CE010E948E0BD82E87
:1003C000CE0101960E948E0B2D2D30E0322F222778
:1003D000282BF801219331938F01CE01C0960E9402
:1003E0008E0BD82ECE01C1960E948E0B2D2D30E0A3
:1003F000322F2227282BF701219331937F01229658
:10040000CC33D105C9F67894DF91CF911F910F912C
:10041000FF90EF90DF9008951F920F920FB60F920A
:1004200011248F930FB6F894A8958091600088618D
:1004300080936000109260000FBE8F910F900FBEEE
:100440000F901F901895009741F0EFECF7E031976F
:10045000F1F700C000000197F6CF08958093B30034
:100460006093B40008958FEF8093B3008093B4003D
:100470008FE090E00C9423028091410181111EC015
:10048000F89487E080937C0083E880937A008091E1
:100490007A00806480937A0080917A0086FDFCCF98
:1004A000809178009091790010927C0023EA20934B
:1004B0007A0021E020937B00789408958FEF9FEFDE
:1004C00008958091410181111EC0F89488EC8093B9
:1004D0007C0087E880937A0080917A008064809322
:1004E0007A0080917A0086FDFCCF8091780090910F
:1004F000790010927C0023EA20937A0021E0209377
:100500007B00789408958FEF9FEF0895CF93DF934A
:1005100020E030E080E0E3EAF1E0C6E0D3E8A1E0EB
:10052000B0E090E0F894C0937C00D0937A004091C2
:100530007A00406440937A0040917A0046FDFCCFF7
:100540004091780050917900417050917A00506448
:1005500050937A0050917A0056FDFCCF609178005C
:100560007091790010927C00E0937A00F0937B0008
:1005700078949F5F6170461751F0442359F0AD01A4
:10058000022E01C0440F0A94EAF7842B03C090386E
:1005900049F6F3CF2F5F3F4F2830310509F0C1CF27
:1005A000DF91CF9108958091000198E0899F90019B
:1005B000112428279091120181E0890F8093120164
:1005C000822F829586958770282796959695822FFB
:1005D00089278093000108958093000108958091F8
:1005E0004101811116C0F89486E080937C0083E875
:1005F00080937A0080917A00806480937A00809161
:100600007A0086FDFCCF80917800909179007894F3
:1006100008958FEF9FEF08952F923F924F925F9230
:100620006F927F928F929F92AF92BF92CF92DF9202
:10063000EF92FF920F931F93CF93DF931C01FC0166
:10064000C281D381C438F3E0DF070CF07EC0809113
:100650001B0190911C018C179D0708F46FC0EDE100
:10066000F1E011E0819191918C179D0720F01F5FBF
:100670001E30C1F71DE0812F90E0FC01EE0FFF1F3F
:10068000E55EFE4FE080F180880F991FFC01E75E78
:10069000FE4F80819181B701681B790B80E090E06B
:1006A0000E94370A9B01AC010E9423094B015C01A7
:1006B000BE010D2E000C880B990B0E94390A2B01EC
:1006C0003C01B70180E090E00E94370A6B017C0199
:1006D000612F70E080E090E00E94370A20E030E077
:1006E00040E05FE30E94C50A20E030E0A9010E94DB
:1006F0002309A50194010E94C50A9B01AC01C70111
:10070000B6010E9422099B01AC01C301B2010E9403
:10071000220920E030E040E251E40E94C50A0E9434
:10072000010A7B01C501B4010E94010AAB01BC01B1
:10073000C701BA010E94E508162F01C010E0CD3BA9
:1007400082E0D8070CF4CAC001C01FEFF101C080DD
:10075000D18080914201909143018C159D0588F0D4
:10076000E4E4F1E081E090E0382EE190F190EC14C7
:10077000FD0408F458C001968E309105A9F70AE5EA
:1007800001C000E01F3F09F44BC0BE01DD0F880B24
:10079000990B0E94390A6B017C01612F70E080E0A7
:1007A00090E00E94370A4B015C01A701960160E0CE
:1007B00070E081E694E40E9422099B01AC01C5012E
:1007C000B4010E94C50A4B015C01602F70E080E01B
:1007D00090E00E94370A2B013C0120E030E04FE21C
:1007E00054E4C701B6010E9422099B01AC01C30178
:1007F000B2010E94C50A9B01AC01C501B4010E946F
:10080000230920E030E048E453E40E948F0920E00F
:1008100030E044E052E40E9423090E94080A60C0CC
:1008200061E2600F5DC0880F991FFC01E05CFE4F24
:1008300080819181B701681B790B80E090E00E9474
:10084000370A9B01AC010E9423094B015C01B601F0
:10085000DD0C880B990B0E94390A2B013C01B70172
:1008600080E090E00E94370A6B017C01632D70E00C
:1008700080E090E00E94370A20E030E040E05FE353
:100880000E94C50A20E030E0A9010E942309A501C9
:1008900094010E94C50A9B01AC01C701B6010E94E8
:1008A00022099B01AC01C301B2010E94220920E090
:1008B00030E040E251E40E94C50A0E94010A7B0137
:1008C000C501B4010E94010AAB01BC01C701BA0114
:1008D0000E94E508062F6F3F09F054CF61E2610FD7
:1008E000862FDF91CF911F910F91FF90EF90DF90B6
:1008F000CF90BF90AF909F908F907F906F905F90C0
:100900004F903F902F9008951F920F920FB60F9225
:1009100011242F933F934F935F936F937F938F9304
:100920009F93AF93BF93EF93FF9320916101309119
:10093000620180915F0190916001820F931F9093FB
:100940006201809361018FEF90E09093600180934A
:100950005F018FEF87BD80913D0190913E01A09195
:100960003F01B09140010196A11DB11D80933D0151
:1009700090933E01A0933F01B093400180914101CB
:1009800081112DC0809170019091710120916101C0
:10099000309162018217930710F580911501843020
:1009A000F1F4E0910301F091040109950097B9F089
:1009B0000E945708882351F0E0910101F091020153
:1009C0000995109262011092610109C00E947E0B8C
:1009D0009C0133273093600120935F0187BDFF9115
:1009E000EF91BF91AF919F918F917F916F915F91A7
:1009F0004F913F912F910F900FBE0F901F90189520
:100A000080FF02C0559A01C0559881FF02C0549AD8
:100A100001C0549882FF02C03B9A01C03B9883FFFB
:100A200002C03A9A01C03A9884FF02C03D9A01C0C0
:100A30003D9885FF02C03C9A08953C9808958C012A
:100A40007B01D0E0CFEF84E0D82E98E1C92E29E2D7
:100A5000B22EE0911501F0E0E730F105D0F7EC5C43
:100A6000FF4F0C94F908F89480B7877F80BF80917E
:100A70007A008F7780937A0014B817B81AB815B82F
:100A800018B81BB80FB6F894A895C09260000FBEB6
:100A9000B09260008091600080648093600083B7B2
:100AA000817F846083BFF89483B7816083BF78942B
:100AB000889583B78E7F83BF789410924101529AB4
:100AC0005A9A80917A00806880937A0087E592E054
:100AD0000197F1F700C0000080B7886180BF8FE305
:100AE0000E940005EFE1FEE43197F1F700C000003D
:100AF00080914101882309F450C083E00E940005E1
:100B0000FFEF20E782E0F15020408040E1F700C095
:100B1000000043C08CE00E940005EFECF7E0319745
:100B2000F1F700C0000080E00E940005FFEF21EE19
:100B300084E0F15020408040E1F72CC00E94EF0299
:100B40008B3AE2E09E0724F08CE00E94000581CF02
:100B50008938F2E09F0714F080E3F7CF87369240A0
:100B600014F08FE0F2CF83E0F0CF489916C081E017
:100B70000E9400058FEC97E00197F1F700C000009C
:100B800080E00E9400059FEFE1EEF4E09150E0402C
:100B9000F040E1F700C000005CCF80E0D6CFD1117B
:100BA00002C0F8010995D0921501D1E0F70109952D
:100BB00050CF80911301811107C01092B3001092A1
:100BC000B4001092140145CF90911301809114014B
:100BD000981709F43ECF80911301809314018091FE
:100BE0001301813089F4C093B3001092B4008FE2F6
:100BF00095E70197F1F700C000008091770180939D
:100C0000B3001092B40025CF809113011092B3006D
:100C1000C093B400823059F4EFE2F5E73197F1F771
:100C200000C00000809163011092B30010C0C09317
:100C3000B300C093B4008FE295E70197F1F700C0CD
:100C4000000080917601909175019093B30080939C
:100C5000B400FFCE1F920F920FB60F9211248F9304
:100C60009F9310928100109285001092840081E081
:100C700080931A0180935E011092410110927C00D2
:100C800093EA90937A0080937B009F918F910F90CD
:100C90000FBE0F901F9018951F920F920FB60F92D4
:100CA00011240F931F932F933F934F935F936F9351
:100CB0007F938F939F93AF93BF93EF93FF93209175
:100CC00084003091850041E04093410180911A01F8
:100CD000882321F1109285001092840040938100B6
:100CE0001092720110921A0180915E01882309F41A
:100CF000AFC180917A0086FDFCCF80917800909101
:100D0000790090933C0180933B0181E080937C00CB
:100D100093EA90937A0080937B009AC1C901875827
:100D2000910984379940A0F01092810010928500BB
:100D30001092840040931A0140935E011092410189
:100D400010927C0083EA80937A0040937B0080C1FC
:100D500026583109A4EFB0E00E94FF088C01222739
:100D60003327083060F481E090E001C0880F0A95D5
:100D7000EAF790917201892B8093720169C14093C7
:100D80001A0180915E01882341F180917A0086FDED
:100D9000FCCF809178009091790090933A018093F4
:100DA000390110927C0083EA80937A0081E080937D
:100DB0007B0090917201992359F01092810010925A
:100DC00085001092840080935E011092410140C121
:100DD00010925E01109238013BC180913801E82FDA
:100DE000F0E0EC59FE4F9091720190838F5F8093F9
:100DF00038018C3009F02CC11092810010928500CE
:100E00001092840040935E011092410100916E01A6
:100E100010916F0184E691E00E943B0808171907C2
:100E200009F016C1E0916D01E7FD0AC0E0910501EE
:100E3000F091060169E371E084E691E0099508C14B
:100E400088E78E0F833030F0539823981092B400C7
:100E50001092B3008E2F90E0FC01E058F109EB30C6
:100E6000F10508F0F5C0E55CFF4F0C94F90880919E
:100E70006E008D7F80936E0016BCE0E0F0E702C04C
:100E8000E0E0F0E0099510921501E2C081E0B2C007
:100E900085E0B0C082E0AEC080911501833009F4D6
:100EA000D7C080911501843009F4D2C0539A239A97
:100EB0001092B4001092B30083E09CC08091640152
:100EC000823009F44BC080F48823A9F0813009F006
:100ED00082C0809165019091660190937401809326
:100EE00073011092130177C0833009F449C0843034
:100EF00009F458C070C080911501863009F06BC0AC
:100F00006091730180EB90E00E94960B60917401F8
:100F100081EB90E00E94960B6091770185E090E074
:100F20000E94960B6091630189E090E00E94960B0D
:100F3000609175018CE090E00E94960B60917601C3
:100F400084E190E00E94960B539823981092B4008D
:100F50001092B30081E0809315013DC09091130180
:100F600080916701913021F490917701891799F16F
:100F70001092140191E090931301809377012BC09C
:100F80009091130180916801923021F49091630156
:100F9000891709F11092140192E090931301809344
:100FA000630119C02091130180916A019091690138
:100FB000233041F420917601821304C02091750101
:100FC000921749F01092140123E02093130190939B
:100FD000750180937601809164018823C9F1809125
:100FE00015018630A9F1539A239A1092B4001092F9
:100FF000B30086E0809315012BC0809115018630E7
:1010000081F0539A239A1092B4001092B30080E0BA
:101010000E940005109213011092140186E0809343
:10102000150181E090E00090640102C0880F991FD3
:101030000A94E2F720917301309174018223932383
:10104000892B21F081E08093130102C010921301DB
:10105000FF91EF91BF91AF919F918F917F916F9190
:101060005F914F913F912F911F910F910F900FBE64
:101070000F901F901895FC019C01265F3F4F8FEF4A
:101080009FEF41918427082E8295807F8025092E2D
:10109000982F82958F700826869598278927880F24
:1010A000880F880F8025E217F30759F708950FB6C8
:1010B000F894A4B1209137012A2B24B921E0309172
:1010C0003701203029F0000025B1232B25B904C0B9
:1010D00000000000000000C000000000000030958B
:1010E00025B1232325B92EEA2A95F1F72BEE30B747
:1010F00035FF0AC0A4B930913701309525B12323BB
:1011000025B90FBE80E0089500002A9581F721E0FF
:1011100030913701203029F0000025B1232B25B96B
:1011200004C000000000000000C00000000000003B
:10113000309525B1232325B9000024E52A95F1F740
:10114000FC018CE0619170E0660F771F6160726056
:101150009AE041E050E09A0126233723232B309177
:101160003701203029F0000025B1232B25B904C018
:1011700000000000000000C00000000000003095EA
:1011800025B1232325B9000021E52A95F1F7440F65
:10119000551F9A9501F78A95A9F620B7206120BFBF
:1011A000A4B930913701309525B1232325B90FBE5D
:1011B00081E008950E94270161EA70E08DE990E0E6
:1011C0000E941F0580E090E0089597FB072E16F41B
:1011D000009407D077FD09D00E940E0907FC05D0C6
:1011E0003EF4909581959F4F0895709561957F4F3E
:1011F0000895EE0FFF1F0590F491E02D0994A29F32
:10120000B001B39FC001A39F700D811D1124911DDA
:10121000B29F700D811D1124911D0895AA1BBB1B47
:1012200051E107C0AA1FBB1FA617B70710F0A61BE6
:10123000B70B881F991F5A95A9F780959095BC0107
:10124000CD0108955058BB27AA270E943A090C9453
:101250008B0A0E947D0A38F00E94840A20F039F43B
:101260009F3F19F426F40C947A0A0EF4E095E7FBFC
:101270000C94740AE92F0E949C0A58F3BA1762076B
:1012800073078407950720F079F4A6F50C94BE0A3D
:101290000EF4E0950B2EBA2FA02D0B01B901900191
:1012A0000C01CA01A0011124FF27591B99F0593FD5
:1012B00050F4503E68F11A16F040A22F232F342F1D
:1012C0004427585FF3CF469537952795A795F0406B
:1012D0005395C9F77EF41F16BA0B620B730B840B80
:1012E000BAF09150A1F0FF0FBB1F661F771F881F38
:1012F000C2F70EC0BA0F621F731F841F48F4879590
:1013000077956795B795F7959E3F08F0B0CF939581
:10131000880F08F09927EE0F9795879508950E94FA
:10132000A3090C948B0A0E94840A58F00E947D0A3B
:1013300040F029F45F3F29F00C94740A51110C9489
:10134000BF0A0C947A0A0E949C0A68F39923B1F3AD
:10135000552391F3951B550BBB27AA2762177307DB
:10136000840738F09F5F5F4F220F331F441FAA1F6F
:10137000A9F335D00E2E3AF0E0E832D0915050402B
:10138000E695001CCAF72BD0FE2F29D0660F771FD9
:10139000881FBB1F261737074807AB07B0E809F0BF
:1013A000BB0B802DBF01FF2793585F4F3AF09E3F44
:1013B000510578F00C94740A0C94BF0A5F3FE4F373
:1013C000983ED4F3869577956795B795F7959F5F87
:1013D000C9F7880F911D9695879597F90895E1E0D3
:1013E000660F771F881FBB1F621773078407BA0732
:1013F00020F0621B730B840BBA0BEE1F88F7E0958D
:1014000008950E94080A6894B1110C94BF0A0895C7
:101410000E94A40A88F09F5798F0B92F9927B751D6
:10142000B0F0E1F0660F771F881F991F1AF0BA9588
:10143000C9F714C0B13091F00E94BE0AB1E008951E
:101440000C94BE0A672F782F8827B85F39F0B93F10
:10145000CCF3869577956795B395D9F73EF490953B
:101460008095709561957F4F8F4F9F4F0895E894B9
:1014700009C097FB3EF490958095709561957F4FDC
:101480008F4F9F4F9923A9F0F92F96E9BB2793958A
:10149000F695879577956795B795F111F8CFFAF49A
:1014A000BB0F11F460FF1BC06F5F7F4F8F4F9F4FCB
:1014B00016C0882311F096E911C0772321F09EE829
:1014C000872F762F05C0662371F096E8862F70E08F
:1014D00060E02AF09A95660F771F881FDAF7880F69
:1014E0009695879597F9089597F99F6780E870E03A
:1014F00060E008959FEF80EC089500240A9416168A
:10150000170618060906089500240A9412161306F1
:10151000140605060895092E0394000C11F488237F
:1015200052F0BB0F40F4BF2B11F460FF04C06F5F9B
:101530007F4F8F4F9F4F089557FD9058440F551F71
:1015400059F05F3F71F04795880F97FB991F61F045
:101550009F3F79F087950895121613061406551FBC
:10156000F2CF4695F1DF08C0161617061806991F28
:10157000F1CF86957105610508940895E894BB271D
:1015800066277727CB0197F908950E94D80A0C9413
:101590008B0A0E947D0A38F00E94840A20F095236D
:1015A00011F00C94740A0C947A0A11240C94BF0A5A
:1015B0000E949C0A70F3959FC1F3950F50E0551F50
:1015C000629FF001729FBB27F00DB11D639FAA2798
:1015D000F00DB11DAA1F649F6627B00DA11D661FE7
:1015E000829F2227B00DA11D621F739FB00DA11D08
:1015F000621F839FA00D611D221F749F3327A00DC2
:10160000611D231F849F600D211D822F762F6A2F5D
:1016100011249F5750409AF0F1F088234AF0EE0FC2
:10162000FF1FBB1F661F771F881F91505040A9F7EF
:101630009E3F510580F00C94740A0C94BF0A5F3FE2
:10164000E4F3983ED4F3869577956795B795F7952B
:10165000E7959F5FC1F7FE2B880F911D96958795A3
:1016600097F908958F929F92AF92BF92CF92DF9297
:10167000EF92FF92CF93DF93EC01688179818A81A9
:101680009B81611571058105910521F464E279ED75
:101690008BE597E02DE133EF41E050E00E94A40B91
:1016A00049015A019B01AC01A7EAB1E40E94C30BB6
:1016B0006B017C01ACEEB4EFA50194010E94D10B4B
:1016C000DC01CB018C0D9D1DAE1DBF1DB7FF03C0FE
:1016D0000197A109B04888839983AA83BB839F7728
:1016E000DF91CF91FF90EF90DF90CF90BF90AF90C0
:1016F0009F908F9008950E94320B089587E091E0AB
:101700000E94320B0895A0E0B0E08093070190930F
:101710000801A0930901B0930A010895F999FECF39
:1017200092BD81BDF89A992780B50895262FF99921
:10173000FECF1FBA92BD81BD20BD0FB6F894FA9AB4
:10174000F99A0FBE01960895052E97FB1EF400949A
:101750000E94BB0B57FD07D00E94D60B07FC03D09D
:101760004EF40C94BB0B50954095309521953F4F0E
:101770004F4F5F4F089590958095709561957F4F7D
:101780008F4F9F4F08950E94FF08A59F900DB49F13
:10179000900DA49F800D911D11240895B7FF0C9406
:1017A000C30B0E94C30B821B930B0895A1E21A2E58
:1017B000AA1BBB1BFD010DC0AA1FBB1FEE1FFF1FF5
:1017C000A217B307E407F50720F0A21BB30BE40B45
:1017D000F50B661F771F881F991F1A9469F760958C
:1017E0007095809590959B01AC01BD01CF01089546
:0417F000F894FFCF9B
:0C17F400AA2601230122010100000000D0
:00000001FF
