:100000000C9446000C946C000C946C000C946C00E6
:100010000C946C000C946C000C9405020C946C0015
:100020000C946C000C946C000C946C000C944106C5
:100030000C946C000C946C000C9498040C946C0060
:100040000C946C000C946C000C946C000C946C0080
:100050000C946C000C946C000C946C000C94630673
:100060000C946C000C946C004905A005B405E505E2
:10007000ED05CB05F0054C073D083D085507580731
:100080005B075D075F0761071208730711241FBE36
:10009000CFEFD8E0DEBFCDBF14BE88E10FB6F89435
:1000A00080936000109260000FBE11E0A0E0B1E00C
:1000B000EEEFF7E102C005900D92AE30B107D9F72F
:1000C00021E0AEE0B1E001C01D92A438B207E1F733
:1000D0000E94EC080C94FD0B0C9400008AE191E066
:1000E000089581E090E090931501809314010895A4
:1000F0001092230182E080931A018AE191E00E942C
:10010000500890932501809324010895CF93DF93A5
:10011000EC01CB0121E030E030931101209310017C
:100120000E940003282F30E04881809100019091C7
:1001300001012817390734F430930101209300019D
:1001400040930201DF91CF910895209112013091E7
:1001500013012817390721F190931301809312019D
:10016000009711F460E019C08130910539F40E94C4
:100170002902609182018091810110C08230910535
:1001800031F40E94290260E08091830107C0039747
:1001900039F40E94290260916F0180E00C942402DE
:1001A000089580910E0190910F01019690930F0197
:1001B00080930E0185319105ACF010920F011092E1
:1001C0000E0180E090E00E94A50080E00E941305EF
:1001D00082E08093020188EE93E090930101809386
:1001E000000125C00B971CF180910201823031F093
:1001F00080E090E00E94A50085E117C00E94C8023F
:1002000087FF06C081E090E00E94A50084E00DC059
:10021000803430F482E090E00E94A50080E105C0C7
:1002200083E090E00E94A50081E00E94130584EF26
:1002300091E00C941902089580E090E008950895EB
:10024000DF92EF92FF920F931F93CF93DF93F89477
:1002500014B817B81AB815B818B81BB8529A5A9AE1
:1002600014BC85E085BD8FEF87BD22E020936E0032
:1002700010928000109281008FE89BE0909389009B
:100280008093880020936F005398239881EA80938D
:10029000B0002093B1001092B4001092B3008BE034
:1002A00080BF83E080937F0086E080937C0083E8BA
:1002B00080937A0080917A00806480937A008091A4
:1002C0007A0086FDFCCF10927C0083EA80937A004E
:1002D00081E080937B0081E090E00E94930B8F3F50
:1002E00011F08093660010924D01C1E0C093260189
:1002F000C0936A011092440110927E0180E990E05F
:100300000E94930B8093430180914301887311F005
:10031000C093430110926E0110926D018FEF90E037
:1003200090936C0180936B011092490110924A01E5
:1003300010924B0110924C0181E08093190182E4EC
:100340009FE090937D0180937C0180EB90E00E9480
:10035000930BC82F81EB90E00E94930B2C2F30E081
:10036000382B3093800120937F0185E090E00E943C
:10037000930B8093830189E090E00E94930B80931C
:100380006F018CE090E00E94930B8093810184E1E7
:1003900090E00E94930B809382010EE411E057E2FB
:1003A000E52E51E0F52EC0E2D0E0CE010E94930B85
:1003B000D82ECE0101960E94930B2D2D30E0322FC6
:1003C0002227282BF801219331938F01CE01C0966B
:1003D0000E94930BD82ECE01C1960E94930B2D2D17
:1003E00030E0322F2227282BF701219331937F0110
:1003F0002296CC33D105C9F67894DF91CF911F9125
:100400000F91FF90EF90DF9008951F920F920FB61B
:100410000F9211248F9388E10FB6F89480936000B7
:10042000109260000FBE8F910F900FBE0F901F9023
:100430001895009741F0EFECF7E03197F1F700C025
:1004400000000197F6CF08958093B3006093B40045
:1004500008958FEF8093B3008093B4008FE090E015
:100460000C94190280914D0181111EC0F89487E00F
:1004700080937C0083E880937A0080917A00806486
:1004800080937A0080917A0086FDFCCF809178007D
:100490009091790010927C0023EA20937A0021E069
:1004A00020937B00789408958FEF9FEF08958091BB
:1004B0004D0181111EC0F89488EC80937C0087E880
:1004C00080937A0080917A00806480937A00809192
:1004D0007A0086FDFCCF809178009091790010928F
:1004E0007C0023EA20937A0021E020937B0078941B
:1004F00008958FEF9FEF0895CF9320E030E080E0E4
:10050000F3EAA1E0B6E0C3E841E050E090E0F894FF
:10051000B0937C00C0937A0060917A00606460932D
:100520007A0060917A0066FDFCCF6091780070914E
:100530007900E62FE17070917A00706470937A0010
:1005400060917A0066FDFCCF60917800709179002F
:1005500010927C00F0937A00A0937B0078949F5FC8
:100560006170E61751F0EE2359F0BA01022E01C076
:10057000660F0A94EAF7862B03C0903841F6F3CF52
:100580002F5F3F4F2830310509F0C0CFCF9108953C
:100590002091030138E0239FC0011124922F982756
:1005A0008091160121E0280F2093160186958695EB
:1005B00089279295969597708927809303010895CE
:1005C00080930301089580914D01811116C0F89424
:1005D00086E080937C0083E880937A0080917A00A3
:1005E000806480937A0080917A0086FDFCCF8091B0
:1005F000780090917900789408958FEF9FEF089597
:100600002F923F924F925F926F927F928F929F9222
:10061000AF92BF92CF92DF92EF92FF920F931F9310
:10062000CF93DF9300D000D0CDB7DEB79A83898314
:10063000FC010280F381E02DFC83EB83E43823E0AE
:10064000F2070CF087C080912701909128018E1746
:100650009F0708F477C0E9E2F1E0332433948191F5
:1006600091912B813C818217930730F033943EE0C7
:100670003312F5CFBDE03B2EE32DF0E0DF01AA0FF2
:10068000BB1FA95DBE4F0D911C91EE0FFF1FEB5DCF
:10069000FE4F80819181B801681B790B80E090E06A
:1006A0000E94440A9B01AC010E9447096B017C0136
:1006B000EB81FC81BF01882777FD8095982F0E94F0
:1006C000460A4B015C01B80180E090E00E94440AB8
:1006D0002B013C01632D70E080E090E00E94440A11
:1006E00020E030E040E05FE30E94D20A20E030E00A
:1006F000A9010E9447099B01AC01C701B6010E94F4
:10070000D20A9B01AC01C301B2010E9446099B01C0
:10071000AC01C501B4010E94460920E030E040E28E
:1007200051E40E94D20A0E94130A8B01C701B6014C
:100730000E94130AAB01BC01C801BA010E94090959
:10074000762E01C0712C2B813C812D3B32400CF464
:10075000D2C002C077247A94E981FA81A080B18066
:1007600080914E0190914F018A159B0508F4C6C0F7
:10077000E0E5F1E081E090E0682E019111910A1529
:100780001B0508F45AC001968E309105A9F71AE5A9
:10079000FFEF7F1609F44EC02B813C81B9018827F9
:1007A00077FD8095982F0E94460A6B017C01672D8A
:1007B00070E080E090E00E94440A4B015C01A701D8
:1007C000960160E070E081E694E40E9446099B0196
:1007D000AC01C501B4010E94D20A4B015C01612F3A
:1007E00070E080E090E00E94440A2B013C0120E090
:1007F00030E04FE254E4C701B6010E9446099B0174
:10080000AC01C301B2010E94D20A9B01AC01C50137
:10081000B4010E94470920E030E048E453E40E941C
:10082000AB0920E030E044E052E40E9447090E9416
:10083000180A66C061E2610F63C0FC01EE0FFF1F82
:10084000E45BFE4F80819181B801681B790B80E0E9
:1008500090E00E94440A9B01AC010E9447096B0191
:100860007C01B501882777FD8095982F0E94460A64
:100870004B015C01B80180E090E00E94440A1B013A
:100880002C01662D70E080E090E00E94440A20E098
:1008900030E040E05FE30E94D20A20E030E0A901AE
:1008A0000E9447099B01AC01C701B6010E94D20A10
:1008B0009B01AC01C201B1010E9446099B01AC0140
:1008C000C501B4010E94460920E030E040E251E455
:1008D0000E94D20A0E94130A8B01C701B6010E942E
:1008E000130AAB01BC01C801BA010E940909162F05
:1008F0006F3F09F04DCF61E2670D02C010E048CFB5
:10090000862F0F900F900F900F90DF91CF911F9136
:100910000F91FF90EF90DF90CF90BF90AF909F909E
:100920008F907F906F905F904F903F902F900895A1
:100930001F920F920FB60F9211242F933F934F9354
:100940005F936F937F938F939F93AF93BF93EF9337
:10095000FF9380916D0190916E0120916B01309118
:100960006C01820F931F90936E0180936D018FEF46
:1009700090E090936C0180936B018FEF87BD809125
:10098000490190914A01A0914B01B0914C0101960F
:10099000A11DB11D8093490190934A01A0934B0181
:1009A000B0934C0180914D0181112CC080917C014C
:1009B00090917D0120916D0130916E018217930716
:1009C00008F5809119018430E9F4E0910601F09175
:1009D000070109950097B1F00E946908882351F03A
:1009E000E0910401F0910501099510926E011092B9
:1009F0006D0108C00E94830B992790936C0180932E
:100A00006B0187BDFF91EF91BF91AF919F918F9146
:100A10007F916F915F914F913F912F910F900FBEFA
:100A20000F901F90189580FF02C0559A01C05598ED
:100A300081FF02C0549A01C0549882FF02C03B9AC1
:100A400001C03B9883FF02C03A9A01C03A9884FFE4
:100A500002C03D9A01C03D9885FF02C03C9A0895AE
:100A60003C980895EC018B01C12CDD24DA9484E0DC
:100A7000B82E98E1E92EF12C29E2A22E209119013D
:100A8000E22FF0E0E730F105C8F7EC5CFF4F0C9483
:100A90001D09F89480B7877F80BF80917A008F7797
:100AA00080937A0014B817B81AB815B818B81BB8DC
:100AB0000FB6F894A895E09260000FBEA092600077
:100AC0008091600080648093600083B7817F846040
:100AD00083BFF89483B7816083BF7894889583B788
:100AE0008E7F83BF789410924D01529A5A9A8091CA
:100AF0007A00806880937A0087E592E00197F1F7A9
:100B000000C0000080B7886180BF8FE30E9413059A
:100B1000EFE1FEE43197F1F700C0000080914D0154
:100B2000882309F450C083E00E941305FFEF20E7FB
:100B300082E0F15020408040E1F700C0000043C057
:100B40008CE00E941305EFECF7E03197F1F700C05D
:100B5000000080E00E941305FFEF21EE84E0F150D9
:100B600020408040E1F72CC00E94E3028B3AE2E093
:100B70009E0724F08CE00E94130580CF8938F2E0B4
:100B80009F0714F080E3F7CF8736924014F08FE090
:100B9000F2CF83E0F0CF489916C081E00E941305A0
:100BA0008FEC97E00197F1F700C0000080E00E9411
:100BB00013059FEFE1EEF4E09150E040F040E1F7E3
:100BC00000C000005BCF80E0D6CFC11002C0FE01A4
:100BD0000995B0921901CC24C394F80109954ECF20
:100BE00080911701811107C01092B3001092B400D8
:100BF0001092180143CF9091170180911801981716
:100C000009F43CCF8091170180931801809117015E
:100C1000813089F4D092B3001092B4008FE295E74E
:100C20000197F1F700C00000809183018093B30029
:100C30001092B40023CF809117011092B300D0928C
:100C4000B400823059F4EFE2F5E73197F1F700C0D4
:100C5000000080916F011092B30010C0D092B300D9
:100C6000D092B4008FE295E70197F1F700C0000041
:100C700080918201909181019093B3008093B400A0
:100C8000FDCE1F920F920FB60F9211248F939F9358
:100C900010928100109285001092840081E0809370
:100CA000260180936A0110924D0110927C0093EA14
:100CB00090937A0080937B009F918F910F900FBE4D
:100CC0000F901F9018951F920F920FB60F9211243C
:100CD0002F933F934F935F936F937F938F939F9344
:100CE000AF93BF93CF93DF93EF93FF932091840053
:100CF0003091850041E040934D0180912601882389
:100D000021F110928500109284004093810010928E
:100D10007E011092260180916A01882309F4ADC1F9
:100D200080917A0086FDFCCF8091780090917900C7
:100D3000909348018093470181E080937C0093EA7F
:100D400090937A0080937B0098C1C90187589109DC
:100D500084379940A0F01092810010928500109283
:100D600084004093260140936A0110924D01109235
:100D70007C0083EA80937A0040937B007EC12658F2
:100D80003109A4EFB0E00E942309AA27BB278830CD
:100D900060F421E030E001C0220F8A95EAF78091EB
:100DA0007E01822B80937E0168C140932601809151
:100DB0006A01882341F180917A0086FDFCCF809101
:100DC00078009091790090934601809345011092AC
:100DD0007C0083EA80937A0081E080937B0090918D
:100DE0007E01992359F01092810010928500109293
:100DF000840080936A0110924D013FC110926A01F4
:100E0000109244013AC180914401E82FF0E0E0598A
:100E1000FE4F90917E0190838F5F809344018C30D0
:100E200009F02BC11092810010928500109284006D
:100E300040936A0110924D01C0917A01D0917B01DB
:100E400080E791E00E945008C817D90709F015C142
:100E50008091790187FD0AC0E0910801F0910901B4
:100E600065E471E080E791E0099507C198E7980F84
:100E7000933030F0539823981092B4001092B3003E
:100E800090E0FC01E058F109EB30F10508F0F5C005
:100E9000E55CFF4F0C941D0980916E008D7F80935F
:100EA0006E0016BCE0E0F0E702C0E0E0F0E009957B
:100EB00010921901E2C081E0B2C085E0B0C082E0CA
:100EC000AEC080911901833009F4D7C08091190117
:100ED000843009F4D2C0539A239A1092B40010922D
:100EE000B30083E09CC080917001823009F44BC054
:100EF00080F48823A9F0813009F082C080917101CB
:100F0000909172019093800180937F01109217015C
:100F100077C0833009F449C0843009F458C070C0E8
:100F200080911901863009F06BC060917F0180EBE0
:100F300090E00E949B0B6091800181EB90E00E9409
:100F40009B0B6091830185E090E00E949B0B609178
:100F50006F0189E090E00E949B0B609181018CE021
:100F600090E00E949B0B6091820184E190E00E94DE
:100F70009B0B539823981092B4001092B30081E019
:100F8000809319013DC090911701809173019130B8
:100F900021F490918301981799F11092180191E032
:100FA00090931701809383012BC09091170180913A
:100FB0007401923021F490916F01981709F1109209
:100FC000180192E09093170180936F0119C020914E
:100FD00017018091760190917501233041F42091A1
:100FE0008201281304C020918101291749F0109231
:100FF000180123E0209317019093810180938201CF
:10100000809170018823C9F1809119018630A9F17E
:10101000539A239A1092B4001092B30086E0809302
:1010200019012BC080911901863081F0539A239ABF
:101030001092B4001092B30080E00E941305109249
:1010400017011092180186E08093190181E090E069
:101050000090700102C0880F991F0A94E2F7209156
:101060007F013091800182239323892B21F081E03D
:101070008093170102C010921701FF91EF91DF9149
:10108000CF91BF91AF919F918F917F916F915F9120
:101090004F913F912F910F900FBE0F901F90189579
:1010A000FC012AE08FEF9FEF31918327082E829574
:1010B000807F8025092E982F82958F70082686952F
:1010C00098278927880F880F880F8025215061F77E
:1010D00008950FB6F894A4B1209143012A2B24B9A6
:1010E00021E030914301203029F0000025B1232B6D
:1010F00025B904C000000000000000C0000000008E
:101100000000309525B1232325B92EEA2A95F1F761
:101110002BEE30B735FF0AC0A4B9309143013095AA
:1011200025B1232325B90FBE80E0089500002A953C
:1011300081F721E030914301203029F0000025B1F2
:10114000232B25B904C000000000000000C00000EF
:1011500000000000309525B1232325B9000024E5C7
:101160002A95F1F7FC018CE0619170E0660F771F22
:10117000616072609AE041E050E09A0126233723D3
:10118000232B30914301203029F0000025B1232B7F
:1011900025B904C000000000000000C000000000ED
:1011A0000000309525B1232325B9000021E52A95BB
:1011B000F1F7440F551F9A9501F78A95A9F620B7C4
:1011C000206120BFA4B930914301309525B123237C
:1011D00025B90FBE81E008950E94200186E890E0C5
:1011E00090930901809308018EE690E090930701A7
:1011F0008093060181E790E09093050180930401BC
:1012000061ED70E088E790E00E94320580E090E0B8
:10121000089597FB072E16F4009407D077FD09D0A8
:101220000E94320907FC05D03EF4909581959F4FAE
:101230000895709561957F4F0895EE0FFF1F0590FB
:10124000F491E02D0994A29FB001B39FC001A39F28
:10125000700D811D1124911DB29F700D811D1124EF
:10126000911D0895AA1BBB1B51E107C0AA1FBB1FFC
:10127000A617B70710F0A61BB70B881F991F5A9522
:10128000A9F780959095BC01CD0108955058BB27D2
:10129000AA270ED04DC13ED130F043D120F031F419
:1012A0009F3F11F41EF433C10EF4E095E7FB29C112
:1012B000E92F4FD180F3BA176207730784079507A8
:1012C00018F071F49EF567C10EF4E0950B2EBA2F5D
:1012D000A02D0B01B90190010C01CA01A00111243C
:1012E000FF27591B99F0593F50F4503E68F11A16E8
:1012F000F040A22F232F342F4427585FF3CF469579
:1013000037952795A795F0405395C9F77EF41F169A
:10131000BA0B620B730B840BBAF09150A1F0FF0F64
:10132000BB1F661F771F881FC2F70EC0BA0F621F50
:10133000731F841F48F4879577956795B795F79540
:101340009E3F08F0B3CF9395880F08F09927EE0FD2
:101350009795879508950CD0EBC0E3D040F0DAD094
:1013600030F021F45F3F19F0CCC0511115C1CFC04E
:10137000F0D098F39923C9F35523B1F3951B550B7E
:10138000BB27AA2762177307840738F09F5F5F4F58
:10139000220F331F441FAA1FA9F333D00E2E3AF099
:1013A000E0E830D091505040E695001CCAF729D0B3
:1013B000FE2F27D0660F771F881FBB1F2617370702
:1013C0004807AB07B0E809F0BB0B802DBF01FF2732
:1013D00093585F4F2AF09E3F510568F092C0DCC0E1
:1013E0005F3FECF3983EDCF3869577956795B7956C
:1013F000F7959F5FC9F7880F911D9695879597F987
:101400000895E1E0660F771F881FBB1F62177307FF
:101410008407BA0720F0621B730B840BBA0BEE1F14
:1014200088F7E095089504D06894B111B5C0089587
:1014300098D088F09F5790F0B92F9927B751A0F016
:10144000D1F0660F771F881F991F1AF0BA95C9F758
:1014500012C0B13081F09FD0B1E008959CC0672FD9
:10146000782F8827B85F39F0B93FCCF38695779508
:101470006795B395D9F73EF49095809570956195F1
:101480007F4F8F4F9F4F0895E89409C097FB3EF41C
:1014900090958095709561957F4F8F4F9F4F9923C1
:1014A000A9F0F92F96E9BB279395F695879577953F
:1014B0006795B795F111F8CFFAF4BB0F11F460FFFF
:1014C0001BC06F5F7F4F8F4F9F4F16C0882311F057
:1014D00096E911C0772321F09EE8872F762F05C06B
:1014E000662371F096E8862F70E060E02AF09A9506
:1014F000660F771F881FDAF7880F9695879597F9FB
:10150000089597F99F6780E870E060E008959FEF85
:1015100080EC089500240A9416161706180609068A
:10152000089500240A941216130614060506089559
:10153000092E0394000C11F4882352F0BB0F40F4E1
:10154000BF2B11F460FF04C06F5F7F4F8F4F9F4F21
:10155000089557FD9058440F551F59F05F3F71F0A3
:101560004795880F97FB991F61F09F3F79F087950A
:101570000895121613061406551FF2CF4695F1DF93
:1015800008C0161617061806991FF1CF8695710523
:10159000610508940895E894BB2766277727CB0157
:1015A00097F908950BD0C4CFB5DF28F0BADF18F053
:1015B000952309F0A6CFABCF1124EECFCADFA0F35D
:1015C000959FD1F3950F50E0551F629FF001729FD8
:1015D000BB27F00DB11D639FAA27F00DB11DAA1FF7
:1015E000649F6627B00DA11D661F829F2227B00D44
:1015F000A11D621F739FB00DA11D621F839FA00DCF
:10160000611D221F749F3327A00D611D231F849F1E
:10161000600D211D822F762F6A2F11249F57504075
:101620008AF0E1F088234AF0EE0FFF1FBB1F661F10
:10163000771F881F91505040A9F79E3F510570F0C9
:1016400060CFAACF5F3FECF3983EDCF386957795A9
:101650006795B795F795E7959F5FC1F7FE2B880FC4
:10166000911D9695879597F908958F929F92AF92C5
:10167000BF92CF92DF92EF92FF92CF93DF93EC0174
:10168000688179818A819B81611571058105910548
:1016900021F464E279ED8BE597E02DE133EF41E051
:1016A00050E00E94A90B49015A019B01AC01A7EA35
:1016B000B1E40E94C80B6B017C01ACEEB4EFA50154
:1016C00094010E94D60BC60ED71EE81EF91EF7FE27
:1016D00006C081E0C81AD108E10880E8F80AC8828B
:1016E000D982EA82FB82C6019F77DF91CF91FF907A
:1016F000EF90DF90CF90BF90AF909F908F90089524
:101700000E94350B08958AE091E00E94350B089500
:10171000A0E0B0E080930A0190930B01A0930C012C
:10172000B0930D010895F999FECF92BD81BDF89A4D
:10173000992780B50895262FF999FECF1FBA92BD3B
:1017400081BD20BD0FB6F894FA9AF99A0FBE0196A2
:101750000895052E97FB1EF400940E94C00B57FDC0
:1017600007D00E94DB0B07FC03D04EF40C94C00B97
:1017700050954095309521953F4F4F4F5F4F0895BD
:1017800090958095709561957F4F8F4F9F4F0895ED
:101790000E942309A59F900DB49F900DA49F800DDA
:1017A000911D11240895B7FF0C94C80B0E94C80B1B
:1017B000821B930B0895A1E21A2EAA1BBB1BFD01ED
:1017C0000DC0AA1FBB1FEE1FFF1FA217B307E40720
:1017D000F50720F0A21BB30BE40BF50B661F771F78
:1017E000881F991F1A9469F7609570958095909558
:0E17F0009B01AC01BD01CF010895F894FFCF1D
:0E17FE00E80301AA1F011C011B0101000000ED
:00000001FF
