:100000000C9446000C946C000C946C000C946C00E6
:100010000C946C000C946C000C948F010C946C008C
:100020000C946C000C946C000C946C000C94CB053C
:100030000C946C000C946C000C9422040C946C00D6
:100040000C946C000C946C000C946C000C946C0080
:100050000C946C000C946C000C946C000C94ED05EA
:100060000C946C000C946C00D3042A053E056F05BB
:10007000770555057A05D606C707C707DF06E206E6
:10008000E506E706E906EB069C07FD0611241FBE00
:10009000CFEFD8E0DEBFCDBF14BE88E10FB6F89435
:1000A00080936000109260000FBE11E0A0E0B1E00C
:1000B000EEEEF6E102C005900D92AE30B107D9F731
:1000C00021E0AEE0B1E001C01D92A037B207E1F738
:1000D0000E9476080C94750B0C940000089580E142
:1000E0000E949D0480910001909101010E94A30152
:1000F00084E10E949D0480910001909101010E9481
:10010000A30184E00E949D0480910001909101016F
:100110000E94A30185E00E949D04809100019091BE
:1001200001010E94A30181E00E949D0480910001D1
:10013000909101010E94A30181E10E949D048091A0
:100140000001909101010C94A301089580E090E0DA
:1001500008950895DF92EF92FF920F931F93CF932C
:10016000DF93F89414B817B81AB815B818B81BB8B4
:10017000529A5A9A14BC85E085BD8FEF87BD22E064
:1001800020936E0010928000109281008FE89BE017
:10019000909389008093880020936F005398239850
:1001A00081EA8093B0002093B1001092B4001092C5
:1001B000B3008BE080BF83E080937F0086E0809374
:1001C0007C0083E880937A0080917A008064809339
:1001D0007A0080917A0086FDFCCF10927C0083EA41
:1001E00080937A0081E080937B0081E090E00E9420
:1001F0000B0B8F3F11F08093660010923901C1E024
:10020000C0931201C09356011092300110926A01FE
:1002100080E990E00E940B0B80932F0180912F01C9
:10022000887311F0C0932F0110925A011092590156
:100230008FEF90E090935801809357011092350111
:1002400010923601109237011092380181E08093AC
:10025000110182E49FE0909369018093680180EB33
:1002600090E00E940B0BC82F81EB90E00E940B0BDB
:100270002C2F30E0382B30936C0120936B0185E0FC
:1002800090E00E940B0B80936F0189E090E00E9448
:100290000B0B80935B018CE090E00E940B0B809332
:1002A0006D0184E190E00E940B0B80936E010AE3E4
:1002B00011E053E1E52E51E0F52EC0E2D0E0CE0191
:1002C0000E940B0BD82ECE0101960E940B0B2D2DF8
:1002D00030E0322F2227282BF801219331938F0110
:1002E000CE01C0960E940B0BD82ECE01C1960E9463
:1002F0000B0B2D2D30E0322F2227282BF7012193D5
:1003000031937F012296CC33D105C9F67894DF91E1
:10031000CF911F910F91FF90EF90DF9008951F9262
:100320000F920FB60F9211248F9388E10FB6F894B5
:1003300080936000109260000FBE8F910F900FBEEF
:100340000F901F901895009741F0EFECF7E0319770
:10035000F1F700C000000197F6CF08958093B30035
:100360006093B40008958FEF8093B3008093B4003E
:100370008FE090E00C94A3018091390181111EC09F
:10038000F89487E080937C0083E880937A008091E2
:100390007A00806480937A0080917A0086FDFCCF99
:1003A000809178009091790010927C0023EA20934C
:1003B0007A0021E020937B00789408958FEF9FEFDF
:1003C00008958091390181111EC0F89488EC8093C2
:1003D0007C0087E880937A0080917A008064809323
:1003E0007A0080917A0086FDFCCF80917800909110
:1003F000790010927C0023EA20937A0021E0209378
:100400007B00789408958FEF9FEF0895CF9320E0BD
:1004100030E080E0F3EAA1E0B6E0C3E841E050E07C
:1004200090E0F894B0937C00C0937A0060917A00D9
:10043000606460937A0060917A0066FDFCCF609101
:10044000780070917900E62FE17070917A00706405
:1004500070937A0060917A0066FDFCCF609178001D
:100460007091790010927C00F0937A00A0937B0049
:1004700078949F5F6170E61751F0EE2359F0BA014E
:10048000022E01C0660F0A94EAF7862B03C090384B
:1004900041F6F3CF2F5F3F4F2830310509F0C0CF31
:1004A000CF9108952091020138E0239FC0011124CB
:1004B000922F982780910E0121E0280F20930E01A2
:1004C000869586958927929596959770892780932A
:1004D00002010895809302010895809139018111EC
:1004E00016C0F89486E080937C0083E880937A00BD
:1004F00080917A00806480937A0080917A0086FDF2
:10050000FCCF8091780090917900789408958FEFD6
:100510009FEF08952F923F924F925F926F927F923A
:100520008F929F92AF92BF92CF92DF92EF92FF9203
:100530000F931F93CF93DF9300D000D0CDB7DEB7DA
:100540009A838983FC010280F381E02DFC83EB8395
:10055000E43823E0F2070CF087C0809113019091FA
:1005600014018E179F0708F477C0E5E1F1E033240A
:100570003394819191912B813C818217930730F0C4
:1005800033943EE03312F5CFBDE03B2EE32DF0E097
:10059000DF01AA0FBB1FAD5EBE4F0D911C91EE0F88
:1005A000FF1FEF5EFE4F80819181B801681B790BC0
:1005B00080E090E00E94BC099B01AC010E94BF0852
:1005C0006B017C01EB81FC81BF01882777FD809561
:1005D000982F0E94BE094B015C01B80180E090E0B9
:1005E0000E94BC092B013C01632D70E080E090E08B
:1005F0000E94BC0920E030E040E05FE30E944A0A2C
:1006000020E030E0A9010E94BF089B01AC01C701B6
:10061000B6010E944A0A9B01AC01C301B2010E94CB
:10062000BE089B01AC01C501B4010E94BE0820E0D8
:1006300030E040E251E40E944A0A0E948B098B019B
:10064000C701B6010E948B09AB01BC01C801BA0108
:100650000E948108762E01C0712C2B813C812D3B9C
:1006600032400CF4D2C002C077247A94E981FA8136
:10067000A080B18080913A0190913B018A159B0541
:1006800008F4C6C0ECE3F1E081E090E0682E01914F
:1006900011910A151B0508F45AC001968E30910578
:1006A000A9F71AE5FFEF7F1609F44EC02B813C81B4
:1006B000B901882777FD8095982F0E94BE096B01AC
:1006C0007C01672D70E080E090E00E94BC094B0146
:1006D0005C01A701960160E070E081E694E40E946D
:1006E000BE089B01AC01C501B4010E944A0A4B013E
:1006F0005C01612F70E080E090E00E94BC092B015A
:100700003C0120E030E04FE254E4C701B6010E9412
:10071000BE089B01AC01C301B2010E944A0A9B01C1
:10072000AC01C501B4010E94BF0820E030E048E4FC
:1007300053E40E94230920E030E044E052E40E94A8
:10074000BF080E94900966C061E2610F63C0FC01AE
:10075000EE0FFF1FE85CFE4F80819181B801681B9E
:10076000790B80E090E00E94BC099B01AC010E94E3
:10077000BF086B017C01B501882777FD8095982F14
:100780000E94BE094B015C01B80180E090E00E942C
:10079000BC091B012C01662D70E080E090E00E94F6
:1007A000BC0920E030E040E05FE30E944A0A20E01C
:1007B00030E0A9010E94BF089B01AC01C701B6014E
:1007C0000E944A0A9B01AC01C201B1010E94BE080D
:1007D0009B01AC01C501B4010E94BE0820E030E0DD
:1007E00040E251E40E944A0A0E948B098B01C70132
:1007F000B6010E948B09AB01BC01C801BA010E947D
:100800008108162F6F3F09F04DCF61E2670D02C0DE
:1008100010E048CF862F0F900F900F900F90DF9130
:10082000CF911F910F91FF90EF90DF90CF90BF90ED
:10083000AF909F908F907F906F905F904F903F9080
:100840002F9008951F920F920FB60F9211242F939D
:100850003F934F935F936F937F938F939F93AF9348
:10086000BF93EF93FF938091590190915A0120918A
:10087000570130915801820F931F90935A01809332
:1008800059018FEF90E090935801809357018FEFBB
:1008900087BD8091350190913601A0913701B091CB
:1008A00038010196A11DB11D809335019093360149
:1008B000A0933701B09338018091390181112CC088
:1008C00080916801909169012091590130915A01FC
:1008D0008217930708F5809111018430E9F4E091C3
:1008E0000501F091060109950097B1F00E94F30708
:1008F000882351F0E0910301F091040109951092D1
:100900005A011092590108C00E94FB0A992790933E
:1009100058018093570187BDFF91EF91BF91AF912F
:100920009F918F917F916F915F914F913F912F9107
:100930000F900FBE0F901F90189580FF02C0559A20
:1009400001C0559881FF02C0549A01C0549882FF9B
:1009500002C03B9A01C03B9883FF02C03A9A01C093
:100960003A9884FF02C03D9A01C03D9885FF02C0BD
:100970003C9A08953C980895EC018B01C12CDD242C
:10098000DA9484E0B82E98E1E92EF12C29E2A22E27
:1009900020911101E22FF0E0E730F105C8F7EC5C9F
:1009A000FF4F0C949508F89480B7877F80BF8091A3
:1009B0007A008F7780937A0014B817B81AB815B8F0
:1009C00018B81BB80FB6F894A895E09260000FBE57
:1009D000A09260008091600080648093600083B783
:1009E000817F846083BFF89483B7816083BF7894EC
:1009F000889583B78E7F83BF789410923901529A7D
:100A00005A9A80917A00806880937A0087E592E014
:100A10000197F1F700C0000080B7886180BF8FE3C5
:100A20000E949D04EFE1FEE43197F1F700C0000061
:100A300080913901882309F450C083E00E949D040D
:100A4000FFEF20E782E0F15020408040E1F700C056
:100A5000000043C08CE00E949D04EFECF7E031976A
:100A6000F1F700C0000080E00E949D04FFEF21EE3E
:100A700084E0F15020408040E1F72CC00E946D02DC
:100A80008B3AE2E09E0724F08CE00E949D0480CF28
:100A90008938F2E09F0714F080E3F7CF8736924061
:100AA00014F08FE0F2CF83E0F0CF489916C081E0D8
:100AB0000E949D048FEC97E00197F1F700C00000C1
:100AC00080E00E949D049FEFE1EEF4E09150E04051
:100AD000F040E1F700C000005BCF80E0D6CFC1104E
:100AE00002C0FE010995B0921101CC24C394F80113
:100AF00009954ECF80910F01811107C01092B3006C
:100B00001092B4001092100143CF90910F01809188
:100B10001001981709F43CCF80910F0180931001C8
:100B200080910F01813089F4D092B3001092B4000B
:100B30008FE295E70197F1F700C0000080916F0107
:100B40008093B3001092B40023CF80910F011092D4
:100B5000B300D092B400823059F4EFE2F5E7319758
:100B6000F1F700C0000080915B011092B30010C04B
:100B7000D092B300D092B4008FE295E70197F1F7DD
:100B800000C0000080916E0190916D019093B300C0
:100B90008093B400FDCE1F920F920FB60F921124D6
:100BA0008F939F9310928100109285001092840081
:100BB00081E08093120180935601109239011092C6
:100BC0007C0093EA90937A0080937B009F918F91B1
:100BD0000F900FBE0F901F9018951F920F920FB697
:100BE0000F9211242F933F934F935F936F937F93B3
:100BF0008F939F93AF93BF93CF93DF93EF93FF9325
:100C0000209184003091850041E04093390180912A
:100C10001201882321F110928500109284004093E4
:100C2000810010926A01109212018091560188236E
:100C300009F4ADC180917A0086FDFCCF80917800E7
:100C400090917900909334018093330181E08093F7
:100C50007C0093EA90937A0080937B0098C1C9014D
:100C60008758910984379940A0F010928100109222
:100C70008500109284004093120140935601109217
:100C8000390110927C0083EA80937A0040937B00C4
:100C90007EC126583109A4EFB0E00E949B08AA2724
:100CA000BB27883060F421E030E001C0220F8A9534
:100CB000EAF780916A01822B80936A0168C14093B0
:100CC000120180915601882341F180917A0086FDBE
:100CD000FCCF8091780090917900909332018093BD
:100CE000310110927C0083EA80937A0081E0809346
:100CF0007B0090916A01992359F010928100109223
:100D000085001092840080935601109239013FC1F2
:100D100010925601109230013AC180913001E82FB3
:100D2000F0E0E45AFE4F90916A0190838F5F8093C8
:100D300030018C3009F02BC1109281001092850097
:100D4000109284004093560110923901C0916601BF
:100D5000D09167018CE591E00E94DA07C817D907A6
:100D600009F015C18091650187FD0AC0E091070176
:100D7000F091080161E371E08CE591E0099507C10C
:100D800098E7980F933030F0539823981092B4005E
:100D90001092B30090E0FC01E058F109EB30F1054E
:100DA00008F0F5C0E55CFF4F0C94950880916E004B
:100DB0008D7F80936E0016BCE0E0F0E702C0E0E0BB
:100DC000F0E0099510921101E2C081E0B2C085E027
:100DD000B0C082E0AEC080911101833009F4D7C069
:100DE00080911101843009F4D2C0539A239A109251
:100DF000B4001092B30083E09CC080915C0182300B
:100E000009F44BC080F48823A9F0813009F082C036
:100E100080915D0190915E0190936C0180936B01D4
:100E200010920F0177C0833009F449C0843009F46F
:100E300058C070C080911101863009F06BC060917C
:100E40006B0180EB90E00E94130B60916C0181EBD1
:100E500090E00E94130B60916F0185E090E00E948A
:100E6000130B60915B0189E090E00E94130B60918D
:100E70006D018CE090E00E94130B60916E0184E1A3
:100E800090E00E94130B539823981092B400109294
:100E9000B30081E0809311013DC090910F018091DA
:100EA0005F01913021F490916F01981799F11092A0
:100EB000100191E090930F0180936F012BC09091EE
:100EC0000F0180916001923021F490915B0198179D
:100ED00009F11092100192E090930F0180935B0151
:100EE00019C020910F01809162019091610123301E
:100EF00041F420916E01281304C020916D0129173F
:100F000049F01092100123E020930F0190936D019E
:100F100080936E0180915C018823C9F18091110159
:100F20008630A9F1539A239A1092B4001092B3001C
:100F300086E0809311012BC080911101863081F0F1
:100F4000539A239A1092B4001092B30080E00E944A
:100F50009D0410920F011092100186E08093110100
:100F600081E090E000905C0102C0880F991F0A9414
:100F7000E2F720916B0130916C0182239323892B3E
:100F800021F081E080930F0102C010920F01FF91C8
:100F9000EF91DF91CF91BF91AF919F918F917F9111
:100FA0006F915F914F913F912F910F900FBE0F90D6
:100FB0001F901895FC012AE08FEF9FEF3191832756
:100FC000082E8295807F8025092E982F82958F701C
:100FD0000826869598278927880F880F880F8025EF
:100FE000215061F708950FB6F894A4B120912F0114
:100FF0002A2B24B921E030912F01203029F0000064
:1010000025B1232B25B904C000000000000000C05A
:10101000000000000000309525B1232325B92EEAF9
:101020002A95F1F72BEE30B735FF0AC0A4B93091FD
:101030002F01309525B1232325B90FBE80E00895F7
:1010400000002A9581F721E030912F01203029F00E
:10105000000025B1232B25B904C0000000000000CA
:1010600000C0000000000000309525B1232325B901
:10107000000024E52A95F1F7FC018CE0619170E015
:10108000660F771F616072609AE041E050E09A015C
:1010900026233723232B30912F01203029F0000005
:1010A00025B1232B25B904C000000000000000C0BA
:1010B000000000000000309525B1232325B9000071
:1010C00021E52A95F1F7440F551F9A9501F78A9566
:1010D000A9F620B7206120BFA4B930912F01309527
:1010E00025B1232325B90FBE81E008950E94AA00EF
:1010F0006FE670E08EE690E00E94BC0480E090E035
:10110000089597FB072E16F4009407D077FD09D0B9
:101110000E94AA0807FC05D03EF4909581959F4F48
:101120000895709561957F4F0895EE0FFF1F05900C
:10113000F491E02D0994A29FB001B39FC001A39F39
:10114000700D811D1124911DB29F700D811D112400
:10115000911D0895AA1BBB1B51E107C0AA1FBB1F0D
:10116000A617B70710F0A61BB70B881F991F5A9533
:10117000A9F780959095BC01CD0108955058BB27E3
:10118000AA270ED04DC13ED130F043D120F031F42A
:101190009F3F11F41EF433C10EF4E095E7FB29C123
:1011A000E92F4FD180F3BA176207730784079507B9
:1011B00018F071F49EF567C10EF4E0950B2EBA2F6E
:1011C000A02D0B01B90190010C01CA01A00111244D
:1011D000FF27591B99F0593F50F4503E68F11A16F9
:1011E000F040A22F232F342F4427585FF3CF46958A
:1011F00037952795A795F0405395C9F77EF41F16AC
:10120000BA0B620B730B840BBAF09150A1F0FF0F75
:10121000BB1F661F771F881FC2F70EC0BA0F621F61
:10122000731F841F48F4879577956795B795F79551
:101230009E3F08F0B3CF9395880F08F09927EE0FE3
:101240009795879508950CD0EBC0E3D040F0DAD0A5
:1012500030F021F45F3F19F0CCC0511115C1CFC05F
:10126000F0D098F39923C9F35523B1F3951B550B8F
:10127000BB27AA2762177307840738F09F5F5F4F69
:10128000220F331F441FAA1FA9F333D00E2E3AF0AA
:10129000E0E830D091505040E695001CCAF729D0C4
:1012A000FE2F27D0660F771F881FBB1F2617370713
:1012B0004807AB07B0E809F0BB0B802DBF01FF2743
:1012C00093585F4F2AF09E3F510568F092C0DCC0F2
:1012D0005F3FECF3983EDCF3869577956795B7957D
:1012E000F7959F5FC9F7880F911D9695879597F998
:1012F0000895E1E0660F771F881FBB1F6217730711
:101300008407BA0720F0621B730B840BBA0BEE1F25
:1013100088F7E095089504D06894B111B5C0089598
:1013200098D088F09F5790F0B92F9927B751A0F027
:10133000D1F0660F771F881F991F1AF0BA95C9F769
:1013400012C0B13081F09FD0B1E008959CC0672FEA
:10135000782F8827B85F39F0B93FCCF38695779519
:101360006795B395D9F73EF4909580957095619502
:101370007F4F8F4F9F4F0895E89409C097FB3EF42D
:1013800090958095709561957F4F8F4F9F4F9923D2
:10139000A9F0F92F96E9BB279395F6958795779550
:1013A0006795B795F111F8CFFAF4BB0F11F460FF10
:1013B0001BC06F5F7F4F8F4F9F4F16C0882311F068
:1013C00096E911C0772321F09EE8872F762F05C07C
:1013D000662371F096E8862F70E060E02AF09A9517
:1013E000660F771F881FDAF7880F9695879597F90C
:1013F000089597F99F6780E870E060E008959FEF97
:1014000080EC089500240A9416161706180609069B
:10141000089500240A94121613061406050608956A
:10142000092E0394000C11F4882352F0BB0F40F4F2
:10143000BF2B11F460FF04C06F5F7F4F8F4F9F4F32
:10144000089557FD9058440F551F59F05F3F71F0B4
:101450004795880F97FB991F61F09F3F79F087951B
:101460000895121613061406551FF2CF4695F1DFA4
:1014700008C0161617061806991FF1CF8695710534
:10148000610508940895E894BB2766277727CB0168
:1014900097F908950BD0C4CFB5DF28F0BADF18F064
:1014A000952309F0A6CFABCF1124EECFCADFA0F36E
:1014B000959FD1F3950F50E0551F629FF001729FE9
:1014C000BB27F00DB11D639FAA27F00DB11DAA1F08
:1014D000649F6627B00DA11D661F829F2227B00D55
:1014E000A11D621F739FB00DA11D621F839FA00DE0
:1014F000611D221F749F3327A00D611D231F849F30
:10150000600D211D822F762F6A2F11249F57504086
:101510008AF0E1F088234AF0EE0FFF1FBB1F661F21
:10152000771F881F91505040A9F79E3F510570F0DA
:1015300060CFAACF5F3FECF3983EDCF386957795BA
:101540006795B795F795E7959F5FC1F7FE2B880FD5
:10155000911D9695879597F908958F929F92AF92D6
:10156000BF92CF92DF92EF92FF92CF93DF93EC0185
:10157000688179818A819B81611571058105910559
:1015800021F464E279ED8BE597E02DE133EF41E062
:1015900050E00E94210B49015A019B01AC01A7EACE
:1015A000B1E40E94400B6B017C01ACEEB4EFA501ED
:1015B00094010E944E0BC60ED71EE81EF91EF7FEC0
:1015C00006C081E0C81AD108E10880E8F80AC8829C
:1015D000D982EA82FB82C6019F77DF91CF91FF908B
:1015E000EF90DF90CF90BF90AF909F908F90089535
:1015F0000E94AD0A089589E091E00E94AD0A089525
:10160000A0E0B0E08093090190930A01A0930B0140
:10161000B0930C010895F999FECF92BD81BDF89A5F
:10162000992780B50895262FF999FECF1FBA92BD4C
:1016300081BD20BD0FB6F894FA9AF99A0FBE0196B3
:101640000895052E97FB1EF400940E94380B57FD59
:1016500007D00E94530B07FC03D04EF40C94380BB8
:1016600050954095309521953F4F4F4F5F4F0895CE
:1016700090958095709561957F4F8F4F9F4F0895FE
:101680000E949B08A59F900DB49F900DA49F800D74
:10169000911D11240895B7FF0C94400B0E94400B3C
:1016A000821B930B0895A1E21A2EAA1BBB1BFD01FE
:1016B0000DC0AA1FBB1FEE1FFF1FA217B307E40731
:1016C000F50720F0A21BB30BE40BF50B661F771F89
:1016D000881F991F1A9469F7609570958095909569
:0E16E0009B01AC01BD01CF010895F894FFCF2E
:0E16EE002C01AAA900A600A500010000000022
:00000001FF
