:100000000C945A000C9483000C9483000C9483008D
:100010000C9483000C9483000C9446040C9483008D
:100020000C9483000C9483000C9483000C9464085B
:100030000C9483000C9483000C94BE060C948300F3
:100040000C9483000C9483000C9483000C94830024
:100050000C9483000C9483000C9483000C94860809
:100060000C9483000C9483006D07C407D80709081B
:100070001008EF0713087109620A620A7A097D09FC
:100080008009820984098609370A9809072C7AA50C
:10009000BA6CC590DA3B9365FC8BBC53F810FD3C01
:1000A0005692834DBD879D3AB63DCBC9BF5BBE73AB
:1000B000DA0FC93F11241FBECFEFD8E0DEBFCDBF9E
:1000C00014BE0FB6F894A895809160008861809363
:1000D0006000109260000FBE11E0A0E0B1E0E8E324
:1000E000FEE102C005900D92A231B107D9F721E0DF
:1000F000A2E1B1E001C01D92A539B207E1F70E946B
:10010000140B0C941A0F0C940000CF93DF93C3E2EE
:10011000D1E01986809190018883809113018983B1
:10012000809116018A83CE010E94750A9B878A8777
:10013000CE01DF91CF91089590911A01981701F1A6
:1001400080931A01813041F028F0823061F08330D1
:1001500081F0089560E011C00E946D0460919301E8
:10016000809192010BC00E946D0460E08091940127
:1001700005C00E946D046091800180E00C946804C9
:100180000895809119018E3118F410920601089596
:1001900080912101813019F0823039F008958091E9
:1001A0001401833230F483E005C08091140183325E
:1001B000D0F782E00C949C0080911401833220F0EF
:1001C00081E080930601089581E00C949C00609189
:1001D0000201A0919001B0919101509100014091D4
:1001E0000101E3E0F1E080E090E0861748F421911E
:1001F00030E02A173B0711F4582F492F0196F5CF0D
:100200005093000140930101089580910001909165
:100210000101009769F4809104018093340181E029
:10022000809322018091050180931F0182E022C00A
:100230008130910571F4809105018093340182E051
:10024000809322018091030180931F01109220016D
:1002500008959C012D5F3E4FF90132979081909354
:1002600034013196908190931F019EEF980F9093E7
:10027000220181508093200108950F931F93CF9303
:10028000DF93CDB7DEB70DB71EB7809102012DB752
:100290003EB7281B31090FB6F8943EBF0FBE2DBFE5
:1002A000EDB7FEB731969FEF980F23E031E05E2F58
:1002B000BF01462F451B481738F4D9014D919D01C8
:1002C000DB014D93BD01F5CFDF01A90FB11D9C915D
:1002D00090930301823040F090819093040182302A
:1002E00019F08181809305010E94E7000FB6F89410
:1002F0001EBF0FBE0DBFDF91CF911F910F910895CB
:100300008091900190919101009711F480E01CC0C0
:100310008130910511F481E017C08230910511F40C
:1003200084E012C08330910511F480E10DC0843067
:10033000910511F485E008C08530910511F481E143
:1003400003C0069719F484E10C943A07089580914C
:100350000201823059F481E00E943A0788EC90E073
:100360000E945D0480E00E943A07F5CF10922C01B4
:100370008091900180932301109224011092250115
:100380001092260110922701109228011092290143
:1003900010922A0183E291E00E94750A90932E0147
:1003A00080932D010E9480010E94E700809100014E
:1003B00090910101019659F485E10E943A0788EC79
:1003C00090E00E945D0480E00E943A07F5CF0E9411
:1003D000050181E080932101109233010895CF93AC
:1003E000DF93EC0181E080931801FB018081918112
:1003F000A281B38180932F0190933001A0933101AA
:10040000B0933201888180933501898180931201F4
:100410008FE291E00E94460580931901882389F1BB
:100420009091350120913401921303C080931701FC
:1004300009C020911F01921305C0809316018A8183
:10044000809336010E94800180913301882329F036
:10045000813039F48091170102C080911601809398
:1004600014018091120190911301981750F4809318
:100470001301109233010E943D01DF91CF910C9442
:100480000501DF91CF9108954F925F926F927F9215
:100490008F929F92AF92BF92CF92DF92EF92FF9294
:1004A000CF93DF9300D000D0CDB7DEB760911601B7
:1004B00070E080E090E00E94930C6B017C01609101
:1004C000170170E080E090E00E94930C4B015C010A
:1004D0006091360170E080E090E00E94930C6983A7
:1004E0007A838B839C839B01AC010E948C0D2B0132
:1004F0003C01A7019601C701B6010E948C0D9B012A
:10050000AC01C301B2010E947A0B2B013C01A50191
:100510009401C501B4010E948C0D9B01AC01C30183
:10052000B2010E94790B4B015C01A7019601C70142
:10053000B6010E947A0B29813A814B815C810E942D
:100540008C0D9B01AC01C501B4010E94EB0B0F9017
:100550000F900F900F90DF91CF91FF90EF90DF9071
:10056000CF90BF90AF909F908F907F906F905F9053
:100570004F900C94680BCF9380911901882309F454
:1005800099C080911701882309F494C080911601C5
:10059000882309F48FC080911801813029F41092CA
:1005A000180180E00E943A078091020190E00197D3
:1005B00020910001309101018217930709F076C064
:1005C00080913301811127C090911701809116010C
:1005D000891708F180912201282F30E0211531057B
:1005E00031F481E0809333019093140114C0409161
:1005F000340140931F018093200190931601F9016B
:10060000EE5FFE4F908190933401815080932201E0
:1006100084E680931701C0913301C13021F098F036
:10062000C230E9F047C085E10E943A070E944402C7
:100630002DEB37E346E855E30E94E60B87FF03C046
:1006400082E08093330180910601882329F0813074
:1006500089F5CF910C94C100CF910C94DC0080E01F
:100660000E943A0780E00E949C000E943D010E9487
:10067000050188EE93E00E945D048091130190E0F3
:1006800001966EEF70E00E942B0B809313010E9485
:10069000800180912101813031F0823059F481E074
:1006A0008093210107C0C093210104C080E0CF9155
:1006B0000C949C00CF910895089580E090E00895F7
:1006C0000895DF92EF92FF920F931F93CF93DF93E2
:1006D000F89414B817B81AB815B818B81BB8529AC5
:1006E0005A9A14BC85E085BD8FEF87BD82E0809368
:1006F0006E0010928000109281002FE83BE0309352
:1007000089002093880080936F005398239891EA82
:100710009093B0008093B1001092B4001092B30097
:100720008BE080BF83E080937F0086E080937C0035
:1007300083E880937A0080917A00806480937A00C5
:1007400080917A0086FDFCCF10927C0083EA809332
:100750007A0081E080937B0081E090E00E94B00EFF
:100760008F3F11F08093660010925E01C1E0C0934C
:100770003701C0937B011092550110928F0180E9DF
:1007800090E00E94B00E80935401809154018873D0
:1007900011F0C093540110927F0110927E018FEFEF
:1007A00090E090937D0180937C0110925A01109209
:1007B0005B0110925C0110925D0181E080931E014B
:1007C00082E49FE090938E0180938D0180EB90E016
:1007D0000E94B00EC82F81EB90E00E94B00E2C2F2B
:1007E00030E0382B309391012093900185E090E028
:1007F0000E94B00E8093940189E090E00E94B00EB8
:10080000809380018CE090E00E94B00E8093920172
:1008100084E190E00E94B00E809393010FE511E017
:1008200058E3E52E51E0F52EC0E2D0E0CE010E9463
:10083000B00ED82ECE0101960E94B00E2D2D30E0C4
:10084000322F2227282BF801219331938F01CE01DB
:10085000C0960E94B00ED82ECE01C1960E94B00E56
:100860002D2D30E0322F2227282BF70121933193B1
:100870007F012296CC33D105C9F67894DF91CF91D0
:100880001F910F91FF90EF90DF9008951F920F92AC
:100890000FB60F9211248F930FB6F894A8958091FC
:1008A0006000886180936000109260000FBE8F919D
:1008B0000F900FBE0F901F901895009741F0EFEC2E
:1008C000F7E03197F1F700C000000197F6CF0895E7
:1008D0008093B3006093B40008958FEF8093B300CA
:1008E0008093B4008FE090E00C945D0480915E01F1
:1008F00081111EC0F89487E080937C0083E8809388
:100900007A0080917A00806480937A0080917A00E6
:1009100086FDFCCF809178009091790010927C0048
:1009200023EA20937A0021E020937B0078940895B5
:100930008FEF9FEF089580915E0181111EC0F894A2
:1009400088EC80937C0087E880937A0080917A001D
:10095000806480937A0080917A0086FDFCCF80913C
:1009600078009091790010927C0023EA20937A001D
:1009700021E020937B00789408958FEF9FEF0895F6
:10098000CF93DF9320E030E080E0E3EAF1E0C6E0DF
:10099000D3E8A1E0B0E090E0F894C0937C00D0935D
:1009A0007A0040917A00406440937A0040917A0046
:1009B00046FDFCCF409178005091790041705091F4
:1009C0007A00506450937A0050917A0056FDFCCF23
:1009D000609178007091790010927C00E0937A0029
:1009E000F0937B0078949F5F6170461751F0442329
:1009F00059F0AD01022E01C0440F0A94EAF7842B8E
:100A000003C0903849F6F3CF2F5F3F4F28303105B0
:100A100009F0C1CFDF91CF9108958091070198E04F
:100A2000899F90011124282790911B0181E0890F53
:100A300080931B01822F8295869587702827969533
:100A40009695822F89278093070108958093070147
:100A5000089580915E01811116C0F89486E080931C
:100A60007C0083E880937A0080917A008064809390
:100A70007A0080917A0086FDFCCF80917800909179
:100A80007900789408958FEF9FEF08952F923F9209
:100A90004F925F926F927F928F929F92AF92BF928E
:100AA000CF92DF92EF92FF920F931F93CF93DF933A
:100AB0001C01FC01C281D381C438F3E0DF070CF0D4
:100AC0007EC080913801909139018C179D0708F400
:100AD0006FC0EAE3F1E011E0819191918C179D07DD
:100AE00020F01F5F1E30C1F71DE0812F90E0FC0158
:100AF000EE0FFF1FE85CFE4FE080F180880F991F2A
:100B0000FC01EA5CFE4F80819181B701681B790B83
:100B100080E090E00E94930C9B01AC010E947A0B54
:100B20004B015C01BE010D2E000C880B990B0E943D
:100B3000950C2B013C01B70180E090E00E94930CE2
:100B40006B017C01612F70E080E090E00E94930CCB
:100B500020E030E040E05FE30E948C0D20E030E0D8
:100B6000A9010E947A0BA50194010E948C0D9B01A2
:100B7000AC01C701B6010E94790B9B01AC01C30116
:100B8000B2010E94790B20E030E040E251E40E9483
:100B90008C0D0E945D0C7B01C501B4010E945D0CAF
:100BA000AB01BC01C701BA010E942B0B162F01C07B
:100BB00010E0CD3B82E0D8070CF4CAC001C01FEFA3
:100BC000F101C080D18080915F01909160018C150E
:100BD0009D0588F0E1E6F1E081E090E0382EE190BB
:100BE000F190EC14FD0408F458C001968E30910584
:100BF000A9F70AE501C000E01F3F09F44BC0BE01A0
:100C0000DD0F880B990B0E94950C6B017C01612F05
:100C100070E080E090E00E94930C4B015C01A70122
:100C2000960160E070E081E694E40E94790B9B01FC
:100C3000AC01C501B4010E948C0D4B015C01602F19
:100C400070E080E090E00E94930C2B013C0120E0DA
:100C500030E04FE254E4C701B6010E94790B9B01DA
:100C6000AC01C301B2010E948C0D9B01AC01C50116
:100C7000B4010E947A0B20E030E048E453E40E9483
:100C8000EB0B20E030E044E052E40E947A0B0E943B
:100C9000640C60C061E2600F5DC0880F991FFC01A9
:100CA000E35AFE4F80819181B701681B790B80E088
:100CB00090E00E94930C9B01AC010E947A0B4B01C7
:100CC0005C01B601DD0C880B990B0E94950C2B0181
:100CD0003C01B70180E090E00E94930C6B017C0125
:100CE000632D70E080E090E00E94930C20E030E003
:100CF00040E05FE30E948C0D20E030E0A9010E94FB
:100D00007A0BA50194010E948C0D9B01AC01C701D7
:100D1000B6010E94790B9B01AC01C301B2010E9494
:100D2000790B20E030E040E251E40E948C0D0E94FB
:100D30005D0C7B01C501B4010E945D0CAB01BC01DF
:100D4000C701BA010E942B0B062F6F3F09F054CF49
:100D500061E2610F862FDF91CF911F910F91FF907C
:100D6000EF90DF90CF90BF90AF909F908F907F904B
:100D70006F905F904F903F902F9008951F920F9229
:100D80000FB60F9211242F933F934F935F936F935E
:100D90007F938F939F93AF93BF93EF93FF93209194
:100DA0007E0130917F0180917C0190917D01820FC5
:100DB000931F90937F0180937E018FEF90E090933B
:100DC0007D0180937C018FEF87BD80915A019091C6
:100DD0005B01A0915C01B0915D010196A11DB11D67
:100DE00080935A0190935B01A0935C01B0935D01E5
:100DF00080915E0181112DC080918D0190918E01B5
:100E000020917E0130917F018217930710F5809128
:100E10001E018430F1F4E0910A01F0910B01099573
:100E20000097B9F00E94910A882351F0E0910801DF
:100E3000F0910901099510927F0110927E0109C07D
:100E40000E94A00E9C01332730937D0120937C01EA
:100E500087BDFF91EF91BF91AF919F918F917F914E
:100E60006F915F914F913F912F910F900FBE0F9017
:100E70001F90189580FF02C0559A01C0559881FFB8
:100E800002C0549A01C0549882FF02C03B9A01C02C
:100E90003B9883FF02C03A9A01C03A9884FF02C08F
:100EA0003D9A01C03D9885FF02C03C9A08953C9848
:100EB00008958C017B01D0E0CFEF84E0D82E98E13B
:100EC000C92E29E2B22EE0911E01F0E0E730F105D3
:100ED000D0F7EC5CFF4F0C943F0BF89480B7877F02
:100EE00080BF80917A008F7780937A0014B817B80A
:100EF0001AB815B818B81BB80FB6F894A895C092D0
:100F000060000FBEB09260008091600080648093AA
:100F1000600083B7817F846083BFF89483B781606A
:100F200083BF7894889583B78E7F83BF789410921F
:100F30005E01529A5A9A80917A00806880937A0072
:100F400087E592E00197F1F700C0000080B7886163
:100F500080BF8FE30E943A07EFE1FEE43197F1F79B
:100F600000C0000080915E01882309F450C083E036
:100F70000E943A07FFEF20E782E0F15020408040D6
:100F8000E1F700C0000043C08CE00E943A07EFEC9C
:100F9000F7E03197F1F700C0000080E00E943A07C7
:100FA000FFEF21EE84E0F15020408040E1F72CC0BB
:100FB0000E9429058B3AE2E09E0724F08CE00E9413
:100FC0003A0781CF8938F2E09F0714F080E3F7CF2A
:100FD0008736924014F08FE0F2CF83E0F0CF48994B
:100FE00016C081E00E943A078FEC97E00197F1F775
:100FF00000C0000080E00E943A079FEFE1EEF4E0BD
:101000009150E040F040E1F700C000005CCF80E08C
:10101000D6CFD11102C0F8010995D0921E01D1E0BE
:10102000F701099550CF80911C01811107C01092E2
:10103000B3001092B40010921D0145CF90911C0195
:1010400080911D01981709F43ECF80911C01809377
:101050001D0180911C01813089F4C093B30010926E
:10106000B4008FE295E70197F1F700C0000080918E
:1010700094018093B3001092B40025CF80911C019D
:101080001092B300C093B400823059F4EFE2F5E758
:101090003197F1F700C00000809180011092B300F9
:1010A00010C0C093B300C093B4008FE295E70197DE
:1010B000F1F700C00000809193019091920190930C
:1010C000B3008093B400FFCE1F920F920FB60F9221
:1010D00011248F939F93109281001092850010929B
:1010E000840081E08093370180937B0110925E0140
:1010F00010927C0093EA90937A0080937B009F91FA
:101100008F910F900FBE0F901F9018951F920F9206
:101110000FB60F9211240F931F932F933F934F936A
:101120005F936F937F938F939F93AF93BF93EF934F
:10113000FF93209184003091850041E040935E014F
:1011400080913701882321F110928500109284004C
:101150004093810010928F011092370180917B01A2
:10116000882309F4AFC180917A0086FDFCCF80917D
:10117000780090917900909359018093580181E013
:1011800080937C0093EA90937A0080937B009AC1CD
:10119000C9018758910984379940A0F010928100C5
:1011A00010928500109284004093370140937B0198
:1011B00010925E0110927C0083EA80937A00409343
:1011C0007B0080C126583109A4EFB0E00E94450B96
:1011D0008C0122273327083060F481E090E001C0C1
:1011E000880F0A95EAF790918F01892B80938F01E0
:1011F00069C14093370180917B01882341F180913F
:101200007A0086FDFCCF80917800909179009093D0
:1012100057018093560110927C0083EA80937A00F4
:1012200081E080937B0090918F01992359F0109277
:101230008100109285001092840080937B011092AF
:101240005E0140C110927B01109255013BC180911B
:101250005501E82FF0E0EF57FE4F90918F019083FA
:101260008F5F809355018C3009F02CC11092810062
:10127000109285001092840040937B0110925E01D1
:1012800000918B0110918C0181E891E00E94750A18
:101290000817190709F016C1E0918A01E7FD0AC095
:1012A000E0910C01F0910D0166E571E081E891E0BB
:1012B000099508C188E78E0F833030F05398239842
:1012C0001092B4001092B3008E2F90E0FC01E05811
:1012D000F109EB30F10508F0F5C0E55CFF4F0C9427
:1012E0003F0B80916E008D7F80936E0016BCE0E016
:1012F000F0E702C0E0E0F0E0099510921E01E2C0C4
:1013000081E0B2C085E0B0C082E0AEC080911E0135
:10131000833009F4D7C080911E01843009F4D2C013
:10132000539A239A1092B4001092B30083E09CC0A9
:1013300080918101823009F44BC080F48823A9F0A8
:10134000813009F082C08091820190918301909355
:1013500091018093900110921C0177C0833009F4B1
:1013600049C0843009F458C070C080911E01863095
:1013700009F06BC06091900180EB90E00E94B80E84
:101380006091910181EB90E00E94B80E6091940110
:1013900085E090E00E94B80E6091800189E090E0C5
:1013A0000E94B80E609192018CE090E00E94B80E0D
:1013B0006091930184E190E00E94B80E53982398C5
:1013C0001092B4001092B30081E080931E013DC0E2
:1013D00090911C0180918401913021F490919401AD
:1013E000891799F110921D0191E090931C0180934F
:1013F00094012BC090911C0180918501923021F4C1
:1014000090918001891709F110921D0192E090934B
:101410001C018093800119C020911C0180918701DB
:1014200090918601233041F420919301821304C0EE
:1014300020919201921749F010921D0123E0209310
:101440001C019093920180939301809181018823E4
:10145000C9F180911E018630A9F1539A239A109206
:10146000B4001092B30086E080931E012BC08091DF
:101470001E01863081F0539A239A1092B400109284
:10148000B30080E00E943A0710921C0110921D01E7
:1014900086E080931E0181E090E00090810102C00F
:1014A000880F991F0A94E2F72091900130919101E1
:1014B00082239323892B21F081E080931C0102C0B9
:1014C00010921C01FF91EF91BF91AF919F918F916D
:1014D0007F916F915F914F913F912F911F910F914C
:1014E0000F900FBE0F901F901895FC019C01265F76
:1014F0003F4F8FEF9FEF41918427082E8295807F89
:101500008025092E982F82958F700826869598271A
:101510008927880F880F880F8025E217F30759F76E
:1015200008950FB6F894A4B1209154012A2B24B940
:1015300021E030915401203029F0000025B1232B07
:1015400025B904C000000000000000C00000000039
:101550000000309525B1232325B92EEA2A95F1F70D
:101560002BEE30B735FF0AC0A4B930915401309545
:1015700025B1232325B90FBE80E0089500002A95E8
:1015800081F721E030915401203029F0000025B18D
:10159000232B25B904C000000000000000C000009B
:1015A00000000000309525B1232325B9000024E573
:1015B0002A95F1F7FC018CE0619170E0660F771FCE
:1015C000616072609AE041E050E09A01262337237F
:1015D000232B30915401203029F0000025B1232B1A
:1015E00025B904C000000000000000C00000000099
:1015F0000000309525B1232325B9000021E52A9567
:10160000F1F7440F551F9A9501F78A95A9F620B76F
:10161000206120BFA4B930915401309525B1232316
:1016200025B90FBE81E008950E9461038FEE91E01D
:1016300090930D0180930C0185E890E090930B014D
:1016400080930A016BEB72E087EA91E00E945907F0
:1016500080E090E0089597FB072E16F4009407D0E1
:1016600077FD09D00E94540B07FC05D03EF49095FD
:1016700081959F4F0895709561957F4F0895EE0F66
:10168000FF1F0590F491E02D0994A29FB001B39F34
:10169000C001A39F700D811D1124911DB29F700D7B
:1016A000811D1124911D0895AA1BBB1B51E107C088
:1016B000AA1FBB1FA617B70710F0A61BB70B881FE2
:1016C000991F5A95A9F780959095BC01CD01089571
:1016D0009F939F770E94D00C0F90002042F4905867
:1016E000A2EA2AED3FE049E450E40E94910B0C94F9
:1016F000520D5058BB27AA270E94910B0C94520DF3
:101700000E94440D38F00E944B0D20F039F49F3FA9
:1017100019F426F40C941A0D0EF4E095E7FB0C94E2
:10172000140DE92F0E94630D58F3BA17620773076F
:101730008407950720F079F4A6F50C94850D0EF436
:10174000E0950B2EBA2FA02D0B01B90190010C01D1
:10175000CA01A0011124FF27591B99F0593F50F4E9
:10176000503E68F11A16F040A22F232F342F442741
:10177000585FF3CF469537952795A795F040539539
:10178000C9F77EF41F16BA0B620B730B840BBAF009
:101790009150A1F0FF0FBB1F661F771F881FC2F774
:1017A0000EC0BA0F621F731F841F48F48795779588
:1017B0006795B795F7959E3F08F0B0CF9395880F42
:1017C00008F09927EE0F9795879508950E94F00CE1
:1017D00008F481E008950E94FF0B0C94520D0E94C2
:1017E0004B0D58F00E94440D40F029F45F3F29F062
:1017F0000C94140D51110C94860D0C941A0D0E942A
:10180000630D68F39923B1F3552391F3951B550BA1
:10181000BB27AA2762177307840738F09F5F5F4FC3
:10182000220F331F441FAA1FA9F335D00E2E3AF002
:10183000E0E832D091505040E695001CCAF72BD01A
:10184000FE2F29D0660F771F881FBB1F261737076B
:101850004807AB07B0E809F0BB0B802DBF01FF279D
:1018600093585F4F3AF09E3F510578F00C94140D59
:101870000C94860D5F3FE4F3983ED4F386957795FC
:101880006795B795F7959F5FC9F7880F911D969556
:10189000879597F90895E1E0660F771F881FBB1FB2
:1018A000621773078407BA0720F0621B730B840B5F
:1018B000BA0BEE1F88F7E09508950E94640C6894B7
:1018C000B1110C94860D08950E946B0D88F09F57FE
:1018D00098F0B92F9927B751B0F0E1F0660F771F54
:1018E000881F991F1AF0BA95C9F714C0B13091F04A
:1018F0000E94850DB1E008950C94850D672F782F17
:101900008827B85F39F0B93FCCF38695779567950E
:10191000B395D9F73EF490958095709561957F4F7A
:101920008F4F9F4F0895E89409C097FB3EF4909520
:101930008095709561957F4F8F4F9F4F9923A9F0A8
:10194000F92F96E9BB279395F69587957795679537
:10195000B795F111F8CFFAF4BB0F11F460FF1BC07B
:101960006F5F7F4F8F4F9F4F16C0882311F096E90E
:1019700011C0772321F09EE8872F762F05C06623BC
:1019800071F096E8862F70E060E02AF09A95660F75
:10199000771F881FDAF7880F9695879597F908952E
:1019A000DF93CF931F930F938B01EC01ECE8F0E0F2
:1019B0000E941D0D0E94520D9801AE018B01EC0199
:1019C00060E070E080E89FE30E94790B0E94FF0DC9
:1019D0009801AE010F911F91CF91DF910C949F0D53
:1019E000990F0008550FAA0BE0E8FEEF1616170630
:1019F000E807F907C0F012161306E407F50798F098
:101A0000621B730B840B950B39F40A2661F0232BB0
:101A1000242B252B21F408950A2609F4A140A6952C
:101A20008FEF811D811D089597F99F6780E870E011
:101A300060E008959FEF80EC0895DF93CF931F93AC
:101A40000F93FF92EF92DF927B018C01689406C0A6
:101A5000DA2EEF010E949F0DFE01E894A5912591D9
:101A6000359145915591A6F3EF010E94910BFE012E
:101A70009701A801DA9469F7DF90EF90FF900F913A
:101A80001F91CF91DF91089500240A94161617062E
:101A900018060906089500240A941216130614065F
:101AA00005060895092E0394000C11F4882352F0C2
:101AB000BB0F40F4BF2B11F460FF04C06F5F7F4F7A
:101AC0008F4F9F4F089557FD9058440F551F59F061
:101AD0005F3F71F04795880F97FB991F61F09F3F1B
:101AE00079F087950895121613061406551FF2CF44
:101AF0004695F1DF08C0161617061806991FF1CF94
:101B000086957105610508940895E894BB276627BA
:101B10007727CB0197F908950E949F0D0C94520DE1
:101B20000E94440D38F00E944B0D20F0952311F0D7
:101B30000C94140D0C941A0D11240C94860D0E9413
:101B4000630D70F3959FC1F3950F50E0551F629F91
:101B5000F001729FBB27F00DB11D639FAA27F00D06
:101B6000B11DAA1F649F6627B00DA11D661F829F2D
:101B70002227B00DA11D621F739FB00DA11D621F12
:101B8000839FA00D611D221F749F3327A00D611D2F
:101B9000231F849F600D211D822F762F6A2F112411
:101BA0009F5750409AF0F1F088234AF0EE0FFF1F44
:101BB000BB1F661F771F881F91505040A9F79E3F9B
:101BC000510580F00C94140D0C94860D5F3FE4F3E6
:101BD000983ED4F3869577956795B795F795E795F1
:101BE0009F5FC1F7FE2B880F911D9695879597F9FA
:101BF000089519F416F40C941A0D0C943F0E0E94DB
:101C00006B0DB8F39923C9F3B6F39F57550B87FFB4
:101C10000E944D0E0024A0E640EA9001805856959F
:101C2000979528F4805C660F771F881F20F0261791
:101C30003707480730F4621B730B840B20293129C6
:101C40004A2BA69517940794202531254A2758F743
:101C5000660F771F881F20F026173707480730F4D4
:101C6000620B730B840B200D311D411DA09581F774
:101C7000B901842F9158880F9695879508959F3FB5
:101C800031F0915020F4879577956795B795880F37
:101C9000911D9695879597F9089591505040660F3C
:101CA000771F881FD2F708958F929F92AF92BF92AD
:101CB000CF92DF92EF92FF92CF93DF93EC01688196
:101CC00079818A819B81611571058105910521F4D6
:101CD00064E279ED8BE597E02DE133EF41E050E0F0
:101CE0000E94C60E49015A019B01AC01A7EAB1E46A
:101CF0000E94E50E6B017C01ACEEB4EFA5019401EE
:101D00000E94F30EDC01CB018C0D9D1DAE1DBF1D8D
:101D1000B7FF03C00197A109B04888839983AA83BC
:101D2000BB839F77DF91CF91FF90EF90DF90CF90B3
:101D3000BF90AF909F908F9008950E94540E089589
:101D40008EE091E00E94540E0895A0E0B0E08093F0
:101D50000E0190930F01A0931001B093110108950B
:101D6000F999FECF92BD81BDF89A992780B5089563
:101D7000262FF999FECF1FBA92BD81BD20BD0FB6A7
:101D8000F894FA9AF99A0FBE01960895052E97FBDA
:101D90001EF400940E94DD0E57FD07D00E94F80E3D
:101DA00007FC03D04EF40C94DD0E50954095309511
:101DB00021953F4F4F4F5F4F0895909580957095B7
:101DC00061957F4F8F4F9F4F08950E94450BA59FB0
:101DD000900DB49F900DA49F800D911D1124089526
:101DE000B7FF0C94E50E0E94E50E821B930B08953D
:101DF000A1E21A2EAA1BBB1BFD010DC0AA1FBB1F0F
:101E0000EE1FFF1FA217B307E407F50720F0A21B80
:101E1000B30BE40BF50B661F771F881F991F1A94ED
:101E200069F760957095809590959B01AC01BD0117
:081E3000CF010895F894FFCFE3
:101E3800FFFF0302050401AA60035D035C030100C0
:021E4800000098
:00000001FF
