:100000000C9434000C945D000C945D000C945D0025
:100010000C945D000C945D000C946E030C945D00D8
:100020000C945D000C945D000C945D000C948A07A8
:100030000C945D000C945D000C94E0050C945D0044
:100040000C945D000C945D000C945D000C945D00BC
:100050000C945D000C945D000C945D000C94AC0756
:100060000C945D000C945D0011241FBECFEFD8E00E
:10007000DEBFCDBF14BE0FB6F894A8958091600086
:10008000886180936000109260000FBE11E0A0E0D4
:10009000B1E0E2E4FBE102C005900D92A633B107A6
:1000A000D9F721E0A6E3B1E001C01D92AA3BB20757
:1000B000E1F70E94410A0C949F0D0C94000081E02E
:1000C00090E090934101809340010895CF93DF9396
:1000D000CAE4D1E019868091B5018883CE010E94DF
:1000E000A2099B878A87CE01DF91CF9108959091D5
:1000F0004501981731F180934501813031F088F046
:10010000823099F08330B9F008950E949503609190
:10011000B8018091B7010E94900388E592E00E94A7
:10012000850360E080E00C9490030E94950360E0FA
:100130008091B901F0CF0E9495036091A50180E004
:10014000EACF08958091B5019091B60190935B013B
:1001500080935A01892B31F480E00E94770082E07D
:1001600080934401109253018091B50180934A011C
:1001700010924B0110924C0110924D0110924E01C1
:1001800010924F01109250011092510110925201A1
:100190008AE491E00E94A209909355018093540152
:1001A0000895809143018D3320F082E080930A010D
:1001B0000895883218F410920A01089581E0F6CF6C
:1001C000CF93FC01C081CB010E946B04EC2FF0E0C7
:1001D000E45CFE4F8083C11106C080913C01809396
:1001E00043010E94D10081E080934201CF910895A4
:1001F00080915A0190915B01892B19F485E10C944F
:100200005C0680914401813031F018F0823079F041
:10021000089581E1F4CF80910A01811102C081E04B
:10022000EECF823011F480E1EACF85E0E8CF84E0C0
:10023000E6CF4F925F926F927F92AF92BF92CF9232
:10024000DF92EF92FF920F931F93CF93DF93C091B2
:100250005A01D0915B0160913C0170E08E0193E006
:10026000000F111F9A95E1F7F801EA5EFE4F8081B9
:100270009181681B790B072E000C880B990B0E944B
:10028000B70B20E030E0A9010E949C0A2B013C0141
:1002900022E0A22E21E0B22ECC24C394D12CEE2455
:1002A000E394F12CCC16DD06ACF1B701FF0C880B02
:1002B000990B0E94B70B9B01AC01C301B2010E94D4
:1002C0000D0B6B017C019F7720E030E040EA50E4A9
:1002D0000E94080B87FD49C020E030E0A901C7015A
:1002E000B6010E94670C18160CF441C00E94E80386
:1002F00080FD3FC083E0DF91CF911F910F91FF9070
:10030000EF90DF90CF90BF90AF907F906F905F9015
:100310004F900895F501819191915F01892B09F129
:10032000F601E45CFE4F608170E0F601EE0FFF1F06
:10033000E00FF11FEA5EFE4F80819181681B790B0F
:10034000072E000C880B990B0E94B70B9B01AC0188
:10035000C301B2010E949C0A2B013C01FFEFEF1A7E
:10036000FF0A8FEFC81AD80A9DCF80E0C4CF81E082
:10037000C2CF82E0C0CF40915A0150915B01809181
:100380003C0190E0BA0123E0660F771F2A95E1F760
:10039000FB01EA5EFE4F20813181821B930B97FFA8
:1003A00003C0919581959109A2E0B1E021E030E090
:1003B0000B970CF190E080E008958D919D91892B31
:1003C000C1F0F901E45CFE4F808190E0F901EE0F8D
:1003D000FF1FE60FF71FEA5EFE4F0190F081E02D50
:1003E0008E1B9F0B97FF03C09195819591090B97E9
:1003F0000CF72F5F3F4F24173507FCF281E090E0A8
:100400000895CF93DF9380914201811110924201B0
:1004100080913A0190913B01892B71F4C0915A016E
:10042000D0915B01209741F0809144018130B9F077
:1004300058F0823009F469C00E94F80082E390E02D
:10044000DF91CF910C94850380910801909109016F
:10045000C817D90789F781E080934401EDCF0E9446
:10046000BB01892B09F444C04091360150913701FA
:10047000609138017091390180917F0190918001E4
:10048000A0918101B091820141155105610571056D
:1004900049F48093360190933701A0933801B093CB
:1004A0003901CACF841B950BA60BB70B893E93402D
:1004B000A105B10508F2CC0FDD1FC050DF4F21E0D0
:1004C00030E03983288382E08093440180910801E1
:1004D000909109018330910534F4019690930901BC
:1004E00080930801A9CF30933B0120933A01A4CF18
:1004F0001092360110923701109238011092390192
:100500000E9419010E94770097CF0E94BB01892B9E
:10051000B9F380E0F7CF089590E080E00895089562
:10052000CF92DF92EF92FF921F93CF93DF93F894D5
:1005300014B817B81AB815B818B81BB8529A5A9AFE
:1005400014BC85E085BD8FEF87BD82E080936E008F
:1005500010928000109281002FE83BE030938900D8
:100560002093880080936F005398239891EA90938A
:10057000B0008093B1001092B4001092B3008BE0F1
:1005800080BF83E080937F0086E080937C0083E8D7
:1005900080937A0080917A00806480937A008091C1
:1005A0007A0086FDFCCF10927C0083EA80937A006B
:1005B00081E080937B0081E090E00E94350D8F3FC9
:1005C00011F08093660010928301C1E0C0935C013A
:1005D000C093A00110927A011092B40180E990E0DA
:1005E0000E94350D8093790180917901887311F013
:1005F000C09379011092A4011092A3018FEF90E0B3
:100600009093A2018093A10110927F01109280012A
:10061000109281011092820181E08093490182E46D
:100620009FE09093B3018093B20180EB90E00E9431
:10063000350DC82F81EB90E00E94350D982F8C2F3F
:100640009093B6018093B50185E090E00E94350D4E
:100650008093B90189E090E00E94350D8093A50157
:100660008CE090E00E94350D8093B70184E190E02A
:100670000E94350D8093B80184E8C82E81E0D82E01
:100680009DE5E92E91E0F92EC0E2D0E0CE010E9476
:10069000350D182FCE0101960E94350D912FF601D0
:1006A000819391936F01CE01C0960E94350D182F52
:1006B000CE01C1960E94350D912FF7018193919340
:1006C0007F012296CC33D10509F77894DF91CF9141
:1006D0001F91FF90EF90DF90CF9008951F920F929F
:1006E0000FB60F9211248F930FB6F894A8958091AE
:1006F0006000886180936000109260000FBE8F914F
:100700000F900FBE0F901F901895009709F4089551
:10071000EFECF7E03197F1F700C000000197F5CF5B
:100720008093B3006093B40008958FEF8093B3007B
:100730008093B4008FE090E00C9485038091830156
:1007400081111EC0F89487E080937C0083E8809339
:100750007A0080917A00806480937A0080917A0098
:1007600086FDFCCF809178009091790010927C00FA
:1007700023EA20937A0021E020937B007894089567
:100780008FEF9FEF08958091830181111EC0F8942F
:1007900088EC80937C0087E880937A0080917A00CF
:1007A000806480937A0080917A0086FDFCCF8091EE
:1007B00078009091790010927C0023EA20937A00CF
:1007C00021E020937B00789408958FEF9FEF0895A8
:1007D000CF93DF9330E020E080E0E6E0F3E8C3EA87
:1007E000D1E0A1E0B0E090E0F894E0937C00F093D9
:1007F0007A0040917A00406440937A0040917A00F8
:1008000046FDFCCF409178005091790041705091A5
:100810007A00506450937A0050917A0056FDFCCFD4
:10082000609178007091790010927C00C0937A00FA
:10083000D0937B0078949F5F6170461302C090381C
:1008400099F6442339F0AD01022E01C0440F0A94F9
:10085000EAF7842B2F5F3F4F2830310521F6DF91D7
:10086000CF91089580910B0198E0899F9001112408
:10087000982F92272091460181E0820F80934601B4
:10088000892F8295869587708927269526958227B8
:1008900080930B01089580930B010895809183014B
:1008A000811116C0F89486E080937C0083E88093E1
:1008B0007A0080917A00806480937A0080917A0037
:1008C00086FDFCCF8091780090917900789408950E
:1008D0008FEF9FEF08952F923F924F925F926F920A
:1008E0007F928F929F92AF92BF92CF92DF92EF92C0
:1008F000FF920F931F93CF93DF931C01FC01C281E2
:10090000D381C438F3E0DF070CF0F9C080915D01BA
:1009100090915E0110E08C179D0708F46DC0EFE523
:10092000F1E011E0819191918C179D0720F01F5FFC
:100930001E30C1F71DE0812F90E0FC01EE0FFF1F7C
:10094000E35AFE4FE080F180880F991FFC01E55AC1
:10095000FE4F80819181B701681B790B90E080E0A8
:100960000E94B50B9B01AC010E949C0A4B015C01EB
:10097000BE010D2E000C880B990B0E94B70B2B01AA
:100980003C01B70190E080E00E94B50B6B017C0157
:10099000612F70E090E080E00E94B50B20E030E035
:1009A00040E05FE30E946C0C20E030E0A9010E946F
:1009B0009C0AA50194010E946C0C9B01AC01C7012B
:1009C000B6010E949B0A9B01AC01C301B2010E94C7
:1009D0009B0A20E030E040E251E40E946C0C0E944F
:1009E0007F0B7B01C501B4010E947F0BAB01C701E6
:1009F000BA010E945E0A162FCD3B82E0D8070CF4A4
:100A0000DCC0F101C080D18080918401909185018A
:100A10008C159D0508F475C0E6E8F1E081E090E0F2
:100A2000382EE190F190EC14FD0408F46CC00196AE
:100A30008E309105A9F70AE561E2600F1F3F09F4C6
:100A40004AC0BE01DD0F880B990B0E94B70B6B01EA
:100A50007C01612F70E090E080E00E94B50B4B01BB
:100A60005C01A701960160E070E081E694E40E94D9
:100A70009B0A9B01AC01C501B4010E946C0C4B01A7
:100A80005C01602F70E090E080E00E94B50B2B01CC
:100A90003C0120E030E04FE254E4C701B6010E947F
:100AA0009B0A9B01AC01C301B2010E946C0C9B012B
:100AB000AC01C501B4010E949C0A20E030E048E48A
:100AC00053E40E940D0B20E030E044E052E40E9429
:100AD0009C0A0E94860B862FDF91CF911F910F9168
:100AE000FF90EF90DF90CF90BF90AF909F908F904E
:100AF0007F906F905F904F903F902F9008951FEFE1
:100B000080CF00E099CF880F991FFC01EE57FE4F70
:100B100080819181B701681B790B90E080E00E9491
:100B2000B50B9B01AC010E949C0A4B015C01B60114
:100B3000DD0C880B990B0E94B70B2B013C01B70110
:100B400090E080E00E94B50B6B017C01632D70E0AA
:100B500090E080E00E94B50B20E030E040E05FE3F1
:100B60000E946C0C20E030E0A9010E949C0AA501C3
:100B700094010E946C0C9B01AC01C701B6010E945C
:100B80009B0A9B01AC01C301B2010E949B0A20E0B9
:100B900030E040E251E40E946C0C0E947F0B7B012C
:100BA000C501B4010E947F0BAB01C701BA010E94CD
:100BB0005E0A062F6F3F09F03FCF61E2610F8BCFD6
:100BC0001F920F920FB60F9211242F933F934F93C2
:100BD0005F936F937F938F939F93AF93BF93EF93A5
:100BE000FF938091A3019091A4012091A1013091E4
:100BF000A201820F931F9093A4018093A3018FEF12
:100C000090E09093A2018093A1018FEF87BD809126
:100C10007F0190918001A0918101B09182010196A4
:100C2000A11DB11D80937F0190938001A09381014C
:100C3000B093820180918301811123C08091B20120
:100C40009091B3012091A3013091A40182179307E1
:100C5000C0F4809149018430A1F4E0910E01F0913B
:100C60000F010995009769F00E94BE098823D1F011
:100C7000E0910C01F0910D0109951092A4011092E0
:100C8000A301FF91EF91BF91AF919F918F917F91C0
:100C90006F915F914F913F912F910F900FBE0F90E9
:100CA0001F9018950E94250D9C0133273093A201B7
:100CB0002093A10187BDE5CF80FF11C0559A81FF28
:100CC00010C0549A82FF0FC03B9A83FF0EC03A9A1D
:100CD00084FF0DC03D9A85FF0CC03C9A089555983D
:100CE000EECF5498EFCF3B98F0CF3A98F1CF3D98A4
:100CF000F2CF3C9808958C017B01D0E0CFEF84E0E7
:100D0000D82E98E1C92E29E2B22EE0914901E730B0
:100D1000E0F7F0E0E257F94F0C94720A9506EC0602
:100D200002072F07360719073907F89480B7877F1E
:100D300080BF80917A008F7780937A0014B817B8BB
:100D40001AB815B818B81BB80FB6F894A895C09281
:100D500060000FBEB092600080916000806480935C
:100D6000600083B7817F846083BFF89483B781601C
:100D700083BF7894889583B78E7F83BF78941092D1
:100D80008301529A5A9A80917A00806880937A00FF
:100D900087E592E00197F1F700C0000080B7886115
:100DA00080BF8FE30E945C06EFE1FEE43197F1F72C
:100DB00000C0000080918301882361F083E00E94DD
:100DC0005C06FFEF20E782E0F15020408040E1F731
:100DD00000C0000080E01DC08CE00E945C06EFECCB
:100DE000F7E03197F1F700C0000080E00E945C0658
:100DF000FFEF21EE84E0F15020408040E1F700C099
:100E0000000083CF0E944E048B3AE2E09E0724F05C
:100E10008CE00E945C0679CF8938F2E09F0714F0DD
:100E200080E3F7CF8736924014F08FE0F2CF83E073
:100E3000F0CF4899CFCF81E00E945C068FEC97E01D
:100E40000197F1F700C0000080E00E945C069FEF70
:100E5000E1EEF4E09150E040F040E1F7D0CFD11165
:100E600002C0F8010995D0924901D1E0F701099536
:100E70004CCF80914701811107C01092B3001092AE
:100E8000B4001092480141CF9091470180914801F0
:100E9000981709F43ACF80914701809348018091D7
:100EA0004701813089F4C093B3001092B4008FE2FF
:100EB00095E70197F1F700C000008091B901809398
:100EC000B3001092B40021CF809147011092B3007B
:100ED000C093B400823069F4EFE2F5E73197F1F79F
:100EE00000C000008091A5011092B3008093B4006F
:100EF0000CCFC093B300C093B4008FE295E7019785
:100F0000F1F700C000008091B8019091B701909373
:100F1000B300ECCF1F920F920FB60F9211248F9354
:100F20009F9310928100109285001092840081E0BE
:100F300080935C018093A0011092830110927C0049
:100F400093EA90937A0080937B009F918F910F900A
:100F50000FBE0F901F9018951F920F920FB60F9211
:100F600011242F933F934F935F936F937F938F93AE
:100F70009F93AF93BF93CF93DF93EF93FF93209112
:100F800084003091850041E04093830180915C01B1
:100F90008823A9F11092850010928400409381006B
:100FA0001092B40110925C018091A0018823A1F0FD
:100FB00080917A0086FDFCCF809178009091790035
:100FC00090937E0180937D0181E080937C0093EA81
:100FD00090937A0080937B00FF91EF91DF91CF9106
:100FE000BF91AF919F918F917F916F915F914F9141
:100FF0003F912F910F900FBE0F901F901895C90130
:101000008758910984379940A0F01092810010927E
:1010100085001092840040935C014093A0011092DF
:10102000830110927C0083EA80937A0040937B00D6
:10103000D3CF26583109A4EFB0E00E94780AAA273E
:10104000BB27883060F421E030E001C0220F8A9590
:10105000EAF78091B401822B8093B401BDCF409315
:101060005C018091A001882341F180917A0086FD86
:10107000FCCF809178009091790090937C018093CF
:101080007B0110927C0083EA80937A0081E0809358
:101090007B009091B401992359F010928100109235
:1010A0008500109284008093A0011092830194CF58
:1010B0001092A00110927A018FCF80917A01E82FCF
:1010C000F0E0EA55FE4F9091B40190838F5F8093DA
:1010D0007A018C3009F080CF109281001092850047
:1010E000109284004093A00110928301C091B0013E
:1010F000D091B10186EA91E00E94A209C817D907F0
:1011000009F06ACFE091AF01E7FD0AC0E09110015C
:10111000F09111016BE771E086EA91E009955CCFEF
:1011200088E78E0F833030F0539823981092B400E4
:101130001092B300E058EB3008F04ECFF0E0ED55E0
:10114000F74F0C94720AAE08EC07EC07B708BA0820
:10115000BD08C108C308C5087609D70880916E008C
:101160008D7F80936E0016BCE0E0F0E70995F0E01B
:10117000E0E0FCCF109249012FCF81E0809349013C
:101180002BCF85E0FBCF82E0F9CF809149018330FE
:1011900009F422CF80914901843009F41DCF539A7C
:1011A000239A1092B4001092B30083E0E7CF8091AD
:1011B000A601823009F474C0B8F48823A1F181300B
:1011C00009F463C08091A601882309F405CF8091BA
:1011D0004901863009F400CF539A239A1092B40043
:1011E0001092B30086E0CACF833009F46CC084301B
:1011F00049F7209147018091AC019091AB012330D8
:1012000041F42091B801281304C02091B701291797
:10121000C9F21092480123E0209347019093B7014F
:101220008093B801CFCF80914901863059F6609103
:10123000B50180EB90E00E943D0D6091B60181EB1D
:1012400090E00E943D0D6091B90185E090E00E9420
:101250003D0D6091A50189E090E00E943D0D6091F7
:10126000B7018CE090E00E943D0D6091B80184E1EF
:1012700090E00E943D0D539823981092B400109274
:10128000B30081E0809349019DCF8091A7019091A7
:10129000A8019093B6018093B5011092470192CFB7
:1012A000909147018091A901913029F49091B90161
:1012B000981709F487CF1092480191E09093470165
:1012C0008093B9017FCF909147018091AA0192301C
:1012D00029F49091A501981709F474CF1092480150
:1012E00092E0909347018093A5016CCF80914901D2
:1012F000863081F0539A239A1092B4001092B30072
:1013000080E00E945C06109247011092480186E03E
:10131000809349012091A60181E090E002C0880FEE
:10132000991F2A95E2F72091B5013091B6018223E9
:101330009323892B21F081E0809347014DCE1092B9
:1013400047014ACEFC019C01265F3F4F8FEF9FEF84
:1013500041918427082E8295807F8025092E982F21
:1013600082958F700826869598278927880F880F81
:10137000880F8025E217F30759F708950FB6F89400
:10138000A4B1209179012A2B24B921E0309179016F
:10139000203029F0000025B1232B25B904C000001E
:1013A0000000000000C0000000000000309525B1E2
:1013B000232325B92EEA2A95F1F72BEE30B735FF16
:1013C0000AC0A4B930917901309525B1232325B9FC
:1013D0000FBE80E0089500002A9581F721E030914A
:1013E0007901203029F0000025B1232B25B904C054
:1013F00000000000000000C0000000000000309568
:1014000025B1232325B9000024E52A95F1F7FC0135
:101410008CE0619170E0660F771F616072609AE006
:1014200041E050E09A0126233723232B30917901A4
:10143000203029F0000025B1232B25B904C000007D
:101440000000000000C0000000000000309525B141
:10145000232325B9000021E52A95F1F7440F551FF4
:101460009A9501F78A95A9F620B7206120BFA4B903
:1014700030917901309525B1232325B90FBE81E044
:1014800008950E94900286E690E090930F01809369
:101490000E018FE590E090930D0180930C0180EE9A
:1014A00090E0909311018093100161E072E082EA74
:1014B00090E00E947B0690E080E0089597FB072E65
:1014C00016F4009407D077FD09D00E94870A07FC24
:1014D00005D03EF4909581959F4F08957095619544
:1014E0007F4F0895EE0FFF1F0590F491E02D0994B2
:1014F000A29FB001B39FC001A39F700D811D112455
:10150000911DB29F700D811D1124911D0895AA1B7C
:10151000BB1B51E107C0AA1FBB1FA617B70710F0DE
:10152000A61BB70B881F991F5A95A9F78095909510
:10153000BC01CD0108955058BB27AA270E94B30AC9
:101540000C942D0C0E941F0C38F00E94260C20F0E9
:1015500039F49F3F19F426F40C941C0C0EF4E0951A
:10156000E7FB0C94160CE92F0E943E0C58F3BA17B7
:10157000620773078407950720F079F4A6F50C94A9
:10158000600C0EF4E0950B2EBA2FA02D0B01B901C3
:1015900090010C01CA01A0011124FF27591B99F0E9
:1015A000593F50F4503E68F11A16F040A22F232FF5
:1015B000342F4427585FF3CF469537952795A79545
:1015C000F0405395C9F77EF41F16BA0B620B730BEC
:1015D000840BBAF09150A1F0FF0FBB1F661F771F5D
:1015E000881FC2F70EC0BA0F621F731F841F48F412
:1015F000879577956795B795F7959E3F08F0B0CF9B
:101600009395880F08F09927EE0F97958795089581
:101610000E94F20B08F481E008950E94210B0C94C3
:101620002D0C0E94260C58F00E941F0C40F029F44B
:101630005F3F29F00C94160C51110C94610C0C9422
:101640001C0C0E943E0C68F39923B1F3552391F3CF
:10165000951B550BBB27AA2762177307840738F021
:101660009F5F5F4F220F331F441FAA1FA9F335D07E
:101670000E2E3AF0E0E832D091505040E695001C32
:10168000CAF72BD0FE2F29D0660F771F881FBB1FEC
:10169000261737074807AB07B0E809F0BB0B802DCA
:1016A000BF01FF2793585F4F3AF09E3F510578F0F6
:1016B0000C94160C0C94610C5F3FE4F3983ED4F349
:1016C000869577956795B795F7959F5FC9F7880FCA
:1016D000911D9695879597F90895E1E0660F771F1C
:1016E000881FBB1F621773078407BA0720F0621BAD
:1016F000730B840BBA0BEE1F88F7E09508950E94D8
:10170000860B6894B1110C94610C08950E94460CEC
:1017100088F09F5798F0B92F9927B751B0F0E1F0B2
:10172000660F771F881F991F1AF0BA95C9F714C062
:10173000B13091F00E94600CB1E008950C94600CFF
:10174000672F782F8827B85F39F0B93FCCF386959B
:1017500077956795B395D9F73EF4909580957095F8
:1017600061957F4F8F4F9F4F0895E89409C097FB75
:101770003EF490958095709561957F4F8F4F9F4F68
:101780009923A9F0F92F96E9BB279395F6958795AC
:1017900077956795B795F111F8CFFAF4BB0F11F46F
:1017A00060FF1BC06F5F7F4F8F4F9F4F16C0882316
:1017B00011F096E911C0772321F09EE8872F762F4C
:1017C00005C0662371F096E8862F70E060E02AF08D
:1017D0009A95660F771F881FDAF7880F9695879579
:1017E00097F90895990F0008550FAA0BE0E8FEEF4E
:1017F00016161706E807F907C0F012161306E407D5
:10180000F50798F0621B730B840B950B39F40A26CD
:1018100061F0232B242B252B21F408950A2609F4AB
:10182000A140A6958FEF811D811D089597F99F67AF
:1018300080E870E060E008959FEF80EC0895002458
:101840000A941616170618060906089500240A9425
:1018500012161306140605060895092E0394000CAB
:1018600011F4882352F0BB0F40F4BF2B11F460FF3A
:1018700004C06F5F7F4F8F4F9F4F089557FD905863
:10188000440F551F59F05F3F71F04795880F97FB44
:10189000991F61F09F3F79F08795089512161306FE
:1018A0001406551FF2CF4695F1DF08C0161617062D
:1018B0001806991FF1CF8695710561050894089562
:1018C000E894BB2766277727CB0197F908950E94F4
:1018D000F20B08F48FEF08950E947F0C0C942D0CEE
:1018E0000E941F0C38F00E94260C20F0952311F066
:1018F0000C94160C0C941C0C11240C94610C0E947A
:101900003E0C70F3959FC1F3950F50E0551F629FF9
:10191000F001729FBB27F00DB11D639FAA27F00D48
:10192000B11DAA1F649F6627B00DA11D661F829F6F
:101930002227B00DA11D621F739FB00DA11D621F54
:10194000839FA00D611D221F749F3327A00D611D71
:10195000231F849F600D211D822F762F6A2F112453
:101960009F5750409AF0F1F088234AF0EE0FFF1F86
:10197000BB1F661F771F881F91505040A9F79E3FDD
:10198000510580F00C94160C0C94610C5F3FE4F34D
:10199000983ED4F3869577956795B795F795E79533
:1019A0009F5FC1F7FE2B880F911D9695879597F93C
:1019B00008958F929F92AF92BF92CF92DF92EF9253
:1019C000FF92CF93DF93EC01688179818A819B81BB
:1019D000611571058105910521F464E279ED8BE5CE
:1019E00097E02DE133EF41E050E00E944B0D4901BB
:1019F0005A019B01AC01A7EAB1E40E946A0D6B0198
:101A00007C01ACEEB4EFA50194010E94780DDC01DD
:101A1000CB018C0D9D1DAE1DBF1DB7FF03C00197EF
:101A2000A109B04888839983AA83BB839F77DF91FC
:101A3000CF91FF90EF90DF90CF90BF90AF909F90AD
:101A40008F9008950E94D90C089582E191E00E9440
:101A5000D90C0895B0E0A0E0809312019093130197
:101A6000A0931401B09315010895F999FECF92BD8A
:101A700081BDF89A992780B50895262FF999FECF50
:101A80001FBA92BD81BD20BD0FB6F894FA9AF99A9B
:101A90000FBE01960895052E97FB1EF400940E9438
:101AA000620D57FD07D00E947D0D07FC03D04EF458
:101AB0000C94620D50954095309521953F4F4F4FB6
:101AC0005F4F089590958095709561957F4F8F4FEA
:101AD0009F4F08950E94780AA59F900DB49F900D86
:101AE000A49F800D911D11240895B7FF0C946A0DD9
:101AF0000E946A0D821B930B0895A1E21A2EAA1B65
:101B0000BB1BFD010DC0AA1FBB1FEE1FFF1FA217AD
:101B1000B307E407F50720F0A21BB30BE40BF50BAA
:101B2000661F771F881F991F1A9469F76095709533
:101B3000809590959B01AC01BD01CF010895F8946B
:021B4000FFCFD5
:101B42000100000000000000010001AA8F028C02C7
:101B52008B02010000000000320046003200320019
:101B6200000032004600460032000000320032001F
:061B7200460032000000F5
:00000001FF
