:100000000C944D000C9476000C9476000C947600C1
:100010000C9476000C9476000C94B6030C94760045
:100020000C9476000C9476000C9476000C94D40713
:100030000C9476000C9476000C942E060C947600AA
:100040000C9476000C9476000C9476000C94760058
:100050000C9476000C9476000C9476000C94F607C1
:100060000C9476000C947600DD01DF01E101E301E0
:10007000E501EC01E701DD06340748077907800751
:100080005F078307E108D209D209EA08ED08F00802
:10009000F208F408F608A709080911241FBECFEFDB
:1000A000D8E0DEBFCDBF14BE0FB6F894A8958091FE
:1000B0006000886180936000109260000FBE11E0C4
:1000C000A0E0B1E0E0E6FBE102C005900D92AC30AB
:1000D000B107D9F721E0ACE0B1E001C01D92A63F25
:1000E000B207E1F70E94840A0C94AE0D0C94000054
:1000F000E7E5F1E0A7E7B1E087E791E0119211921F
:100100001D921D928E179F07C9F710921E01109223
:100110001F01109220011092210110922201EBE3A5
:10012000F1E0119281E0E334F807D9F71092300141
:100130008091F101809327011092280110922901EA
:1001400010922A0110922B0110922C0110922D0175
:1001500010922E0187E291E00E94E509909332010E
:10016000809331018091BB019091BC01A091BD01B0
:10017000B091BE018093430190934401A093450147
:10018000B09346010895109230018091F10180935F
:100190002701EEE1F1E0A8E2B1E081918D9381E0E9
:1001A000E332F807D1F787E291E00E94E5099093E6
:1001B00032018093310187E291E00895CF93DF937C
:1001C000EC0181E080931401FB0180819181A28187
:1001D000B3818093330190933401A0933501B093A0
:1001E000360183E391E00E94B60480931501888173
:1001F0008F5F809397014091F1015091F201FE01D0
:10020000AEE1B1E020E030E04217530711F09181F8
:100210009C932F5F3F4F3196119625303105A1F702
:10022000E091120190E0EE2339F0A7E5B1E0ED0195
:1002300030E040E020E00BC021E0209312019093D9
:1002400058018093570156C03F5FE31741F0699111
:10025000799186179707C1F72F5F432FF5CF21308C
:1002600049F4E42FF0E0EE0FFF1FE958FE4F118232
:10027000108230C021110BC0EF5FE0931201F0E05B
:10028000EE0FFF1FEB5AFE4F9183808323C0223075
:1002900009F54E17F8F4842F90E09C012F5F3F4F33
:1002A000220F331FE901C95ADE4F68817981880F17
:1002B000991FEC01C95ADE4F79836883E901C95857
:1002C000DE4F28813981EC01C958DE4F39832883FC
:1002D0004F5FDFCF27E731E080E04D915D91452B07
:1002E00009F08F5F2A173B07C1F79091120189131C
:1002F00080931201DF91CF9108950F931F93CF93B5
:10030000DF934091000150E03091120120E0822FF4
:1003100090E0FC01EE0FFF1FDF01A958BE4F6D9169
:100320007C9111976417750770F1E95AFE4FC081EF
:10033000D181C35EDE4F1882632F70E06150710976
:100340008617970751F00196880F991FEC01C95A3B
:10035000DE4F8F0189589E4F05C0118210821D9279
:100360001C920FC0231768F468817981F8017183AA
:100370006083FC016081718111967C936E932F5F85
:10038000F1CF31502FEF2F5F231708F23093120176
:10039000DF91CF911F910F91089580910C01909161
:1003A0000D01A0910E01B0910F018730910588F4E5
:1003B000FC01EC5CFF4F0C94AF0A85E10BC081E0BF
:1003C00009C085E007C084E005C080E103C081E189
:1003D00001C080E00C94AA060895EF92FF920F935B
:1003E0001F93CF93DF9380911401813011F4109209
:1003F00014018091BB019091BC01A091BD01B0910D
:10040000BE014091430150914401609145017091BA
:100410004601841B950BA60BB70B8097A105B10570
:10042000F8F090911201E7E7F1E080E0891741F0E0
:10043000208131812F5F3F4F219331938F5FF6CF22
:100440008091BB019091BC01A091BD01B091BE0112
:100450008093430190934401A0934501B0934601DA
:100460000E947D01EBE3F1E0DF011D9241E0A33446
:10047000B407D9F710911201A7E5B1E020E031E00F
:10048000211751F08D919D91009721F0EC01C65CF0
:10049000DE4F38832F5FF4CF2091F1013091F201CC
:1004A000D901A55CBE4F81E08C9360E070E040E034
:1004B0008191062E01C0880F0A94EAF7482B6F5FDE
:1004C0007F4F68307105A1F740931301F901E25E97
:1004D000FE4F408360E070E080E090E0DC01C1E02E
:1004E000D0E0062F611778F530E020E0FB01FF2710
:1004F000EE0FFF1FAF01495A5E4F7A01031741F01B
:10050000F70140815181435E5E4FFA014081242B07
:100510003F5F353099F7AE01062E01C0440F0A94B3
:10052000EAF74223242F30E0062E02C035952795A6
:100530000A94E2F72130310519F40196A11DB11D8D
:100540006F5F7F4FCECF80930C0190930D01A093EE
:100550000E01B0930F010097A105B10559F0019765
:10056000A109B10980930C0190930D01A0930E0194
:10057000B0930F01111108C010920C0110920D01DF
:1005800010920E0110920F01DF91CF911F910F91E8
:10059000FF90EF900C94CD01089580E090E00895D5
:1005A0000895DF92EF92FF920F931F93CF93DF9303
:1005B000F89414B817B81AB815B818B81BB8529AE6
:1005C0005A9A14BC85E085BD8FEF87BD82E0809389
:1005D0006E0010928000109281002FE83BE0309373
:1005E00089002093880080936F005398239891EAA4
:1005F0009093B0008093B1001092B4001092B300B9
:100600008BE080BF83E080937F0086E080937C0056
:1006100083E880937A0080917A00806480937A00E6
:1006200080917A0086FDFCCF10927C0083EA809353
:100630007A0081E080937B0081E090E00E94440D8D
:100640008F3F11F0809366001092BF01C1E0C0930C
:100650009801C093DC011092B6011092F00180E97C
:1006600090E00E94440D8093B5018091B50188739C
:1006700011F0C093B5011092E0011092DF018FEFED
:1006800090E09093DE018093DD011092BB01109207
:10069000BC011092BD011092BE0181E0809319014E
:1006A00082E49FE09093EF018093EE0180EB90E075
:1006B0000E94440DC82F81EB90E00E94440D2C2F26
:1006C00030E0382B3093F2012093F10185E090E087
:1006D0000E94440D8093F50189E090E00E94440D52
:1006E0008093E1018CE090E00E94440D8093F3013F
:1006F00084E190E00E94440D8093F40100EC11E04D
:1007000059E9E52E51E0F52EC0E2D0E0CE010E947D
:10071000440DD82ECE0101960E94440D2D2D30E0BF
:10072000322F2227282BF801219331938F01CE01FC
:10073000C0960E94440DD82ECE01C1960E94440D51
:100740002D2D30E0322F2227282BF70121933193D2
:100750007F012296CC33D105C9F67894DF91CF91F1
:100760001F910F91FF90EF90DF9008951F920F92CD
:100770000FB60F9211248F930FB6F894A89580911D
:100780006000886180936000109260000FBE8F91BE
:100790000F900FBE0F901F901895009741F0EFEC4F
:1007A000F7E03197F1F700C000000197F6CF089508
:1007B0008093B3006093B40008958FEF8093B300EB
:1007C0008093B4008FE090E00C94CD038091BF0142
:1007D00081111EC0F89487E080937C0083E88093A9
:1007E0007A0080917A00806480937A0080917A0008
:1007F00086FDFCCF809178009091790010927C006A
:1008000023EA20937A0021E020937B0078940895D6
:100810008FEF9FEF08958091BF0181111EC0F89462
:1008200088EC80937C0087E880937A0080917A003E
:10083000806480937A0080917A0086FDFCCF80915D
:1008400078009091790010927C0023EA20937A003E
:1008500021E020937B00789408958FEF9FEF089517
:10086000CF93DF9320E030E080E0E3EAF1E0C6E000
:10087000D3E8A1E0B0E090E0F894C0937C00D0937E
:100880007A0040917A00406440937A0040917A0067
:1008900046FDFCCF40917800509179004170509115
:1008A0007A00506450937A0050917A0056FDFCCF44
:1008B000609178007091790010927C00E0937A004A
:1008C000F0937B0078949F5F6170461751F044234A
:1008D00059F0AD01022E01C0440F0A94EAF7842BAF
:1008E00003C0903849F6F3CF2F5F3F4F28303105D2
:1008F00009F0C1CFDF91CF9108958091010198E077
:10090000899F9001112428279091160181E0890F79
:1009100080931601822F8295869587702827969559
:100920009695822F89278093010108958093010174
:1009300008958091BF01811116C0F89486E08093DC
:100940007C0083E880937A0080917A0080648093B1
:100950007A0080917A0086FDFCCF8091780090919A
:100960007900789408958FEF9FEF08952F923F922A
:100970004F925F926F927F928F929F92AF92BF92AF
:10098000CF92DF92EF92FF920F931F93CF93DF935B
:100990001C01FC01C281D381C438F3E0DF070CF0F5
:1009A0007EC08091990190919A018C179D0708F45F
:1009B0006FC0EBE9F1E011E0819191918C179D07F7
:1009C00020F01F5F1E30C1F71DE0812F90E0FC0179
:1009D000EE0FFF1FE756FE4FE080F180880F991F52
:1009E000FC01E956FE4F80819181B701681B790BAC
:1009F00080E090E00E94ED0B9B01AC010E94D90ABF
:100A00004B015C01BE010D2E000C880B990B0E945E
:100A1000EF0B2B013C01B70180E090E00E94ED0B51
:100A20006B017C01612F70E080E090E00E94ED0B93
:100A300020E030E040E05FE30E947B0C20E030E00B
:100A4000A9010E94D90AA50194010E947B0C9B0177
:100A5000AC01C701B6010E94D80A9B01AC01C301D9
:100A6000B2010E94D80A20E030E040E251E40E9446
:100A70007B0C0E94B70B7B01C501B4010E94B70B30
:100A8000AB01BC01C701BA010E949B0A162F01C02D
:100A900010E0CD3B82E0D8070CF4CAC001C01FEFC4
:100AA000F101C080D1808091C0019091C1018C156D
:100AB0009D0588F0E2ECF1E081E090E0382EE190D5
:100AC000F190EC14FD0408F458C001968E309105A5
:100AD000A9F70AE501C000E01F3F09F44BC0BE01C1
:100AE000DD0F880B990B0E94EF0B6B017C01612FCE
:100AF00070E080E090E00E94ED0B4B015C01A701EB
:100B0000960160E070E081E694E40E94D80A9B01BF
:100B1000AC01C501B4010E947B0C4B015C01602F4C
:100B200070E080E090E00E94ED0B2B013C0120E0A2
:100B300030E04FE254E4C701B6010E94D80A9B019D
:100B4000AC01C301B2010E947B0C9B01AC01C50149
:100B5000B4010E94D90A20E030E048E453E40E9446
:100B6000450B20E030E044E052E40E94D90A0E94A4
:100B7000BE0B60C061E2600F5DC0880F991FFC0171
:100B8000E254FE4F80819181B701681B790B80E0B0
:100B900090E00E94ED0B9B01AC010E94D90A4B0131
:100BA0005C01B601DD0C880B990B0E94EF0B2B0149
:100BB0003C01B70180E090E00E94ED0B6B017C01ED
:100BC000632D70E080E090E00E94ED0B20E030E0CB
:100BD00040E05FE30E947B0C20E030E0A9010E942E
:100BE000D90AA50194010E947B0C9B01AC01C701AD
:100BF000B6010E94D80A9B01AC01C301B2010E9458
:100C0000D80A20E030E040E251E40E947B0C0E94D0
:100C1000B70B7B01C501B4010E94B70BAB01BC014E
:100C2000C701BA010E949B0A062F6F3F09F054CFFB
:100C300061E2610F862FDF91CF911F910F91FF909D
:100C4000EF90DF90CF90BF90AF909F908F907F906C
:100C50006F905F904F903F902F9008951F920F924A
:100C60000FB60F9211242F933F934F935F936F937F
:100C70007F938F939F93AF93BF93EF93FF932091B5
:100C8000DF013091E0018091DD019091DE01820F62
:100C9000931F9093E0018093DF018FEF90E090939A
:100CA000DE018093DD018FEF87BD8091BB019091C4
:100CB000BC01A091BD01B091BE010196A11DB11D65
:100CC0008093BB019093BC01A093BD01B093BE0182
:100CD0008091BF0181112DC08091EE019091EF01B3
:100CE0002091DF013091E0018217930710F5809188
:100CF00019018430F1F4E0910401F09105010995A6
:100D00000097B9F00E94010A882351F0E091020196
:100D1000F091030109951092E0011092DF0109C0E2
:100D20000E94340D9C0133273093DE012093DD01B6
:100D300087BDFF91EF91BF91AF919F918F917F916F
:100D40006F915F914F913F912F910F900FBE0F9038
:100D50001F90189580FF02C0559A01C0559881FFD9
:100D600002C0549A01C0549882FF02C03B9A01C04D
:100D70003B9883FF02C03A9A01C03A9884FF02C0B0
:100D80003D9A01C03D9885FF02C03C9A08953C9869
:100D900008958C017B01D0E0CFEF84E0D82E98E15C
:100DA000C92E29E2B22EE0911901F0E0E730F105F9
:100DB000D0F7E55CFF4F0C94AF0AF89480B7877FBB
:100DC00080BF80917A008F7780937A0014B817B82B
:100DD0001AB815B818B81BB80FB6F894A895C092F1
:100DE00060000FBEB09260008091600080648093CC
:100DF000600083B7817F846083BFF89483B781608C
:100E000083BF7894889583B78E7F83BF7894109240
:100E1000BF01529A5A9A80917A00806880937A0032
:100E200087E592E00197F1F700C0000080B7886184
:100E300080BF8FE30E94AA06EFE1FEE43197F1F74D
:100E400000C000008091BF01882309F450C083E0F6
:100E50000E94AA06FFEF20E782E0F1502040804088
:100E6000E1F700C0000043C08CE00E94AA06EFEC4E
:100E7000F7E03197F1F700C0000080E00E94AA0679
:100E8000FFEF21EE84E0F15020408040E1F72CC0DC
:100E90000E9499048B3AE2E09E0724F08CE00E94C5
:100EA000AA0681CF8938F2E09F0714F080E3F7CFDC
:100EB0008736924014F08FE0F2CF83E0F0CF48996C
:100EC00016C081E00E94AA068FEC97E00197F1F727
:100ED00000C0000080E00E94AA069FEFE1EEF4E06F
:100EE0009150E040F040E1F700C000005CCF80E0AE
:100EF000D6CFD11102C0F8010995D0921901D1E0E5
:100F0000F701099550CF80911701811107C0109208
:100F1000B3001092B4001092180145CF90911701C0
:100F200080911801981709F43ECF809117018093A2
:100F3000180180911701813089F4C093B300109299
:100F4000B4008FE295E70197F1F700C000008091AF
:100F5000F5018093B3001092B40025CF8091170162
:100F60001092B300C093B400823059F4EFE2F5E779
:100F70003197F1F700C000008091E1011092B300B9
:100F800010C0C093B300C093B4008FE295E70197FF
:100F9000F1F700C000008091F4019091F30190936B
:100FA000B3008093B400FFCE1F920F920FB60F9242
:100FB00011248F939F9310928100109285001092BC
:100FC000840081E0809398018093DC011092BF013E
:100FD00010927C0093EA90937A0080937B009F911B
:100FE0008F910F900FBE0F901F9018951F920F9228
:100FF0000FB60F9211240F931F932F933F934F938C
:101000005F936F937F938F939F93AF93BF93EF9370
:10101000FF93209184003091850041E04093BF010F
:1010200080919801882321F110928500109284000C
:10103000409381001092F001109298018091DC01A0
:10104000882309F4AFC180917A0086FDFCCF80919E
:101050007800909179009093BA018093B90181E072
:1010600080937C0093EA90937A0080937B009AC1EE
:10107000C9018758910984379940A0F010928100E6
:101080001092850010928400409398014093DC01F7
:101090001092BF0110927C0083EA80937A00409303
:1010A0007B0080C126583109A4EFB0E00E94B50A48
:1010B0008C0122273327083060F481E090E001C0E2
:1010C000880F0A95EAF79091F001892B8093F0013F
:1010D00069C1409398018091DC01882341F180919E
:1010E0007A0086FDFCCF80917800909179009093F2
:1010F000B8018093B70110927C0083EA80937A0054
:1011000081E080937B009091F001992359F0109237
:10111000810010928500109284008093DC0110926F
:10112000BF0140C11092DC011092B6013BC1809119
:10113000B601E82FF0E0EE51FE4F9091F001908360
:101140008F5F8093B6018C3009F02CC11092810022
:1011500010928500109284004093DC011092BF0130
:101160000091EC011091ED0182EE91E00E94E50901
:101170000817190709F016C1E091EB01E7FD0AC055
:10118000E0910601F091070167EB71E082EE91E0DA
:10119000099508C188E78E0F833030F05398239863
:1011A0001092B4001092B3008E2F90E0FC01E05832
:1011B000F109EB30F10508F0F5C0EE5BFF4F0C9440
:1011C000AF0A80916E008D7F80936E0016BCE0E0C8
:1011D000F0E702C0E0E0F0E0099510921901E2C0EA
:1011E00081E0B2C085E0B0C082E0AEC0809119015C
:1011F000833009F4D7C080911901843009F4D2C03A
:10120000539A239A1092B4001092B30083E09CC0CA
:101210008091E201823009F44BC080F48823A9F068
:10122000813009F082C08091E3019091E4019093B4
:10123000F2018093F1011092170177C0833009F415
:1012400049C0843009F458C070C0809119018630BB
:1012500009F06BC06091F10180EB90E00E944C0DB1
:101260006091F20181EB90E00E944C0D6091F501DC
:1012700085E090E00E944C0D6091E10189E090E0F2
:101280000E944C0D6091F3018CE090E00E944C0DA7
:101290006091F40184E190E00E944C0D53982398F2
:1012A0001092B4001092B30081E0809319013DC008
:1012B000909117018091E501913021F49091F50111
:1012C000891799F11092180191E09093170180937A
:1012D000F5012BC0909117018091E601923021F425
:1012E0009091E101891709F11092180192E0909311
:1012F00017018093E10119C0209117018091E80145
:101300009091E701233041F42091F401821304C04D
:101310002091F301921749F01092180123E02093D5
:1013200017019093F3018093F4018091E2018823E7
:10133000C9F1809119018630A9F1539A239A10922C
:10134000B4001092B30086E0809319012BC0809105
:101350001901863081F0539A239A1092B4001092AA
:10136000B30080E00E94AA061092170110921801A3
:1013700086E08093190181E090E00090E20102C0D4
:10138000880F991F0A94E2F72091F1013091F20140
:1013900082239323892B21F081E08093170102C0DF
:1013A00010921701FF91EF91BF91AF919F918F9193
:1013B0007F916F915F914F913F912F911F910F916D
:1013C0000F900FBE0F901F901895FC019C01265F97
:1013D0003F4F8FEF9FEF41918427082E8295807FAA
:1013E0008025092E982F82958F700826869598273C
:1013F0008927880F880F880F8025E217F30759F790
:1014000008950FB6F894A4B12091B5012A2B24B900
:1014100021E03091B501203029F0000025B1232BC7
:1014200025B904C000000000000000C0000000005A
:101430000000309525B1232325B92EEA2A95F1F72E
:101440002BEE30B735FF0AC0A4B93091B501309505
:1014500025B1232325B90FBE80E0089500002A9509
:1014600081F721E03091B501203029F0000025B14D
:10147000232B25B904C000000000000000C00000BC
:1014800000000000309525B1232325B9000024E594
:101490002A95F1F7FC018CE0619170E0660F771FEF
:1014A000616072609AE041E050E09A0126233723A0
:1014B000232B3091B501203029F0000025B1232BDA
:1014C00025B904C000000000000000C000000000BA
:1014D0000000309525B1232325B9000021E52A9588
:1014E000F1F7440F551F9A9501F78A95A9F620B791
:1014F000206120BFA4B93091B501309525B12323D7
:1015000025B90FBE81E008950E94D1028EED90E0D2
:10151000909307018093060183EC90E0909305017E
:10152000809304016DEE71E088E790E00E94C906A7
:1015300080E090E0089597FB072E16F4009407D002
:1015400077FD09D00E94C40A07FC05D03EF49095AF
:1015500081959F4F0895709561957F4F0895EE0F87
:10156000FF1F0590F491E02D0994A29FB001B39F55
:10157000C001A39F700D811D1124911DB29F700D9C
:10158000811D1124911D0895AA1BBB1B51E107C0A9
:10159000AA1FBB1FA617B70710F0A61BB70B881F03
:1015A000991F5A95A9F780959095BC01CD01089592
:1015B0005058BB27AA270E94F00A0C94410C0E94A5
:1015C000330C38F00E943A0C20F039F49F3F19F4A4
:1015D00026F40C94300C0EF4E095E7FB0C942A0CE6
:1015E000E92F0E94520C58F3BA1762077307840759
:1015F000950720F079F4A6F50C94740C0EF4E095A0
:101600000B2EBA2FA02D0B01B90190010C01CA01BC
:10161000A0011124FF27591B99F0593F50F4503E67
:1016200068F11A16F040A22F232F342F4427585F59
:10163000F3CF469537952795A795F0405395C9F771
:101640007EF41F16BA0B620B730B840BBAF0915029
:10165000A1F0FF0FBB1F661F771F881FC2F70EC0C8
:10166000BA0F621F731F841F48F48795779567959B
:10167000B795F7959E3F08F0B0CF9395880F08F087
:101680009927EE0F9795879508950E94590B0C9412
:10169000410C0E943A0C58F00E94330C40F029F49F
:1016A0005F3F29F00C942A0C51110C94750C0C948A
:1016B000300C0E94520C68F39923B1F3552391F337
:1016C000951B550BBB27AA2762177307840738F0B1
:1016D0009F5F5F4F220F331F441FAA1FA9F335D00E
:1016E0000E2E3AF0E0E832D091505040E695001CC2
:1016F000CAF72BD0FE2F29D0660F771F881FBB1F7C
:10170000261737074807AB07B0E809F0BB0B802D59
:10171000BF01FF2793585F4F3AF09E3F510578F085
:101720000C942A0C0C94750C5F3FE4F3983ED4F3B0
:10173000869577956795B795F7959F5FC9F7880F59
:10174000911D9695879597F90895E1E0660F771FAB
:10175000881FBB1F621773078407BA0720F0621B3C
:10176000730B840BBA0BEE1F88F7E09508950E9467
:10177000BE0B6894B1110C94750C08950E945A0C1C
:1017800088F09F5798F0B92F9927B751B0F0E1F042
:10179000660F771F881F991F1AF0BA95C9F714C0F2
:1017A000B13091F00E94740CB1E008950C94740C67
:1017B000672F782F8827B85F39F0B93FCCF386952B
:1017C00077956795B395D9F73EF490958095709588
:1017D00061957F4F8F4F9F4F0895E89409C097FB05
:1017E0003EF490958095709561957F4F8F4F9F4FF8
:1017F0009923A9F0F92F96E9BB279395F69587953C
:1018000077956795B795F111F8CFFAF4BB0F11F4FE
:1018100060FF1BC06F5F7F4F8F4F9F4F16C08823A5
:1018200011F096E911C0772321F09EE8872F762FDB
:1018300005C0662371F096E8862F70E060E02AF01C
:101840009A95660F771F881FDAF7880F9695879508
:1018500097F9089597F99F6780E870E060E0089530
:101860009FEF80EC089500240A94161617061806B8
:101870000906089500240A94121613061406050694
:101880000895092E0394000C11F4882352F0BB0F25
:1018900040F4BF2B11F460FF04C06F5F7F4F8F4F88
:1018A0009F4F089557FD9058440F551F59F05F3FC3
:1018B00071F04795880F97FB991F61F09F3F79F072
:1018C00087950895121613061406551FF2CF4695F4
:1018D000F1DF08C0161617061806991FF1CF869576
:1018E0007105610508940895E894BB27662777275A
:1018F000CB0197F908950E948E0C0C94410C0E9424
:10190000330C38F00E943A0C20F0952311F00C941F
:101910002A0C0C94300C11240C94750C0E94520C5F
:1019200070F3959FC1F3950F50E0551F629FF00132
:10193000729FBB27F00DB11D639FAA27F00DB11D4B
:10194000AA1F649F6627B00DA11D661F829F2227D4
:10195000B00DA11D621F739FB00DA11D621F839F5B
:10196000A00D611D221F749F3327A00D611D231F31
:10197000849F600D211D822F762F6A2F11249F577F
:1019800050409AF0F1F088234AF0EE0FFF1FBB1F82
:10199000661F771F881F91505040A9F79E3F510541
:1019A00080F00C942A0C0C94750C5F3FE4F3983E85
:1019B000D4F3869577956795B795F795E7959F5FEB
:1019C000C1F7FE2B880F911D9695879597F908957D
:1019D0008F929F92AF92BF92CF92DF92EF92FF923F
:1019E000CF93DF93EC01688179818A819B816115B6
:1019F00071058105910521F464E279ED8BE597E0AD
:101A00002DE133EF41E050E00E945A0D49015A01A7
:101A10009B01AC01A7EAB1E40E94790D6B017C0146
:101A2000ACEEB4EFA50194010E94870DDC01CB015F
:101A30008C0D9D1DAE1DBF1DB7FF03C00197A109F1
:101A4000B04888839983AA83BB839F77DF91CF9126
:101A5000FF90EF90DF90CF90BF90AF909F908F90CE
:101A600008950E94E80C089588E091E00E94E80C37
:101A70000895A0E0B0E08093080190930901A0933D
:101A80000A01B0930B010895F999FECF92BD81BD73
:101A9000F89A992780B50895262FF999FECF1FBA95
:101AA00092BD81BD20BD0FB6F894FA9AF99A0FBE87
:101AB00001960895052E97FB1EF400940E94710D67
:101AC00057FD07D00E948C0D07FC03D04EF40C94F8
:101AD000710D50954095309521953F4F4F4F5F4F79
:101AE000089590958095709561957F4F8F4F9F4F8A
:101AF00008950E94B50AA59F900DB49F900DA49FD4
:101B0000800D911D11240895B7FF0C94790D0E944A
:101B1000790D821B930B0895A1E21A2EAA1BBB1B01
:101B2000FD010DC0AA1FBB1FEE1FFF1FA217B307A9
:101B3000E407F50720F0A21BB30BE40BF50B661FBF
:101B4000771F881F991F1A9469F760957095809583
:101B500090959B01AC01BD01CF010895F894FFCF92
:0C1B600004AAD002CD02CC02010000005B
:00000001FF
