:100000000C9446000C946F000C946F000C946F00DD
:100010000C946F000C946F000C9473020C946F009E
:100020000C946F000C946F000C946F000C9491066C
:100030000C946F000C946F000C94EB040C946F0004
:100040000C946F000C946F000C946F000C946F0074
:100050000C946F000C946F000C946F000C94B3061A
:100060000C946F000C946F009A05F1050506360696
:100070003D061C0640069E078F088F08A707AA07A3
:10008000AD07AF07B107B3076408C50711241FBE4A
:10009000CFEFD8E0DEBFCDBF14BE0FB6F894A89561
:1000A00080916000886180936000109260000FBEB4
:1000B00011E0A0E0B1E0EAEDF8E102C005900D9298
:1000C000AC30B107D9F721E0ACE0B1E001C01D923E
:1000D000AE39B207E1F70E9441090C946B0C0C9405
:1000E0000000CF93DF93CBE2D1E019868091990194
:1000F000888380910D018983CE010E94A2089B878D
:100100008A87CE01DF91CF910895109234018091BA
:10011000990180932B0110922C0110922D011092C5
:100120002E0110922F011092300110923101109285
:1001300032018BE291E00E94A208909336018093F5
:1001400035018091990190919A01009711F481E015
:1001500017C08130910511F484E012C082309105FE
:1001600011F480E10DC08330910511F485E008C0E1
:100170008430910511F481E103C0059719F484E1FD
:100180000C9467050895CF93DF93EC01CB01288190
:100190002093370121110EC00E94730390E09093C9
:1001A0003B0180933A01898190E0909319018093FB
:1001B00018014FC0213071F40E94730390E09093B6
:1001C0002A0180932901898190E0909317018093FF
:1001D00016013FC0223071F40E94730390E09093A7
:1001E0003F0180933E01898190E0909315018093B7
:1001F00014012FC0233071F40E94730390E0909398
:10020000240180932301898190E0909313018093CE
:1002100012011FC0243071F40E94730390E0909388
:100220003D0180933C01898190E09093110180937E
:1002300010010FC0253069F40E94730390E0909381
:10024000390180933801898190E090930F01809368
:100250000E0181E080931E01DF91CF9108952091DE
:100260001C0130911D012817390721F190931D01C0
:1002700080931C01009711F460E019C08130910552
:1002800039F40E949A0260919C0180919B0110C0F8
:100290008230910531F40E949A0260E080919D01C4
:1002A00007C0039739F40E949A026091890180E0A7
:1002B0000C949502089580910D01811129C08091BF
:1002C000990190919A018D7F019711F581E090E05D
:1002D0000E942F0180E797E10E948A0282E090E06D
:1002E0000E942F0180ED97E00E948A0281E090E059
:1002F0000E942F0188EB9BE00E948A0280E090E040
:100300000E942F0181E080930D0185E10C94670527
:100310000895089580E090E008950895DF92EF92A7
:10032000FF920F931F93CF93DF93F89414B817B8ED
:100330001AB815B818B81BB8529A5A9A14BC85E066
:1003400085BD8FEF87BD82E080936E0010928000A4
:10035000109281002FE83BE03093890020938800C1
:1003600080936F005398239891EA9093B000809304
:10037000B1001092B4001092B3008BE080BF83E014
:1003800080937F0086E080937C0083E880937A00EE
:1003900080917A00806480937A0080917A0086FD53
:1003A000FCCF10927C0083EA80937A0081E08093F6
:1003B0007B0081E090E00E94010C8F3F11F0809360
:1003C000660010926701C1E0C0934001C0938401B0
:1003D00010925E011092980180E990E00E94010C59
:1003E00080935D0180915D01887311F0C0935D0180
:1003F00010928801109287018FEF90E09093860110
:10040000809385011092630110926401109265013E
:100410001092660181E08093220182E49FE0909334
:1004200097018093960180EB90E00E94010CC82F09
:1004300081EB90E00E94010C2C2F30E0382B3093A0
:100440009A012093990185E090E00E94010C80932D
:100450009D0189E090E00E94010C809389018CE06D
:1004600090E00E94010C80939B0184E190E00E9447
:10047000010C80939C0108E611E051E4E52E51E067
:10048000F52EC0E2D0E0CE010E94010CD82ECE01A4
:1004900001960E94010C2D2D30E0322F2227282BAF
:1004A000F801219331938F01CE01C0960E94010C77
:1004B000D82ECE01C1960E94010C2D2D30E0322F96
:1004C0002227282BF701219331937F012296CC33E9
:1004D000D105C9F67894DF91CF911F910F91FF90CC
:1004E000EF90DF9008951F920F920FB60F92112494
:1004F0008F930FB6F894A8958091600088618093DF
:100500006000109260000FBE8F910F900FBE0F9091
:100510001F901895009741F0EFECF7E03197F1F755
:1005200000C000000197F6CF08958093B300609358
:10053000B40008958FEF8093B3008093B4008FE0F0
:1005400090E00C948A028091670181111EC0F8949A
:1005500087E080937C0083E880937A0080917A0022
:10056000806480937A0080917A0086FDFCCF809130
:1005700078009091790010927C0023EA20937A0011
:1005800021E020937B00789408958FEF9FEF0895EA
:100590008091670181111EC0F89488EC80937C00E3
:1005A00087E880937A0080917A00806480937A0053
:1005B00080917A0086FDFCCF80917800909179003F
:1005C00010927C0023EA20937A0021E020937B00A4
:1005D000789408958FEF9FEF0895CF93DF9320E0F5
:1005E00030E080E0E3EAF1E0C6E0D3E8A1E0B0E08B
:1005F00090E0F894C0937C00D0937A0040917A0008
:10060000406440937A0040917A0046FDFCCF4091CF
:10061000780050917900417050917A005064509365
:100620007A0050917A0056FDFCCF6091780070916D
:10063000790010927C00E0937A00F0937B0078942C
:100640009F5F6170461751F0442359F0AD01022EAF
:1006500001C0440F0A94EAF7842B03C0903849F68E
:10066000F3CF2F5F3F4F2830310509F0C1CFDF9125
:10067000CF9108958091000198E0899F9001112405
:10068000282790911F0181E0890F80931F01822FFD
:10069000829586958770282796959695822F89272B
:1006A000809300010895809300010895809167016F
:1006B000811116C0F89486E080937C0083E88093D3
:1006C0007A0080917A00806480937A0080917A0029
:1006D00086FDFCCF80917800909179007894089500
:1006E0008FEF9FEF08952F923F924F925F926F92FC
:1006F0007F928F929F92AF92BF92CF92DF92EF92B2
:10070000FF920F931F93CF93DF931C01FC01C281D3
:10071000D381C438F3E0DF070CF07EC08091410143
:10072000909142018C179D0708F46FC0E3E4F1E05B
:1007300011E0819191918C179D0720F01F5F1E3071
:10074000C1F71DE0812F90E0FC01EE0FFF1FEF5B72
:10075000FE4FE080F180880F991FFC01E15CFE4FA5
:1007600080819181B701681B790B80E090E00E9445
:10077000AA0A9B01AC010E9496094B015C01BE01D3
:100780000D2E000C880B990B0E94AC0A2B013C012A
:10079000B70180E090E00E94AA0A6B017C01612F02
:1007A00070E080E090E00E94AA0A20E030E040E0A3
:1007B0005FE30E94380B20E030E0A9010E94960917
:1007C000A50194010E94380B9B01AC01C701B60141
:1007D0000E9495099B01AC01C301B2010E949509D9
:1007E00020E030E040E251E40E94380B0E94740A9D
:1007F0007B01C501B4010E94740AAB01BC01C701B1
:10080000BA010E945809162F01C010E0CD3B82E0CA
:10081000D8070CF4CAC001C01FEFF101C080D1801D
:1008200080916801909169018C159D0588F0EAE638
:10083000F1E081E090E0382EE190F190EC14FD04BD
:1008400008F458C001968E309105A9F70AE501C059
:1008500000E01F3F09F44BC0BE01DD0F880B990B70
:100860000E94AC0A6B017C01612F70E080E090E097
:100870000E94AA0A4B015C01A701960160E070E0AA
:1008800081E694E40E9495099B01AC01C501B40185
:100890000E94380B4B015C01602F70E080E090E01B
:1008A0000E94AA0A2B013C0120E030E04FE254E410
:1008B000C701B6010E9495099B01AC01C301B201B9
:1008C0000E94380B9B01AC01C501B4010E9496093E
:1008D00020E030E048E453E40E94020A20E030E0E7
:1008E00044E052E40E9496090E947B0A60C061E2E3
:1008F000600F5DC0880F991FFC01EA59FE4F80818F
:100900009181B701681B790B80E090E00E94AA0AF0
:100910009B01AC010E9496094B015C01B601DD0C04
:10092000880B990B0E94AC0A2B013C01B70180E0B7
:1009300090E00E94AA0A6B017C01632D70E080E0C8
:1009400090E00E94AA0A20E030E040E05FE30E94CD
:10095000380B20E030E0A9010E949609A50194011E
:100960000E94380B9B01AC01C701B6010E9495099A
:100970009B01AC01C301B2010E94950920E030E067
:1009800040E251E40E94380B0E94740A7B01C501C9
:10099000B4010E94740AAB01BC01C701BA010E94F4
:1009A0005809062F6F3F09F054CF61E2610F862F7F
:1009B000DF91CF911F910F91FF90EF90DF90CF903B
:1009C000BF90AF909F908F907F906F905F904F906F
:1009D0003F902F9008951F920F920FB60F921124FF
:1009E0002F933F934F935F936F937F938F939F9337
:1009F000AF93BF93EF93FF932091870130918801CC
:100A00008091850190918601820F931F90938801B8
:100A1000809387018FEF90E090938601809385010A
:100A20008FEF87BD8091630190916401A091650172
:100A3000B09166010196A11DB11D80936301909351
:100A40006401A0936501B0936601809167018111F3
:100A50002DC080919601909197012091870130914E
:100A600088018217930710F5809122018430F1F4F8
:100A7000E0910301F091040109950097B9F00E94FB
:100A8000BE08882351F0E0910101F091020109951F
:100A9000109288011092870109C00E94F10B9C01FD
:100AA0003327309386012093850187BDFF91EF9115
:100AB000BF91AF919F918F917F916F915F914F9176
:100AC0003F912F910F900FBE0F901F90189580FFB0
:100AD00002C0559A01C0559881FF02C0549A01C0C6
:100AE000549882FF02C03B9A01C03B9883FF02C02A
:100AF0003A9A01C03A9884FF02C03D9A01C03D98DD
:100B000085FF02C03C9A08953C9808958C017B01B2
:100B1000D0E0CFEF84E0D82E98E1C92E29E2B22EA2
:100B2000E0912201F0E0E730F105D0F7EC5CFF4FF7
:100B30000C946C09F89480B7877F80BF80917A000D
:100B40008F7780937A0014B817B81AB815B818B808
:100B50001BB80FB6F894A895C09260000FBEB09273
:100B600060008091600080648093600083B7817F23
:100B7000846083BFF89483B7816083BF789488953D
:100B800083B78E7F83BF789410926701529A5A9AE6
:100B900080917A00806880937A0087E592E00197DF
:100BA000F1F700C0000080B7886180BF8FE30E942A
:100BB0006705EFE1FEE43197F1F700C00000809196
:100BC0006701882309F450C083E00E946705FFEFA6
:100BD00020E782E0F15020408040E1F700C00000B3
:100BE00043C08CE00E946705EFECF7E03197F1F726
:100BF00000C0000080E00E946705FFEF21EE84E066
:100C0000F15020408040E1F72CC00E9456038B3AFF
:100C1000E2E09E0724F08CE00E94670581CF8938CE
:100C2000F2E09F0714F080E3F7CF8736924014F08C
:100C30008FE0F2CF83E0F0CF489916C081E00E94A8
:100C400067058FEC97E00197F1F700C0000080E0A6
:100C50000E9467059FEFE1EEF4E09150E040F04024
:100C6000E1F700C000005CCF80E0D6CFD11102C018
:100C7000F8010995D0922201D1E0F701099550CFF2
:100C800080912001811107C01092B3001092B4002E
:100C90001092210145CF9091200180912101981758
:100CA00009F43ECF809120018093210180912001A1
:100CB000813089F4C093B3001092B4008FE295E7BD
:100CC0000197F1F700C0000080919D018093B3006F
:100CD0001092B40025CF809120011092B300C093F0
:100CE000B400823059F4EFE2F5E73197F1F700C034
:100CF0000000809189011092B30010C0C093B3002E
:100D0000C093B4008FE295E70197F1F700C00000AF
:100D100080919C0190919B019093B3008093B400CB
:100D2000FFCE1F920F920FB60F9211248F939F93B5
:100D300010928100109285001092840081E08093CF
:100D40004001809384011092670110927C0093EA25
:100D500090937A0080937B009F918F910F900FBEAC
:100D60000F901F9018951F920F920FB60F9211249B
:100D70000F931F932F933F934F935F936F937F93A3
:100D80008F939F93AF93BF93EF93FF932091840032
:100D90003091850041E040936701809140018823B4
:100DA00021F11092850010928400409381001092EE
:100DB00098011092400180918401882309F4AFC109
:100DC00080917A0086FDFCCF809178009091790027
:100DD000909362018093610181E080937C0093EAAB
:100DE00090937A0080937B009AC1C901875891093A
:100DF00084379940A0F010928100109285001092E3
:100E00008400409340014093840110926701109246
:100E10007C0083EA80937A0040937B0080C126584F
:100E20003109A4EFB0E00E9472098C012227332718
:100E3000083060F481E090E001C0880F0A95EAF77D
:100E400090919801892B8093980169C1409340014A
:100E500080918401882341F180917A0086FDFCCF46
:100E600080917800909179009093600180935F0168
:100E700010927C0083EA80937A0081E080937B006B
:100E800090919801992359F0109281001092850059
:100E900010928400809384011092670140C11092E7
:100EA000840110925E013BC180915E01E82FF0E069
:100EB000E657FE4F9091980190838F5F80935E017B
:100EC0008C3009F02CC11092810010928500109294
:100ED0008400409384011092670100919401109165
:100EE00095018AE891E00E94A2080817190709F005
:100EF00016C1E0919301E7FD0AC0E0910501F09170
:100F000006016FE571E08AE891E0099508C188E77C
:100F10008E0F833030F0539823981092B4001092C3
:100F2000B3008E2F90E0FC01E058F109EB30F105A1
:100F300008F0F5C0E55CFF4F0C946C0980916E00E1
:100F40008D7F80936E0016BCE0E0F0E702C0E0E029
:100F5000F0E0099510922201E2C081E0B2C085E084
:100F6000B0C082E0AEC080912201833009F4D7C0C6
:100F700080912201843009F4D2C0539A239A1092AE
:100F8000B4001092B30083E09CC080918A0182304B
:100F900009F44BC080F48823A9F0813009F082C0A5
:100FA00080918B0190918C0190939A01809399018B
:100FB0001092200177C0833009F449C0843009F4CD
:100FC00058C070C080912201863009F06BC06091DA
:100FD000990180EB90E00E94090C60919A0181EBED
:100FE00090E00E94090C60919D0185E090E00E94D4
:100FF000090C6091890189E090E00E94090C6091E0
:101000009B018CE090E00E94090C60919C0184E1BE
:1010100090E00E94090C539823981092B40010920B
:10102000B30081E0809322013DC090912001809126
:101030008D01913021F490919D01891799F11092C1
:10104000210191E09093200180939D012BC090910C
:10105000200180918E01923021F4909189018917AD
:1010600009F11092210192E090932001809389016F
:1010700019C0209120018091900190918F0123301F
:1010800041F420919C01821304C020919B0192178E
:1010900049F01092210123E02093200190939B01BD
:1010A00080939C0180918A018823C9F1809122015B
:1010B0008630A9F1539A239A1092B4001092B3008B
:1010C00086E0809322012BC080912201863081F03E
:1010D000539A239A1092B4001092B30080E00E94B9
:1010E0006705109220011092210186E08093220171
:1010F00081E090E000908A0102C0880F991F0A9455
:10110000E2F72091990130919A0182239323892B50
:1011100021F081E08093200102C010922001FF9114
:10112000EF91BF91AF919F918F917F916F915F915F
:101130004F913F912F911F910F910F900FBE0F90E4
:101140001F901895FC019C01265F3F4F8FEF9FEF8A
:1011500041918427082E8295807F8025092E982F23
:1011600082958F700826869598278927880F880F83
:10117000880F8025E217F30759F708950FB6F89402
:10118000A4B120915D012A2B24B921E030915D01A9
:10119000203029F0000025B1232B25B904C0000020
:1011A0000000000000C0000000000000309525B1E4
:1011B000232325B92EEA2A95F1F72BEE30B735FF18
:1011C0000AC0A4B930915D01309525B1232325B91A
:1011D0000FBE80E0089500002A9581F721E030914C
:1011E0005D01203029F0000025B1232B25B904C072
:1011F00000000000000000C000000000000030956A
:1012000025B1232325B9000024E52A95F1F7FC0137
:101210008CE0619170E0660F771F616072609AE008
:1012200041E050E09A0126233723232B30915D01C2
:10123000203029F0000025B1232B25B904C000007F
:101240000000000000C0000000000000309525B143
:10125000232325B9000021E52A95F1F7440F551FF6
:101260009A9501F78A95A9F620B7206120BFA4B905
:1012700030915D01309525B1232325B90FBE81E062
:1012800008950E948E0183EC90E090930601809374
:10129000050181E790E090930401809303016BE5E1
:1012A00071E085E890E00E94860580E090E0089576
:1012B00097FB072E16F4009407D077FD09D00E9403
:1012C000810907FC05D03EF4909581959F4F0895C4
:1012D000709561957F4F0895EE0FFF1F0590F49173
:1012E000E02D0994A29FB001B39FC001A39F700D90
:1012F000811D1124911DB29F700D811D1124911D1E
:101300000895AA1BBB1B51E107C0AA1FBB1FA6174C
:10131000B70710F0A61BB70B881F991F5A95A9F79E
:1013200080959095BC01CD0108955058BB27AA2700
:101330000E94AD090C94FE0A0E94F00A38F00E9447
:10134000F70A20F039F49F3F19F426F40C94ED0AC3
:101350000EF4E095E7FB0C94E70AE92F0E940F0BCF
:1013600058F3BA17620773078407950720F079F4DA
:10137000A6F50C94310B0EF4E0950B2EBA2FA02D90
:101380000B01B90190010C01CA01A0011124FF2732
:10139000591B99F0593F50F4503E68F11A16F0402D
:1013A000A22F232F342F4427585FF3CF469537952C
:1013B0002795A795F0405395C9F77EF41F16BA0BF1
:1013C000620B730B840BBAF09150A1F0FF0FBB1F9F
:1013D000661F771F881FC2F70EC0BA0F621F731FE8
:1013E000841F48F4879577956795B795F7959E3F45
:1013F00008F0B0CF9395880F08F09927EE0F9795D6
:10140000879508950E94160A0C94FE0A0E94F70A16
:1014100058F00E94F00A40F029F45F3F29F00C9444
:10142000E70A51110C94320B0C94ED0A0E940F0B39
:1014300068F39923B1F3552391F3951B550BBB2703
:10144000AA2762177307840738F09F5F5F4F220F48
:10145000331F441FAA1FA9F335D00E2E3AF0E0E83F
:1014600032D091505040E695001CCAF72BD0FE2F89
:1014700029D0660F771F881FBB1F2617370748071D
:10148000AB07B0E809F0BB0B802DBF01FF279358D5
:101490005F4F3AF09E3F510578F00C94E70A0C94A8
:1014A000320B5F3FE4F3983ED4F3869577956795CA
:1014B000B795F7959F5FC9F7880F911D969587950A
:1014C00097F90895E1E0660F771F881FBB1F621729
:1014D00073078407BA0720F0621B730B840BBA0BE7
:1014E000EE1F88F7E09508950E947B0A6894B11179
:1014F0000C94320B08950E94170B88F09F5798F0B8
:10150000B92F9927B751B0F0E1F0660F771F881F08
:10151000991F1AF0BA95C9F714C0B13091F00E9422
:10152000310BB1E008950C94310B672F782F882789
:10153000B85F39F0B93FCCF3869577956795B39549
:10154000D9F73EF490958095709561957F4F8F4FB8
:101550009F4F0895E89409C097FB3EF490958095BD
:10156000709561957F4F8F4F9F4F9923A9F0F92F69
:1015700096E9BB279395F695879577956795B795E7
:10158000F111F8CFFAF4BB0F11F460FF1BC06F5FCD
:101590007F4F8F4F9F4F16C0882311F096E911C0DF
:1015A000772321F09EE8872F762F05C0662371F000
:1015B00096E8862F70E060E02AF09A95660F771F14
:1015C000881FDAF7880F9695879597F9089597F908
:1015D0009F6780E870E060E008959FEF80EC0895D9
:1015E00000240A9416161706180609060895002402
:1015F0000A9412161306140605060895092E03947C
:10160000000C11F4882352F0BB0F40F4BF2B11F4EF
:1016100060FF04C06F5F7F4F8F4F9F4F089557FD4E
:101620009058440F551F59F05F3F71F04795880F50
:1016300097FB991F61F09F3F79F0879508951216E7
:1016400013061406551FF2CF4695F1DF08C0161693
:1016500017061806991FF1CF869571056105089444
:101660000895E894BB2766277727CB0197F908955B
:101670000E944B0B0C94FE0A0E94F00A38F00E9464
:10168000F70A20F0952311F00C94E70A0C94ED0A68
:1016900011240C94320B0E940F0B70F3959FC1F331
:1016A000950F50E0551F629FF001729FBB27F00D10
:1016B000B11D639FAA27F00DB11DAA1F649F662765
:1016C000B00DA11D661F829F2227B00DA11D621FB4
:1016D000739FB00DA11D621F839FA00D611D221F6E
:1016E000749F3327A00D611D231F849F600D211D52
:1016F000822F762F6A2F11249F5750409AF0F1F0D5
:1017000088234AF0EE0FFF1FBB1F661F771F881F3D
:1017100091505040A9F79E3F510580F00C94E70A84
:101720000C94320B5F3FE4F3983ED4F386957795A3
:101730006795B795F795E7959F5FC1F7FE2B880FE3
:10174000911D9695879597F908958F929F92AF92E4
:10175000BF92CF92DF92EF92FF92CF93DF93EC0193
:10176000688179818A819B81611571058105910567
:1017700021F464E279ED8BE597E02DE133EF41E070
:1017800050E00E94170C49015A019B01AC01A7EAE5
:10179000B1E40E94360C6B017C01ACEEB4EFA50104
:1017A00094010E94440CDC01CB018C0D9D1DAE1DEB
:1017B000BF1DB7FF03C00197A109B0488883998373
:1017C000AA83BB839F77DF91CF91FF90EF90DF904B
:1017D000CF90BF90AF909F908F9008950E94A50BDF
:1017E000089587E091E00E94A50B0895A0E0B0E085
:1017F0008093070190930801A0930901B0930A0117
:101800000895F999FECF92BD81BDF89A992780B5C8
:101810000895262FF999FECF1FBA92BD81BD20BD34
:101820000FB6F894FA9AF99A0FBE01960895052E0C
:1018300097FB1EF400940E942E0C57FD07D00E94C7
:10184000490C07FC03D04EF40C942E0C5095409597
:10185000309521953F4F4F4F5F4F0895909580955C
:10186000709561957F4F8F4F9F4F08950E94720929
:10187000A59F900DB49F900DA49F800D911D1124E4
:101880000895B7FF0C94360C0E94360C821B930B04
:101890000895A1E21A2EAA1BBB1BFD010DC0AA1FB1
:1018A000BB1FEE1FFF1FA217B307E407F50720F0C9
:1018B000A21BB30BE40BF50B661F771F881F991F44
:1018C0001A9469F760957095809590959B01AC018D
:0A18D000BD01CF010895F894FFCF89
:0C18DA00AA8D018A0189010100000000B4
:00000001FF
