:100000000C9446000C946F000C946F000C946F00DD
:100010000C946F000C946F000C94C7010C946F004B
:100020000C946F000C946F000C946F000C94E50519
:100030000C946F000C946F000C943F040C946F00B0
:100040000C946F000C946F000C946F000C946F0074
:100050000C946F000C946F000C946F000C940706C6
:100060000C946F000C946F00EE04450559058A0549
:10007000910570059405F206E307E307FB06FE060B
:100080000107030705070707B807190711241FBE53
:10009000CFEFD8E0DEBFCDBF14BE0FB6F894A89561
:1000A00080916000886180936000109260000FBEB4
:1000B00011E0A0E0B1E0E6E7F7E102C005900D92A3
:1000C000AC30B107D9F721E0ACE0B1E001C01D923E
:1000D000A537B207E1F70E9495080C94B90B0C9470
:1000E0000000089581E080930C01FB0180819181E3
:1000F000A281B3818093130190931401A093150101
:10010000B0931601089590910E01981701F1809314
:100110000E01813041F028F0823061F0833081F0AF
:10012000089560E011C00E94EE016091730180911A
:1001300072010BC00E94EE0160E08091740105C065
:100140000E94EE016091600180E00C94E901089545
:1001500080910D01883218F41092000108958C33BB
:1001600010F482E001C083E00C94830080910D01C3
:100170008C3320F081E080930001089581E00C949D
:10018000830080910C01882349F010920C0183E1D7
:1001900091E00E94C70280930D0104C080910D017F
:1001A000882351F080910001882321F0813021F4CF
:1001B0000C94A8000C94B6000895089580E090E097
:1001C00008950895DF92EF92FF920F931F93CF93BC
:1001D000DF93F89414B817B81AB815B818B81BB844
:1001E000529A5A9A14BC85E085BD8FEF87BD82E094
:1001F00080936E0010928000109281002FE83BE007
:10020000309389002093880080936F00539823983F
:1002100091EA9093B0008093B1001092B4001092D4
:10022000B3008BE080BF83E080937F0086E0809303
:100230007C0083E880937A0080917A0080648093C8
:100240007A0080917A0086FDFCCF10927C0083EAD0
:1002500080937A0081E080937B0081E090E00E94AF
:100260004F0B8F3F11F08093660010923E01C1E06A
:10027000C0931701C0935B011092350110926F017A
:1002800080E990E00E944F0B80933401809134010B
:10029000887311F0C093340110925F0110925E01D7
:1002A0008FEF90E090935D0180935C0110923A0192
:1002B00010923B0110923C0110923D0181E080932D
:1002C000120182E49FE090936E0180936D0180EBB8
:1002D00090E00E944F0BC82F81EB90E00E944F0BE3
:1002E0002C2F30E0382B309371012093700185E082
:1002F00090E00E944F0B8093740189E090E00E948F
:100300004F0B809360018CE090E00E944F0B809334
:10031000720184E190E00E944F0B809373010FE320
:1003200011E058E1E52E51E0F52EC0E2D0E0CE011B
:100330000E944F0BD82ECE0101960E944F0B2D2DFF
:1003400030E0322F2227282BF801219331938F019F
:10035000CE01C0960E944F0BD82ECE01C1960E94AE
:100360004F0B2D2D30E0322F2227282BF701219320
:1003700031937F012296CC33D105C9F67894DF9171
:10038000CF911F910F91FF90EF90DF9008951F92F2
:100390000F920FB60F9211248F930FB6F894A89571
:1003A00080916000886180936000109260000FBEB1
:1003B0008F910F900FBE0F901F901895009741F0EE
:1003C000EFECF7E03197F1F700C000000197F6CFAE
:1003D00008958093B3006093B40008958FEF8093E5
:1003E000B3008093B4008FE090E00C94DE01809124
:1003F0003E0181111EC0F89487E080937C0083E861
:1004000080937A0080917A00806480937A00809152
:100410007A0086FDFCCF809178009091790010924F
:100420007C0023EA20937A0021E020937B007894DB
:1004300008958FEF9FEF089580913E0181111EC0B6
:10044000F89488EC80937C0087E880937A00809110
:100450007A00806480937A0080917A0086FDFCCFD8
:10046000809178009091790010927C0023EA20938B
:100470007A0021E020937B00789408958FEF9FEF1E
:100480000895CF93DF9320E030E080E0E3EAF1E0ED
:10049000C6E0D3E8A1E0B0E090E0F894C0937C001F
:1004A000D0937A0040917A00406440937A00409162
:1004B0007A0046FDFCCF4091780050917900417060
:1004C00050917A00506450937A0050917A0056FD12
:1004D000FCCF609178007091790010927C00E093DD
:1004E0007A00F0937B0078949F5F6170461751F01B
:1004F000442359F0AD01022E01C0440F0A94EAF7DB
:10050000842B03C0903849F6F3CF2F5F3F4F28303C
:10051000310509F0C1CFDF91CF910895809101019C
:1005200098E0899F90011124282790910F0181E084
:10053000890F80930F01822F8295869587702827D7
:1005400096959695822F892780930101089580932F
:100550000101089580913E01811116C0F89486E052
:1005600080937C0083E880937A0080917A00806495
:1005700080937A0080917A0086FDFCCF809178008C
:1005800090917900789408958FEF9FEF08952F92BE
:100590003F924F925F926F927F928F929F92AF9213
:1005A000BF92CF92DF92EF92FF920F931F93CF9360
:1005B000DF931C01FC01C281D381C438F3E0DF0763
:1005C0000CF07EC080911801909119018C179D0745
:1005D00008F46FC0EAE1F1E011E0819191918C178C
:1005E0009D0720F01F5F1E30C1F71DE0812F90E0B6
:1005F000FC01EE0FFF1FE85EFE4FE080F180880FE8
:10060000991FFC01EA5EFE4F80819181B701681B52
:10061000790B80E090E00E94F8099B01AC010E94F8
:10062000E4084B015C01BE010D2E000C880B990BF8
:100630000E94FA092B013C01B70180E090E00E9482
:10064000F8096B017C01612F70E080E090E00E946E
:10065000F80920E030E040E05FE30E94860A20E0F5
:1006600030E0A9010E94E408A50194010E94860AD5
:100670009B01AC01C701B6010E94E3089B01AC01DC
:10068000C301B2010E94E30820E030E040E251E4FF
:100690000E94860A0E94C2097B01C501B4010E9422
:1006A000C209AB01BC01C701BA010E94A608162FFE
:1006B00001C010E0CD3B82E0D8070CF4CAC001C0F5
:1006C0001FEFF101C080D18080913F0190914001E6
:1006D0008C159D0588F0E1E4F1E081E090E0382E92
:1006E000E190F190EC14FD0408F458C001968E30AE
:1006F0009105A9F70AE501C000E01F3F09F44BC0CE
:10070000BE01DD0F880B990B0E94FA096B017C0179
:10071000612F70E080E090E00E94F8094B015C01DD
:10072000A701960160E070E081E694E40E94E3088E
:100730009B01AC01C501B4010E94860A4B015C011A
:10074000602F70E080E090E00E94F8092B013C01EE
:1007500020E030E04FE254E4C701B6010E94E30814
:100760009B01AC01C301B2010E94860A9B01AC014E
:10077000C501B4010E94E40820E030E048E453E4FD
:100780000E94500920E030E044E052E40E94E40876
:100790000E94C90960C061E2600F5DC0880F991FA7
:1007A000FC01E35CFE4F80819181B701681B790BEE
:1007B00080E090E00E94F8099B01AC010E94E408EF
:1007C0004B015C01B601DD0C880B990B0E94FA0904
:1007D0002B013C01B70180E090E00E94F8096B0119
:1007E0007C01632D70E080E090E00E94F80920E039
:1007F00030E040E05FE30E94860A20E030E0A9019B
:100800000E94E408A50194010E94860A9B01AC01A4
:10081000C701B6010E94E3089B01AC01C301B2010C
:100820000E94E30820E030E040E251E40E94860AA2
:100830000E94C2097B01C501B4010E94C209AB013B
:10084000BC01C701BA010E94A608062F6F3F09F03C
:1008500054CF61E2610F862FDF91CF911F910F91ED
:10086000FF90EF90DF90CF90BF90AF909F908F90D0
:100870007F906F905F904F903F902F9008951F92C0
:100880000F920FB60F9211242F933F934F935F93C4
:100890006F937F938F939F93AF93BF93EF93FF9348
:1008A00020915E0130915F0180915C0190915D012A
:1008B000820F931F90935F0180935E018FEF90E012
:1008C00090935D0180935C018FEF87BD80913A0129
:1008D00090913B01A0913C01B0913D010196A11D79
:1008E000B11D80933A0190933B01A0933C01B093DA
:1008F0003D0180913E0181112DC080916D0190914B
:100900006E0120915E0130915F018217930710F50F
:10091000809112018430F1F4E0910401F09105011D
:1009200009950097B9F00E941208882351F0E091D0
:100930000201F0910301099510925F0110925E018E
:1009400009C00E943F0B9C01332730935D01209327
:100950005C0187BDFF91EF91BF91AF919F918F9106
:100960007F916F915F914F913F912F910F900FBEAB
:100970000F901F90189580FF02C0559A01C055989E
:1009800081FF02C0549A01C0549882FF02C03B9A72
:1009900001C03B9883FF02C03A9A01C03A9884FF95
:1009A00002C03D9A01C03D9885FF02C03C9A08955F
:1009B0003C9808958C017B01D0E0CFEF84E0D82EE5
:1009C00098E1C92E29E2B22EE0911201F0E0E73061
:1009D000F105D0F7EC5CFF4F0C94BA08F89480B79F
:1009E000877F80BF80917A008F7780937A0014B8D8
:1009F00017B81AB815B818B81BB80FB6F894A89558
:100A0000C09260000FBEB092600080916000806470
:100A10008093600083B7817F846083BFF89483B73D
:100A2000816083BF7894889583B78E7F83BF7894E5
:100A300010923E01529A5A9A80917A00806880936F
:100A40007A0087E592E00197F1F700C0000080B7D7
:100A5000886180BF8FE30E94BB04EFE1FEE4319721
:100A6000F1F700C0000080913E01882309F450C0D6
:100A700083E00E94BB04FFEF20E782E0F1502040BA
:100A80008040E1F700C0000043C08CE00E94BB043E
:100A9000EFECF7E03197F1F700C0000080E00E9432
:100AA000BB04FFEF21EE84E0F15020408040E1F7ED
:100AB0002CC00E94AA028B3AE2E09E0724F08CE050
:100AC0000E94BB0481CF8938F2E09F0714F080E3D5
:100AD000F7CF8736924014F08FE0F2CF83E0F0CF6B
:100AE000489916C081E00E94BB048FEC97E0019703
:100AF000F1F700C0000080E00E94BB049FEFE1EE30
:100B0000F4E09150E040F040E1F700C000005CCF1D
:100B100080E0D6CFD11102C0F8010995D092120120
:100B2000D1E0F701099550CF80911001811107C0E4
:100B30001092B3001092B4001092110145CF909121
:100B4000100180911101981709F43ECF8091100196
:100B50008093110180911001813089F4C093B3001A
:100B60001092B4008FE295E70197F1F700C0000002
:100B7000809174018093B3001092B40025CF8091CE
:100B800010011092B300C093B400823059F4EFE228
:100B9000F5E73197F1F700C00000809160011092F5
:100BA000B30010C0C093B300C093B4008FE295E7C8
:100BB0000197F1F700C000008091730190917201DC
:100BC0009093B3008093B400FFCE1F920F920FB6A4
:100BD0000F9211248F939F931092810010928500A1
:100BE0001092840081E08093170180935B01109242
:100BF0003E0110927C0093EA90937A0080937B00F0
:100C00009F918F910F900FBE0F901F9018951F927C
:100C10000F920FB60F9211240F931F932F933F93B0
:100C20004F935F936F937F938F939F93AF93BF93F4
:100C3000EF93FF93209184003091850041E0409331
:100C40003E0180911701882321F1109285001092B6
:100C500084004093810010926F01109217018091DF
:100C60005B01882309F4AFC180917A0086FDFCCF37
:100C700080917800909179009093390180933801A8
:100C800081E080937C0093EA90937A0080937B00CC
:100C90009AC1C9018758910984379940A0F01092F0
:100CA00081001092850010928400409317014093B8
:100CB0005B0110923E0110927C0083EA80937A00DF
:100CC00040937B0080C126583109A4EFB0E00E9418
:100CD000C0088C0122273327083060F481E090E0BF
:100CE00001C0880F0A95EAF790916F01892B8093D4
:100CF0006F0169C14093170180915B01882341F125
:100D000080917A0086FDFCCF8091780090917900E7
:100D1000909337018093360110927C0083EA809390
:100D20007A0081E080937B0090916F01992359F0C4
:100D300010928100109285001092840080935B01D4
:100D400010923E0140C110925B01109235013BC1EF
:100D500080913501E82FF0E0EF59FE4F90916F013F
:100D600090838F5F809335018C3009F02CC11092F5
:100D70008100109285001092840040935B011092D4
:100D80003E0100916B0110916C0181E691E00E949F
:100D9000F6070817190709F016C1E0916A01E7FD87
:100DA0000AC0E0910601F091070166E371E081E677
:100DB00091E0099508C188E78E0F833030F0539891
:100DC00023981092B4001092B3008E2F90E0FC0193
:100DD000E058F109EB30F10508F0F5C0E55CFF4F94
:100DE0000C94BA0880916E008D7F80936E0016BCC3
:100DF000E0E0F0E702C0E0E0F0E0099510921201B7
:100E0000E2C081E0B2C085E0B0C082E0AEC08091B7
:100E10001201833009F4D7C080911201843009F4A3
:100E2000D2C0539A239A1092B4001092B30083E078
:100E30009CC080916101823009F44BC080F488230A
:100E4000A9F0813009F082C0809162019091630124
:100E500090937101809370011092100177C08330DC
:100E600009F449C0843009F458C070C0809112015F
:100E7000863009F06BC06091700180EB90E00E94B9
:100E8000570B6091710181EB90E00E94570B6091CC
:100E9000740185E090E00E94570B6091600189E049
:100EA00090E00E94570B609172018CE090E00E94EC
:100EB000570B6091730184E190E00E94570B5398A7
:100EC00023981092B4001092B30081E08093120135
:100ED0003DC09091100180916401913021F4909176
:100EE0007401891799F11092110191E0909310010A
:100EF000809374012BC09091100180916501923014
:100F000021F490916001891709F11092110192E08A
:100F1000909310018093600119C02091100180917D
:100F2000670190916601233041F42091730182138F
:100F300004C020917201921749F01092110123E030
:100F4000209310019093720180937301809161014D
:100F50008823C9F1809112018630A9F1539A239A0E
:100F60001092B4001092B30086E0809312012BC05F
:100F700080911201863081F0539A239A1092B40026
:100F80001092B30080E00E94BB04109210011092F6
:100F9000110186E08093120181E090E000906101F0
:100FA00002C0880F991F0A94E2F7209170013091D6
:100FB000710182239323892B21F081E0809310011A
:100FC00002C010921001FF91EF91BF91AF919F91DC
:100FD0008F917F916F915F914F913F912F911F91D1
:100FE0000F910F900FBE0F901F901895FC019C0160
:100FF000265F3F4F8FEF9FEF41918427082E829508
:10100000807F8025092E982F82958F7008268695DF
:1010100098278927880F880F880F8025E217F30704
:1010200059F708950FB6F894A4B1209134012A2BF2
:1010300024B921E030913401203029F0000025B19D
:10104000232B25B904C000000000000000C00000F0
:1010500000000000309525B1232325B92EEA2A95FA
:10106000F1F72BEE30B735FF0AC0A4B93091340147
:10107000309525B1232325B90FBE80E008950000E7
:101080002A9581F721E030913401203029F00000C9
:1010900025B1232B25B904C000000000000000C0CA
:1010A000000000000000309525B1232325B9000081
:1010B00024E52A95F1F7FC018CE0619170E0660F60
:1010C000771F616072609AE041E050E09A01262348
:1010D0003723232B30913401203029F0000025B133
:1010E000232B25B904C000000000000000C0000050
:1010F00000000000309525B1232325B9000021E52B
:101100002A95F1F7440F551F9A9501F78A95A9F68C
:1011100020B7206120BFA4B930913401309525B1AA
:10112000232325B90FBE81E008950E94E20082E7E3
:1011300090E0909307018093060161EC70E081E7F5
:1011400090E00E94DA0480E090E0089597FB072E7B
:1011500016F4009407D077FD09D00E94CF0807FC51
:1011600005D03EF4909581959F4F089570956195B7
:101170007F4F0895EE0FFF1F0590F491E02D099425
:10118000A29FB001B39FC001A39F700D811D1124C8
:10119000911DB29F700D811D1124911D0895AA1BF0
:1011A000BB1B51E107C0AA1FBB1FA617B70710F052
:1011B000A61BB70B881F991F5A95A9F78095909584
:1011C000BC01CD0108955058BB27AA270E94FB08F7
:1011D0000C944C0A0E943E0A38F00E94450A20F006
:1011E00039F49F3F19F426F40C943B0A0EF4E09571
:1011F000E7FB0C94350AE92F0E945D0A58F3BA17F1
:10120000620773078407950720F079F4A6F50C941C
:101210007F0A0EF4E0950B2EBA2FA02D0B01B90119
:1012200090010C01CA01A0011124FF27591B99F05C
:10123000593F50F4503E68F11A16F040A22F232F68
:10124000342F4427585FF3CF469537952795A795B8
:10125000F0405395C9F77EF41F16BA0B620B730B5F
:10126000840BBAF09150A1F0FF0FBB1F661F771FD0
:10127000881FC2F70EC0BA0F621F731F841F48F485
:10128000879577956795B795F7959E3F08F0B0CF0E
:101290009395880F08F09927EE0F979587950895F5
:1012A0000E9464090C944C0A0E94450A58F00E945E
:1012B0003E0A40F029F45F3F29F00C94350A5111A1
:1012C0000C94800A0C943B0A0E945D0A68F39923EF
:1012D000B1F3552391F3951B550BBB27AA27621732
:1012E0007307840738F09F5F5F4F220F331F441F3F
:1012F000AA1FA9F335D00E2E3AF0E0E832D0915073
:101300005040E695001CCAF72BD0FE2F29D0660F5F
:10131000771F881FBB1F261737074807AB07B0E8A2
:1013200009F0BB0B802DBF01FF2793585F4F3AF0A8
:101330009E3F510578F00C94350A0C94800A5F3F6B
:10134000E4F3983ED4F3869577956795B795F7952E
:101350009F5FC9F7880F911D9695879597F9089516
:10136000E1E0660F771F881FBB1F621773078407B2
:10137000BA0720F0621B730B840BBA0BEE1F88F7C1
:10138000E09508950E94C9096894B1110C94800AEF
:1013900008950E94650A88F09F5798F0B92F992701
:1013A000B751B0F0E1F0660F771F881F991F1AF050
:1013B000BA95C9F714C0B13091F00E947F0AB1E02C
:1013C00008950C947F0A672F782F8827B85F39F02B
:1013D000B93FCCF3869577956795B395D9F73EF4E9
:1013E00090958095709561957F4F8F4F9F4F089591
:1013F000E89409C097FB3EF49095809570956195AF
:101400007F4F8F4F9F4F9923A9F0F92F96E9BB2764
:101410009395F695879577956795B795F111F8CFE0
:10142000FAF4BB0F11F460FF1BC06F5F7F4F8F4F4B
:101430009F4F16C0882311F096E911C0772321F041
:101440009EE8872F762F05C0662371F096E8862FD9
:1014500070E060E02AF09A95660F771F881FDAF730
:10146000880F9695879597F9089597F99F6780E873
:1014700070E060E008959FEF80EC089500240A94E6
:101480001616170618060906089500240A9412165F
:101490001306140605060895092E0394000C11F492
:1014A000882352F0BB0F40F4BF2B11F460FF04C03F
:1014B0006F5F7F4F8F4F9F4F089557FD9058440F98
:1014C000551F59F05F3F71F04795880F97FB991FA3
:1014D00061F09F3F79F08795089512161306140660
:1014E000551FF2CF4695F1DF08C0161617061806ED
:1014F000991FF1CF86957105610508940895E894C8
:10150000BB2766277727CB0197F908950E94990A90
:101510000C944C0A0E943E0A38F00E94450A20F0C2
:10152000952311F00C94350A0C943B0A11240C9469
:10153000800A0E945D0A70F3959FC1F3950F50E0F9
:10154000551F629FF001729FBB27F00DB11D639F75
:10155000AA27F00DB11DAA1F649F6627B00DA11D1B
:10156000661F829F2227B00DA11D621F739FB00DC1
:10157000A11D621F839FA00D611D221F749F332731
:10158000A00D611D231F849F600D211D822F762FCA
:101590006A2F11249F5750409AF0F1F088234AF0A7
:1015A000EE0FFF1FBB1F661F771F881F9150504013
:1015B000A9F79E3F510580F00C94350A0C94800ADF
:1015C0005F3FE4F3983ED4F3869577956795B7959A
:1015D000F795E7959F5FC1F7FE2B880F911D9695B4
:1015E000879597F908958F929F92AF92BF92CF926D
:1015F000DF92EF92FF92CF93DF93EC0168817981C4
:101600008A819B81611571058105910521F464E250
:1016100079ED8BE597E02DE133EF41E050E00E945A
:10162000650B49015A019B01AC01A7EAB1E40E9494
:10163000840B6B017C01ACEEB4EFA50194010E9418
:10164000920BDC01CB018C0D9D1DAE1DBF1DB7FFA4
:1016500003C00197A109B04888839983AA83BB83FB
:101660009F77DF91CF91FF90EF90DF90CF90BF9069
:10167000AF909F908F9008950E94F30A089588E09C
:1016800091E00E94F30A0895A0E0B0E08093080181
:1016900090930901A0930A01B0930B010895F99961
:1016A000FECF92BD81BDF89A992780B50895262F67
:1016B000F999FECF1FBA92BD81BD20BD0FB6F89437
:1016C000FA9AF99A0FBE01960895052E97FB1EF41B
:1016D00000940E947C0B57FD07D00E94970B07FCDB
:1016E00003D04EF40C947C0B509540953095219589
:1016F0003F4F4F4F5F4F089590958095709561953E
:101700007F4F8F4F9F4F08950E94C008A59F900D57
:10171000B49F900DA49F800D911D11240895B7FFD3
:101720000C94840B0E94840B821B930B0895A1E2FE
:101730001A2EAA1BBB1BFD010DC0AA1FBB1FEE1F4B
:10174000FF1FA217B307E407F50720F0A21BB30B96
:10175000E40BF50B661F771F881F991F1A9469F712
:1017600060957095809590959B01AC01BD01CF016E
:061770000895F894FFCF7C
:0C17760001AAE100DE00DD00010000001F
:00000001FF
