:100000000C9446000C946F000C946F000C946F00DD
:100010000C946F000C946F000C9408020C946F0009
:100020000C946F000C946F000C946F000C942606D7
:100030000C946F000C946F000C9480040C946F006F
:100040000C946F000C946F000C946F000C946F0074
:100050000C946F000C946F000C946F000C94480685
:100060000C946F000C946F002F0586059A05CB0544
:10007000D205B105D5053307240824083C073F07FE
:100080004207440746074807F9075A0711241FBECD
:10009000CFEFD8E0DEBFCDBF14BE0FB6F894A89561
:1000A00080916000886180936000109260000FBEB4
:1000B00011E0A0E0B1E0E4E0F8E102C005900D92AB
:1000C000AC30B107D9F721E0ACE0B1E001C01D923E
:1000D000A338B207E1F70E94D6080C94000C0C94E8
:1000E0000000CF93DF93C4E1D1E0198680917E01B7
:1000F0008883CE010E9437089B878A87CE01DF91D3
:10010000CF91089510921D0180917E01809314017A
:1001100010921501109216011092170110921801F9
:100120001092190110921A0110921B0184E191E0C2
:100130000E94370890931F0180931E0180917E01D9
:1001400090917F018130910511F481E008C08230E7
:10015000910511F484E003C0039719F480E10C9435
:10016000FC040895FC01808180932201833041F4D6
:10017000CB010E94080390E090932101809320011D
:1001800081E080930F01089520910D0130910E01BF
:100190002817390721F190930E0180930D010097E4
:1001A00011F460E019C08130910539F40E942F02EA
:1001B000609181018091800110C08230910531F4FD
:1001C0000E942F0260E08091820107C0039739F4FA
:1001D0000E942F0260916E0180E00C942A02089523
:1001E000CF93C0910F01C13039F510920F0180916A
:1001F0007E0190917F010297F9F480910C018111A9
:100200001BC084E00E94FC04809120019091210198
:100210008035910544F484E00E94FC0481E090E084
:10022000CF910C94C40080E090E00E94C40085E16E
:100230000E94FC04C0930C01CF910895089580E0C2
:1002400090E008950895DF92EF92FF920F931F932D
:10025000CF93DF93F89414B817B81AB815B818B834
:100260001BB8529A5A9A14BC85E085BD8FEF87BDA2
:1002700082E080936E0010928000109281002FE83F
:100280003BE0309389002093880080936F0053985F
:10029000239891EA9093B0008093B1001092B4003B
:1002A0001092B3008BE080BF83E080937F0086E0F4
:1002B00080937C0083E880937A0080917A00806448
:1002C00080937A0080917A0086FDFCCF10927C00AA
:1002D00083EA80937A0081E080937B0081E090E064
:1002E0000E94960B8F3F11F08093660010924C0194
:1002F000C1E0C0932501C09369011092430110929F
:100300007D0180E990E00E94960B809342018091EC
:100310004201887311F0C093420110926D01109256
:100320006C018FEF90E090936B0180936A011092C3
:1003300048011092490110924A0110924B0181E04C
:100340008093130182E49FE090937C0180937B0172
:1003500080EB90E00E94960BC82F81EB90E00E940A
:10036000960B2C2F30E0382B30937F0120937E01A9
:1003700085E090E00E94960B8093820189E090E0F6
:100380000E94960B80936E018CE090E00E94960B89
:100390008093800184E190E00E94960B809381011C
:1003A0000DE411E056E2E52E51E0F52EC0E2D0E07A
:1003B000CE010E94960BD82ECE0101960E94960B7C
:1003C0002D2D30E0322F2227282BF8012193319355
:1003D0008F01CE01C0960E94960BD82ECE01C196F9
:1003E0000E94960B2D2D30E0322F2227282BF7016B
:1003F000219331937F012296CC33D105C9F67894AD
:10040000DF91CF911F910F91FF90EF90DF900895B2
:100410001F920F920FB60F9211248F930FB6F8947C
:10042000A8958091600088618093600010926000C0
:100430000FBE8F910F900FBE0F901F9018950097D1
:1004400041F0EFECF7E03197F1F700C000000197C1
:10045000F6CF08958093B3006093B40008958FEFB2
:100460008093B3008093B4008FE090E00C941F025F
:1004700080914C0181111EC0F89487E080937C002C
:1004800083E880937A0080917A00806480937A0078
:1004900080917A0086FDFCCF809178009091790060
:1004A00010927C0023EA20937A0021E020937B00C5
:1004B000789408958FEF9FEF089580914C018111FA
:1004C0001EC0F89488EC80937C0087E880937A00C3
:1004D00080917A00806480937A0080917A0086FD12
:1004E000FCCF809178009091790010927C0023EAF3
:1004F00020937A0021E020937B00789408958FEF79
:100500009FEF0895CF93DF9320E030E080E0E3EAAF
:10051000F1E0C6E0D3E8A1E0B0E090E0F894C09349
:100520007C00D0937A0040917A00406440937A0036
:1005300040917A0046FDFCCF4091780050917900BF
:10054000417050917A00506450937A0050917A0033
:1005500056FDFCCF609178007091790010927C007C
:10056000E0937A00F0937B0078949F5F6170461768
:1005700051F0442359F0AD01022E01C0440F0A94FA
:10058000EAF7842B03C0903849F6F3CF2F5F3F4F33
:100590002830310509F0C1CFDF91CF9108958091C6
:1005A000000198E0899F9001112428279091100163
:1005B00081E0890F80931001822F82958695877044
:1005C000282796959695822F892780930001089574
:1005D00080930001089580914C01811116C0F89418
:1005E00086E080937C0083E880937A0080917A0093
:1005F000806480937A0080917A0086FDFCCF8091A0
:10060000780090917900789408958FEF9FEF089586
:100610002F923F924F925F926F927F928F929F9212
:10062000AF92BF92CF92DF92EF92FF920F931F9300
:10063000CF93DF931C01FC01C281D381C438F3E066
:10064000DF070CF07EC080912601909127018C1766
:100650009D0708F46FC0E8E2F1E011E0819191910B
:100660008C179D0720F01F5F1E30C1F71DE0812F02
:1006700090E0FC01EE0FFF1FEA5DFE4FE080F1808D
:10068000880F991FFC01EC5DFE4F80819181B701BD
:10069000681B790B80E090E00E943F0A9B01AC014F
:1006A0000E942B094B015C01BE010D2E000C880B32
:1006B000990B0E94410A2B013C01B70180E090E0B8
:1006C0000E943F0A6B017C01612F70E080E090E0A6
:1006D0000E943F0A20E030E040E05FE30E94CD0A44
:1006E00020E030E0A9010E942B09A50194010E949D
:1006F000CD0A9B01AC01C701B6010E942A099B01EA
:10070000AC01C301B2010E942A0920E030E040E2BE
:1007100051E40E94CD0A0E94090A7B01C501B4017F
:100720000E94090AAB01BC01C701BA010E94ED0891
:10073000162F01C010E0CD3B82E0D8070CF4CAC0F0
:1007400001C01FEFF101C080D18080914D019091D7
:100750004E018C159D0588F0EFE4F1E081E090E01A
:10076000382EE190F190EC14FD0408F458C0019685
:100770008E309105A9F70AE501C000E01F3F09F49A
:100780004BC0BE01DD0F880B990B0E94410A6B0123
:100790007C01612F70E080E090E00E943F0A4B01F5
:1007A0005C01A701960160E070E081E694E40E949C
:1007B0002A099B01AC01C501B4010E94CD0A4B017D
:1007C0005C01602F70E080E090E00E943F0A2B0106
:1007D0003C0120E030E04FE254E4C701B6010E9442
:1007E0002A099B01AC01C301B2010E94CD0A9B0101
:1007F000AC01C501B4010E942B0920E030E048E4BF
:1008000053E40E94970920E030E044E052E40E9463
:100810002B090E94100A60C061E2600F5DC0880F62
:10082000991FFC01E55BFE4F80819181B701681B38
:10083000790B80E090E00E943F0A9B01AC010E948E
:100840002B094B015C01B601DD0C880B990B0E9452
:10085000410A2B013C01B70180E090E00E943F0A71
:100860006B017C01632D70E080E090E00E943F0A04
:1008700020E030E040E05FE30E94CD0A20E030E07D
:10088000A9010E942B09A50194010E94CD0A9B0198
:10089000AC01C701B6010E942A099B01AC01C3014A
:1008A000B2010E942A0920E030E040E251E40E94B7
:1008B000CD0A0E94090A7B01C501B4010E94090A00
:1008C000AB01BC01C701BA010E94ED08062F6F3FC2
:1008D00009F054CF61E2610F862FDF91CF911F9114
:1008E0000F91FF90EF90DF90CF90BF90AF909F90CF
:1008F0008F907F906F905F904F903F902F900895D2
:100900001F920F920FB60F9211242F933F934F9384
:100910005F936F937F938F939F93AF93BF93EF9367
:10092000FF9320916C0130916D0180916A0190914B
:100930006B01820F931F90936D0180936C018FEF79
:1009400090E090936B0180936A018FEF87BD809157
:10095000480190914901A0914A01B0914B01019643
:10096000A11DB11D8093480190934901A0934A01B4
:10097000B0934B0180914C0181112DC080917B017E
:1009800090917C0120916C0130916D018217930749
:1009900010F5809113018430F1F4E0910301F0919E
:1009A000040109950097B9F00E945308882351F07B
:1009B000E0910101F0910201099510926D011092F0
:1009C0006C0109C00E94860B9C01332730936B0198
:1009D00020936A0187BDFF91EF91BF91AF919F91E5
:1009E0008F917F916F915F914F913F912F910F90D8
:1009F0000FBE0F901F90189580FF02C0559A01C03E
:100A0000559881FF02C0549A01C0549882FF02C0D9
:100A10003B9A01C03B9883FF02C03A9A01C03A98C2
:100A200084FF02C03D9A01C03D9885FF02C03C9AF8
:100A300008953C9808958C017B01D0E0CFEF84E0CD
:100A4000D82E98E1C92E29E2B22EE0911301F0E0F0
:100A5000E730F105D0F7EC5CFF4F0C940109F894F6
:100A600080B7877F80BF80917A008F7780937A00EC
:100A700014B817B81AB815B818B81BB80FB6F89448
:100A8000A895C09260000FBEB09260008091600097
:100A900080648093600083B7817F846083BFF89413
:100AA00083B7816083BF7894889583B78E7F83BF37
:100AB000789410924C01529A5A9A80917A008068E8
:100AC00080937A0087E592E00197F1F700C000007B
:100AD00080B7886180BF8FE30E94FC04EFE1FEE4F1
:100AE0003197F1F700C0000080914C01882309F490
:100AF00050C083E00E94FC04FFEF20E782E0F15049
:100B000020408040E1F700C0000043C08CE00E941C
:100B1000FC04EFECF7E03197F1F700C0000080E053
:100B20000E94FC04FFEF21EE84E0F1502040804061
:100B3000E1F72CC00E94EB028B3AE2E09E0724F022
:100B40008CE00E94FC0481CF8938F2E09F0714F00A
:100B500080E3F7CF8736924014F08FE0F2CF83E046
:100B6000F0CF489916C081E00E94FC048FEC97E01A
:100B70000197F1F700C0000080E00E94FC049FEFA5
:100B8000E1EEF4E09150E040F040E1F700C00000F9
:100B90005CCF80E0D6CFD11102C0F8010995D09288
:100BA0001301D1E0F701099550CF80911101811116
:100BB00007C01092B3001092B4001092120145CFFA
:100BC0009091110180911201981709F43ECF809104
:100BD00011018093120180911101813089F4C09339
:100BE000B3001092B4008FE295E70197F1F700C0CF
:100BF0000000809182018093B3001092B40025CF51
:100C0000809111011092B300C093B400823059F466
:100C1000EFE2F5E73197F1F700C0000080916E0137
:100C20001092B30010C0C093B300C093B4008FE221
:100C300095E70197F1F700C0000080918101909144
:100C400080019093B3008093B400FFCE1F920F9267
:100C50000FB60F9211248F939F93109281001092E0
:100C600085001092840081E08093250180936901C2
:100C700010924C0110927C0093EA90937A0080933A
:100C80007B009F918F910F900FBE0F901F90189532
:100C90001F920F920FB60F9211240F931F932F9351
:100CA0003F934F935F936F937F938F939F93AF93F4
:100CB000BF93EF93FF93209184003091850041E032
:100CC00040934C0180912501882321F110928500E9
:100CD000109284004093810010927D0110922501B2
:100CE00080916901882309F4AFC180917A0086FD63
:100CF000FCCF809178009091790090934701809388
:100D0000460181E080937C0093EA90937A0080937F
:100D10007B009AC1C9018758910984379940A0F096
:100D2000109281001092850010928400409325015A
:100D30004093690110924C0110927C0083EA8093E9
:100D40007A0040937B0080C126583109A4EFB0E0BF
:100D50000E9407098C0122273327083060F481E0C4
:100D600090E001C0880F0A95EAF790917D01892BE8
:100D700080937D0169C14093250180916901882399
:100D800041F180917A0086FDFCCF809178009091AE
:100D90007900909345018093440110927C0083EA8E
:100DA00080937A0081E080937B0090917D0199236C
:100DB00059F0109281001092850010928400809367
:100DC000690110924C0140C11092690110924301D7
:100DD0003BC180914301E82FF0E0E159FE4F909133
:100DE0007D0190838F5F809343018C3009F02CC18B
:100DF0001092810010928500109284004093690146
:100E000010924C010091790110917A018FE691E0E6
:100E10000E9437080817190709F016C1E0917801F8
:100E2000E7FD0AC0E0910501F091060164E471E07C
:100E30008FE691E0099508C188E78E0F833030F086
:100E4000539823981092B4001092B3008E2F90E024
:100E5000FC01E058F109EB30F10508F0F5C0E55C64
:100E6000FF4F0C94010980916E008D7F80936E007E
:100E700016BCE0E0F0E702C0E0E0F0E00995109277
:100E80001301E2C081E0B2C085E0B0C082E0AEC034
:100E900080911301833009F4D7C08091130184300D
:100EA00009F4D2C0539A239A1092B4001092B3005E
:100EB00083E09CC080916F01823009F44BC080F4C4
:100EC0008823A9F0813009F082C08091700190914F
:100ED000710190937F0180937E011092110177C080
:100EE000833009F449C0843009F458C070C080913F
:100EF0001301863009F06BC060917E0180EB90E0B9
:100F00000E949E0B60917F0181EB90E00E949E0BFE
:100F10006091820185E090E00E949E0B60916E01DD
:100F200089E090E00E949E0B609180018CE090E04F
:100F30000E949E0B6091810184E190E00E949E0BD3
:100F4000539823981092B4001092B30081E08093DC
:100F500013013DC09091110180917201913021F4F3
:100F600090918201891799F11092120191E090936A
:100F70001101809382012BC0909111018091730126
:100F8000923021F490916E01891709F110921201AB
:100F900092E09093110180936E0119C0209111018C
:100FA0008091750190917401233041F42091810169
:100FB000821304C020918001921749F0109212010F
:100FC00023E020931101909380018093810180910F
:100FD0006F018823C9F1809113018630A9F1539ADA
:100FE000239A1092B4001092B30086E0809313010C
:100FF0002BC080911301863081F0539A239A10926E
:10100000B4001092B30080E00E94FC041092110121
:101010001092120186E08093130181E090E000902D
:101020006F0102C0880F991F0A94E2F720917E0198
:1010300030917F0182239323892B21F081E08093DB
:10104000110102C010921101FF91EF91BF91AF9178
:101050009F918F917F916F915F914F913F912F91D0
:101060001F910F910F900FBE0F901F901895FC01CC
:101070009C01265F3F4F8FEF9FEF41918427082E01
:101080008295807F8025092E982F82958F70082663
:10109000869598278927880F880F880F8025E21763
:1010A000F30759F708950FB6F894A4B120914201BF
:1010B0002A2B24B921E030914201203029F0000090
:1010C00025B1232B25B904C000000000000000C09A
:1010D000000000000000309525B1232325B92EEA39
:1010E0002A95F1F72BEE30B735FF0AC0A4B930913D
:1010F0004201309525B1232325B90FBE80E0089524
:1011000000002A9581F721E030914201203029F03A
:10111000000025B1232B25B904C000000000000009
:1011200000C0000000000000309525B1232325B940
:10113000000024E52A95F1F7FC018CE0619170E054
:10114000660F771F616072609AE041E050E09A019B
:1011500026233723232B30914201203029F0000031
:1011600025B1232B25B904C000000000000000C0F9
:10117000000000000000309525B1232325B90000B0
:1011800021E52A95F1F7440F551F9A9501F78A95A5
:10119000A9F620B7206120BFA4B930914201309553
:1011A00025B1232325B90FBE81E008950E942301B4
:1011B00082EB90E0909306018093050181E790E037
:1011C000909304018093030160EF70E082E890E067
:1011D0000E941B0580E090E0089597FB072E16F40F
:1011E000009407D077FD09D00E94160907FC05D0AE
:1011F0003EF4909581959F4F0895709561957F4F2E
:101200000895EE0FFF1F0590F491E02D0994A29F21
:10121000B001B39FC001A39F700D811D1124911DCA
:10122000B29F700D811D1124911D0895AA1BBB1B37
:1012300051E107C0AA1FBB1FA617B70710F0A61BD6
:10124000B70B881F991F5A95A9F780959095BC01F7
:10125000CD0108955058BB27AA270E9442090C943B
:10126000930A0E94850A38F00E948C0A20F039F413
:101270009F3F19F426F40C94820A0EF4E095E7FBE4
:101280000C947C0AE92F0E94A40A58F3BA1762074B
:1012900073078407950720F079F4A6F50C94C60A25
:1012A0000EF4E0950B2EBA2FA02D0B01B901900181
:1012B0000C01CA01A0011124FF27591B99F0593FC5
:1012C00050F4503E68F11A16F040A22F232F342F0D
:1012D0004427585FF3CF469537952795A795F0405B
:1012E0005395C9F77EF41F16BA0B620B730B840B70
:1012F000BAF09150A1F0FF0FBB1F661F771F881F28
:10130000C2F70EC0BA0F621F731F841F48F487957F
:1013100077956795B795F7959E3F08F0B0CF939571
:10132000880F08F09927EE0F9795879508950E94EA
:10133000AB090C94930A0E948C0A58F00E94850A0B
:1013400040F029F45F3F29F00C947C0A51110C9471
:10135000C70A0C94820A0E94A40A68F39923B1F385
:10136000552391F3951B550BBB27AA2762177307CB
:10137000840738F09F5F5F4F220F331F441FAA1F5F
:10138000A9F335D00E2E3AF0E0E832D0915050401B
:10139000E695001CCAF72BD0FE2F29D0660F771FC9
:1013A000881FBB1F261737074807AB07B0E809F0AF
:1013B000BB0B802DBF01FF2793585F4F3AF09E3F34
:1013C000510578F00C947C0A0C94C70A5F3FE4F353
:1013D000983ED4F3869577956795B795F7959F5F77
:1013E000C9F7880F911D9695879597F90895E1E0C3
:1013F000660F771F881FBB1F621773078407BA0722
:1014000020F0621B730B840BBA0BEE1F88F7E0957C
:1014100008950E94100A6894B1110C94C70A0895A7
:101420000E94AC0A88F09F5798F0B92F9927B751BE
:10143000B0F0E1F0660F771F881F991F1AF0BA9578
:10144000C9F714C0B13091F00E94C60AB1E0089506
:101450000C94C60A672F782F8827B85F39F0B93FF8
:10146000CCF3869577956795B395D9F73EF490952B
:101470008095709561957F4F8F4F9F4F0895E894A9
:1014800009C097FB3EF490958095709561957F4FCC
:101490008F4F9F4F9923A9F0F92F96E9BB2793957A
:1014A000F695879577956795B795F111F8CFFAF48A
:1014B000BB0F11F460FF1BC06F5F7F4F8F4F9F4FBB
:1014C00016C0882311F096E911C0772321F09EE819
:1014D000872F762F05C0662371F096E8862F70E07F
:1014E00060E02AF09A95660F771F881FDAF7880F59
:1014F0009695879597F9089597F99F6780E870E02A
:1015000060E008959FEF80EC089500240A94161679
:10151000170618060906089500240A9412161306E1
:10152000140605060895092E0394000C11F488236F
:1015300052F0BB0F40F4BF2B11F460FF04C06F5F8B
:101540007F4F8F4F9F4F089557FD9058440F551F61
:1015500059F05F3F71F04795880F97FB991F61F035
:101560009F3F79F087950895121613061406551FAC
:10157000F2CF4695F1DF08C0161617061806991F18
:10158000F1CF86957105610508940895E894BB270D
:1015900066277727CB0197F908950E94E00A0C94FB
:1015A000930A0E94850A38F00E948C0A20F0952345
:1015B00011F00C947C0A0C94820A11240C94C70A32
:1015C0000E94A40A70F3959FC1F3950F50E0551F38
:1015D000629FF001729FBB27F00DB11D639FAA2788
:1015E000F00DB11DAA1F649F6627B00DA11D661FD7
:1015F000829F2227B00DA11D621F739FB00DA11DF8
:10160000621F839FA00D611D221F749F3327A00DB1
:10161000611D231F849F600D211D822F762F6A2F4D
:1016200011249F5750409AF0F1F088234AF0EE0FB2
:10163000FF1FBB1F661F771F881F91505040A9F7DF
:101640009E3F510580F00C947C0A0C94C70A5F3FC2
:10165000E4F3983ED4F3869577956795B795F7951B
:10166000E7959F5FC1F7FE2B880F911D9695879593
:1016700097F908958F929F92AF92BF92CF92DF9287
:10168000EF92FF92CF93DF93EC01688179818A8199
:101690009B81611571058105910521F464E279ED65
:1016A0008BE597E02DE133EF41E050E00E94AC0B79
:1016B00049015A019B01AC01A7EAB1E40E94CB0B9E
:1016C0006B017C01ACEEB4EFA50194010E94D90B33
:1016D000DC01CB018C0D9D1DAE1DBF1DB7FF03C0EE
:1016E0000197A109B04888839983AA83BB839F7718
:1016F000DF91CF91FF90EF90DF90CF90BF90AF90B0
:101700009F908F9008950E943A0B089587E091E092
:101710000E943A0B0895A0E0B0E0809307019093F7
:101720000801A0930901B0930A010895F999FECF29
:1017300092BD81BDF89A992780B50895262FF99911
:10174000FECF1FBA92BD81BD20BD0FB6F894FA9AA4
:10175000F99A0FBE01960895052E97FB1EF400948A
:101760000E94C30B57FD07D00E94DE0B07FC03D07D
:101770004EF40C94C30B50954095309521953F4FF6
:101780004F4F5F4F089590958095709561957F4F6D
:101790008F4F9F4F08950E940709A59F900DB49FFA
:1017A000900DA49F800D911D11240895B7FF0C94F6
:1017B000CB0B0E94CB0B821B930B0895A1E21A2E38
:1017C000AA1BBB1BFD010DC0AA1FBB1FEE1FFF1FE5
:1017D000A217B307E407F50720F0A21BB30BE40B35
:1017E000F50B661F771F881F991F1A9469F760957C
:1017F0007095809590959B01AC01BD01CF01089536
:04180000F894FFCF8A
:0C180400AA22011F011E010100000000CB
:00000001FF
