:100000000C9446000C946F000C946F000C946F00DD
:100010000C946F000C946F000C9490010C946F0082
:100020000C946F000C946F000C946F000C94AE0550
:100030000C946F000C946F000C9408040C946F00E7
:100040000C946F000C946F000C946F000C946F0074
:100050000C946F000C946F000C946F000C94D005FE
:100060000C946F000C946F00B7040E052205530525
:100070005A0539055D05BB06AC07AC07C406C706C3
:10008000CA06CC06CE06D0068107E20611241FBEA2
:10009000CFEFD8E0DEBFCDBF14BE0FB6F894A89561
:1000A00080916000886180936000109260000FBEB4
:1000B00011E0A0E0B1E0ECEFF6E102C005900D9296
:1000C000AC30B107D9F721E0ACE0B1E001C01D923E
:1000D000A237B207E1F70E945E080C947C0B0C94E7
:1000E0000000089540913701509138016091390125
:1000F00070913A018091100190911101A09112012B
:10010000B0911301805C9F4FAF4FBF4F841795078D
:10011000A607B707D0F48091370190913801A091DC
:100120003901B0913A018093100190931101A0938D
:100130001201B093130185E00E94840484E690E0EC
:100140000E94A70180E00C9484040895089580E043
:1001500090E008950895DF92EF92FF920F931F931E
:10016000CF93DF93F89414B817B81AB815B818B825
:100170001BB8529A5A9A14BC85E085BD8FEF87BD93
:1001800082E080936E0010928000109281002FE830
:100190003BE0309389002093880080936F00539850
:1001A000239891EA9093B0008093B1001092B4002C
:1001B0001092B3008BE080BF83E080937F0086E0E5
:1001C00080937C0083E880937A0080917A00806439
:1001D00080937A0080917A0086FDFCCF10927C009B
:1001E00083EA80937A0081E080937B0081E090E055
:1001F0000E94120B8F3F11F08093660010923B011A
:10020000C1E0C0931401C0935801109232011092C2
:100210006C0180E990E00E94120B80933101809183
:100220003101887311F0C093310110925C0110927A
:100230005B018FEF90E090935A01809359011092E7
:100240003701109238011092390110923A0181E081
:1002500080930F0182E49FE090936B0180936A0189
:1002600080EB90E00E94120BC82F81EB90E00E947F
:10027000120B2C2F30E0382B30936E0120936D0140
:1002800085E090E00E94120B8093710189E090E07C
:100290000E94120B80935D018CE090E00E94120B93
:1002A00080936F0184E190E00E94120B80937001B3
:1002B0000CE311E055E1E52E51E0F52EC0E2D0E06F
:1002C000CE010E94120BD82ECE0101960E94120B75
:1002D0002D2D30E0322F2227282BF8012193319346
:1002E0008F01CE01C0960E94120BD82ECE01C1966E
:1002F0000E94120B2D2D30E0322F2227282BF701E0
:10030000219331937F012296CC33D105C9F678949D
:10031000DF91CF911F910F91FF90EF90DF900895A3
:100320001F920F920FB60F9211248F930FB6F8946D
:10033000A8958091600088618093600010926000B1
:100340000FBE8F910F900FBE0F901F9018950097C2
:1003500041F0EFECF7E03197F1F700C000000197B2
:10036000F6CF08958093B3006093B40008958FEFA3
:100370008093B3008093B4008FE090E00C94A701C9
:1003800080913B0181111EC0F89487E080937C002E
:1003900083E880937A0080917A00806480937A0069
:1003A00080917A0086FDFCCF809178009091790051
:1003B00010927C0023EA20937A0021E020937B00B6
:1003C000789408958FEF9FEF089580913B018111FC
:1003D0001EC0F89488EC80937C0087E880937A00B4
:1003E00080917A00806480937A0080917A0086FD03
:1003F000FCCF809178009091790010927C0023EAE4
:1004000020937A0021E020937B00789408958FEF69
:100410009FEF0895CF93DF9320E030E080E0E3EAA0
:10042000F1E0C6E0D3E8A1E0B0E090E0F894C0933A
:100430007C00D0937A0040917A00406440937A0027
:1004400040917A0046FDFCCF4091780050917900B0
:10045000417050917A00506450937A0050917A0024
:1004600056FDFCCF609178007091790010927C006D
:10047000E0937A00F0937B0078949F5F6170461759
:1004800051F0442359F0AD01022E01C0440F0A94EB
:10049000EAF7842B03C0903849F6F3CF2F5F3F4F24
:1004A0002830310509F0C1CFDF91CF9108958091B7
:1004B000000198E0899F90011124282790910C0158
:1004C00081E0890F80930C01822F82958695877039
:1004D000282796959695822F892780930001089565
:1004E00080930001089580913B01811116C0F8941A
:1004F00086E080937C0083E880937A0080917A0084
:10050000806480937A0080917A0086FDFCCF809190
:10051000780090917900789408958FEF9FEF089577
:100520002F923F924F925F926F927F928F929F9203
:10053000AF92BF92CF92DF92EF92FF920F931F93F1
:10054000CF93DF931C01FC01C281D381C438F3E057
:10055000DF070CF07EC080911501909116018C1779
:100560009D0708F46FC0E7E1F1E011E081919191FE
:100570008C179D0720F01F5F1E30C1F71DE0812FF3
:1005800090E0FC01EE0FFF1FEB5EFE4FE080F1807C
:10059000880F991FFC01ED5EFE4F80819181B701AC
:1005A000681B790B80E090E00E94BB099B01AC01C5
:1005B0000E94A7084B015C01BE010D2E000C880BA8
:1005C000990B0E94BD092B013C01B70180E090E02E
:1005D0000E94BB096B017C01612F70E080E090E01C
:1005E0000E94BB0920E030E040E05FE30E94490A3E
:1005F00020E030E0A9010E94A708A50194010E9413
:10060000490A9B01AC01C701B6010E94A6089B01E3
:10061000AC01C301B2010E94A60820E030E040E234
:1006200051E40E94490A0E9485097B01C501B40179
:100630000E948509AB01BC01C701BA010E9469088B
:10064000162F01C010E0CD3B82E0D8070CF4CAC0E1
:1006500001C01FEFF101C080D18080913C019091D9
:100660003D018C159D0588F0EEE3F1E081E090E01E
:10067000382EE190F190EC14FD0408F458C0019676
:100680008E309105A9F70AE501C000E01F3F09F48B
:100690004BC0BE01DD0F880B990B0E94BD096B0199
:1006A0007C01612F70E080E090E00E94BB094B016B
:1006B0005C01A701960160E070E081E694E40E948D
:1006C000A6089B01AC01C501B4010E94490A4B0177
:1006D0005C01602F70E080E090E00E94BB092B017C
:1006E0003C0120E030E04FE254E4C701B6010E9433
:1006F000A6089B01AC01C301B2010E94490A9B01FB
:10070000AC01C501B4010E94A70820E030E048E434
:1007100053E40E94130920E030E044E052E40E94D8
:10072000A7080E948C0960C061E2600F5DC0880F5D
:10073000991FFC01E65CFE4F80819181B701681B27
:10074000790B80E090E00E94BB099B01AC010E9404
:10075000A7084B015C01B601DD0C880B990B0E94C8
:10076000BD092B013C01B70180E090E00E94BB096C
:100770006B017C01632D70E080E090E00E94BB097A
:1007800020E030E040E05FE30E94490A20E030E0F2
:10079000A9010E94A708A50194010E94490A9B0192
:1007A000AC01C701B6010E94A6089B01AC01C301C0
:1007B000B2010E94A60820E030E040E251E40E942D
:1007C000490A0E9485097B01C501B4010E9485097F
:1007D000AB01BC01C701BA010E946908062F6F3F37
:1007E00009F054CF61E2610F862FDF91CF911F9105
:1007F0000F91FF90EF90DF90CF90BF90AF909F90C0
:100800008F907F906F905F904F903F902F900895C2
:100810001F920F920FB60F9211242F933F934F9375
:100820005F936F937F938F939F93AF93BF93EF9358
:10083000FF9320915B0130915C018091590190916F
:100840005A01820F931F90935C0180935B018FEF9D
:1008500090E090935A01809359018FEF87BD80916A
:10086000370190913801A0913901B0913A01019678
:10087000A11DB11D8093370190933801A0933901D8
:10088000B0933A0180913B0181112DC080916A01A2
:1008900090916B0120915B0130915C01821793076D
:1008A00010F580910F018430F1F4E0910301F09193
:1008B000040109950097B9F00E94DB07882351F0E5
:1008C000E0910101F0910201099510925C011092F2
:1008D0005B0109C00E94020B9C01332730935A012F
:1008E0002093590187BDFF91EF91BF91AF919F91E7
:1008F0008F917F916F915F914F913F912F910F90C9
:100900000FBE0F901F90189580FF02C0559A01C02E
:10091000559881FF02C0549A01C0549882FF02C0CA
:100920003B9A01C03B9883FF02C03A9A01C03A98B3
:1009300084FF02C03D9A01C03D9885FF02C03C9AE9
:1009400008953C9808958C017B01D0E0CFEF84E0BE
:10095000D82E98E1C92E29E2B22EE0910F01F0E0E5
:10096000E730F105D0F7EC5CFF4F0C947D08F8946C
:1009700080B7877F80BF80917A008F7780937A00DD
:1009800014B817B81AB815B818B81BB80FB6F89439
:10099000A895C09260000FBEB09260008091600088
:1009A00080648093600083B7817F846083BFF89404
:1009B00083B7816083BF7894889583B78E7F83BF28
:1009C000789410923B01529A5A9A80917A008068EA
:1009D00080937A0087E592E00197F1F700C000006C
:1009E00080B7886180BF8FE30E948404EFE1FEE45A
:1009F0003197F1F700C0000080913B01882309F492
:100A000050C083E00E948404FFEF20E782E0F150B1
:100A100020408040E1F700C0000043C08CE00E940D
:100A20008404EFECF7E03197F1F700C0000080E0BC
:100A30000E948404FFEF21EE84E0F15020408040CA
:100A4000E1F72CC00E9473028B3AE2E09E0724F08B
:100A50008CE00E94840481CF8938F2E09F0714F073
:100A600080E3F7CF8736924014F08FE0F2CF83E037
:100A7000F0CF489916C081E00E9484048FEC97E083
:100A80000197F1F700C0000080E00E9484049FEF0E
:100A9000E1EEF4E09150E040F040E1F700C00000EA
:100AA0005CCF80E0D6CFD11102C0F8010995D09279
:100AB0000F01D1E0F701099550CF80910D0181110F
:100AC00007C01092B3001092B40010920E0145CFEF
:100AD00090910D0180910E01981709F43ECF8091FD
:100AE0000D0180930E0180910D01813089F4C09336
:100AF000B3001092B4008FE295E70197F1F700C0C0
:100B00000000809171018093B3001092B40025CF52
:100B100080910D011092B300C093B400823059F45B
:100B2000EFE2F5E73197F1F700C0000080915D0139
:100B30001092B30010C0C093B300C093B4008FE212
:100B400095E70197F1F700C0000080917001909146
:100B50006F019093B3008093B400FFCE1F920F9269
:100B60000FB60F9211248F939F93109281001092D1
:100B700085001092840081E08093140180935801D5
:100B800010923B0110927C0093EA90937A0080933C
:100B90007B009F918F910F900FBE0F901F90189523
:100BA0001F920F920FB60F9211240F931F932F9342
:100BB0003F934F935F936F937F938F939F93AF93E5
:100BC000BF93EF93FF93209184003091850041E023
:100BD00040933B0180911401882321F110928500FC
:100BE000109284004093810010926C0110921401C5
:100BF00080915801882309F4AFC180917A0086FD65
:100C0000FCCF809178009091790090933601809389
:100C1000350181E080937C0093EA90937A00809381
:100C20007B009AC1C9018758910984379940A0F087
:100C3000109281001092850010928400409314015C
:100C40004093580110923B0110927C0083EA8093FC
:100C50007A0040937B0080C126583109A4EFB0E0B0
:100C60000E9483088C0122273327083060F481E03A
:100C700090E001C0880F0A95EAF790916C01892BEA
:100C800080936C0169C140931401809158018823BD
:100C900041F180917A0086FDFCCF8091780090919F
:100CA0007900909334018093330110927C0083EAA1
:100CB00080937A0081E080937B0090916C0199236E
:100CC00059F0109281001092850010928400809358
:100CD000580110923B0140C110925801109232010C
:100CE0003BC180913201E82FF0E0E25AFE4F909133
:100CF0006C0190838F5F809332018C3009F02CC19E
:100D00001092810010928500109284004093580147
:100D100010923B0100916801109169018EE591E00C
:100D20000E94BF070817190709F016C1E091670173
:100D3000E7FD0AC0E0910501F091060163E371E06F
:100D40008EE591E0099508C188E78E0F833030F079
:100D5000539823981092B4001092B3008E2F90E015
:100D6000FC01E058F109EB30F10508F0F5C0E55C55
:100D7000FF4F0C947D0880916E008D7F80936E00F4
:100D800016BCE0E0F0E702C0E0E0F0E00995109268
:100D90000F01E2C081E0B2C085E0B0C082E0AEC029
:100DA00080910F01833009F4D7C080910F01843006
:100DB00009F4D2C0539A239A1092B4001092B3004F
:100DC00083E09CC080915E01823009F44BC080F4C6
:100DD0008823A9F0813009F082C080915F01909151
:100DE000600190936E0180936D0110920D0177C0A8
:100DF000833009F449C0843009F458C070C0809130
:100E00000F01863009F06BC060916D0180EB90E0BE
:100E10000E941A0B60916E0181EB90E00E941A0B08
:100E20006091710185E090E00E941A0B60915D0174
:100E300089E090E00E941A0B60916F018CE090E0D5
:100E40000E941A0B6091700184E190E00E941A0BDD
:100E5000539823981092B4001092B30081E08093CD
:100E60000F013DC090910D0180916101913021F4FD
:100E700090917101891799F110920E0191E0909370
:100E80000D01809371012BC090910D018091620141
:100E9000923021F490915D01891709F110920E01B1
:100EA00092E090930D0180935D0119C020910D0196
:100EB0008091640190916301233041F4209170018D
:100EC000821304C020916F01921749F010920E0115
:100ED00023E020930D0190936F0180937001809126
:100EE0005E018823C9F180910F018630A9F1539AE0
:100EF000239A1092B4001092B30086E080930F0101
:100F00002BC080910F01863081F0539A239A109262
:100F1000B4001092B30080E00E94840410920D018E
:100F200010920E0186E080930F0181E090E0009026
:100F30005E0102C0880F991F0A94E2F720916D01AB
:100F400030916E0182239323892B21F081E08093DD
:100F50000D0102C010920D01FF91EF91BF91AF9171
:100F60009F918F917F916F915F914F913F912F91C1
:100F70001F910F910F900FBE0F901F901895FC01BD
:100F80009C01265F3F4F8FEF9FEF41918427082EF2
:100F90008295807F8025092E982F82958F70082654
:100FA000869598278927880F880F880F8025E21754
:100FB000F30759F708950FB6F894A4B120913101C1
:100FC0002A2B24B921E030913101203029F0000092
:100FD00025B1232B25B904C000000000000000C08B
:100FE000000000000000309525B1232325B92EEA2A
:100FF0002A95F1F72BEE30B735FF0AC0A4B930912E
:101000003101309525B1232325B90FBE80E0089525
:1010100000002A9581F721E030913101203029F03C
:10102000000025B1232B25B904C0000000000000FA
:1010300000C0000000000000309525B1232325B931
:10104000000024E52A95F1F7FC018CE0619170E045
:10105000660F771F616072609AE041E050E09A018C
:1010600026233723232B30913101203029F0000033
:1010700025B1232B25B904C000000000000000C0EA
:10108000000000000000309525B1232325B90000A1
:1010900021E52A95F1F7440F551F9A9501F78A9596
:1010A000A9F620B7206120BFA4B930913101309555
:1010B00025B1232325B90FBE81E008950E94AB001E
:1010C00062E770E081E790E00E94A30480E090E096
:1010D000089597FB072E16F4009407D077FD09D0EA
:1010E0000E94920807FC05D03EF4909581959F4F91
:1010F0000895709561957F4F0895EE0FFF1F05903D
:10110000F491E02D0994A29FB001B39FC001A39F69
:10111000700D811D1124911DB29F700D811D112430
:10112000911D0895AA1BBB1B51E107C0AA1FBB1F3D
:10113000A617B70710F0A61BB70B881F991F5A9563
:10114000A9F780959095BC01CD0108955058BB2713
:10115000AA270E94BE080C940F0A0E94010A38F0C8
:101160000E94080A20F039F49F3F19F426F40C94E9
:10117000FE090EF4E095E7FB0C94F809E92F0E94B4
:10118000200A58F3BA17620773078407950720F0FF
:1011900079F4A6F50C94420A0EF4E0950B2EBA2FC2
:1011A000A02D0B01B90190010C01CA01A00111246D
:1011B000FF27591B99F0593F50F4503E68F11A1619
:1011C000F040A22F232F342F4427585FF3CF4695AA
:1011D00037952795A795F0405395C9F77EF41F16CC
:1011E000BA0B620B730B840BBAF09150A1F0FF0F96
:1011F000BB1F661F771F881FC2F70EC0BA0F621F82
:10120000731F841F48F4879577956795B795F79571
:101210009E3F08F0B0CF9395880F08F09927EE0F06
:101220009795879508950E9427090C940F0A0E94AC
:10123000080A58F00E94010A40F029F45F3F29F0A3
:101240000C94F80951110C94430A0C94FE090E9465
:10125000200A68F39923B1F3552391F3951B550B9D
:10126000BB27AA2762177307840738F09F5F5F4F79
:10127000220F331F441FAA1FA9F335D00E2E3AF0B8
:10128000E0E832D091505040E695001CCAF72BD0D0
:10129000FE2F29D0660F771F881FBB1F2617370721
:1012A0004807AB07B0E809F0BB0B802DBF01FF2753
:1012B00093585F4F3AF09E3F510578F00C94F8092F
:1012C0000C94430A5F3FE4F3983ED4F386957795F8
:1012D0006795B795F7959F5FC9F7880F911D96950C
:1012E000879597F90895E1E0660F771F881FBB1F68
:1012F000621773078407BA0720F0621B730B840B15
:10130000BA0BEE1F88F7E09508950E948C09689447
:10131000B1110C94430A08950E94280A88F09F573F
:1013200098F0B92F9927B751B0F0E1F0660F771F09
:10133000881F991F1AF0BA95C9F714C0B13091F0FF
:101340000E94420AB1E008950C94420A672F782F58
:101350008827B85F39F0B93FCCF3869577956795C4
:10136000B395D9F73EF490958095709561957F4F30
:101370008F4F9F4F0895E89409C097FB3EF49095D6
:101380008095709561957F4F8F4F9F4F9923A9F05E
:10139000F92F96E9BB279395F695879577956795ED
:1013A000B795F111F8CFFAF4BB0F11F460FF1BC031
:1013B0006F5F7F4F8F4F9F4F16C0882311F096E9C4
:1013C00011C0772321F09EE8872F762F05C0662372
:1013D00071F096E8862F70E060E02AF09A95660F2B
:1013E000771F881FDAF7880F9695879597F90895E4
:1013F00097F99F6780E870E060E008959FEF80ECC8
:10140000089500240A94161617061806090608956A
:1014100000240A9412161306140605060895092ED0
:101420000394000C11F4882352F0BB0F40F4BF2B3F
:1014300011F460FF04C06F5F7F4F8F4F9F4F08957F
:1014400057FD9058440F551F59F05F3F71F0479575
:10145000880F97FB991F61F09F3F79F0879508955A
:10146000121613061406551FF2CF4695F1DF08C079
:10147000161617061806991FF1CF86957105610596
:1014800008940895E894BB2766277727CB0197F93E
:1014900008950E945C0A0C940F0A0E94010A38F019
:1014A0000E94080A20F0952311F00C94F8090C947E
:1014B000FE0911240C94430A0E94200A70F3959FA0
:1014C000C1F3950F50E0551F629FF001729FBB273B
:1014D000F00DB11D639FAA27F00DB11DAA1F649FD7
:1014E0006627B00DA11D661F829F2227B00DA11D8A
:1014F000621F739FB00DA11D621F839FA00D611D10
:10150000221F749F3327A00D611D231F849F600D30
:10151000211D822F762F6A2F11249F5750409AF059
:10152000F1F088234AF0EE0FFF1FBB1F661F771FE5
:10153000881F91505040A9F79E3F510580F00C94B0
:10154000F8090C94430A5F3FE4F3983ED4F3869580
:1015500077956795B795F795E7959F5FC1F7FE2B50
:10156000880F911D9695879597F908958F929F9270
:10157000AF92BF92CF92DF92EF92FF92CF93DF9321
:10158000EC01688179818A819B81611571058105F2
:10159000910521F464E279ED8BE597E02DE133EFDD
:1015A00041E050E00E94280B49015A019B01AC0127
:1015B000A7EAB1E40E94470B6B017C01ACEEB4EFEB
:1015C000A50194010E94550BDC01CB018C0D9D1DE2
:1015D000AE1DBF1DB7FF03C00197A109B0488883A6
:1015E0009983AA83BB839F77DF91CF91FF90EF9080
:1015F000DF90CF90BF90AF909F908F9008950E9402
:10160000B60A089587E091E00E94B60A0895A0E026
:10161000B0E08093070190930801A0930901B09373
:101620000A010895F999FECF92BD81BDF89A9927D4
:1016300080B50895262FF999FECF1FBA92BD81BDBE
:1016400020BD0FB6F894FA9AF99A0FBE0196089544
:10165000052E97FB1EF400940E943F0B57FD07D008
:101660000E945A0B07FC03D04EF40C943F0B50958C
:101670004095309521953F4F4F4F5F4F089590957E
:101680008095709561957F4F8F4F9F4F08950E9471
:101690008308A59F900DB49F900DA49F800D911D70
:1016A00011240895B7FF0C94470B0E94470B821B2F
:1016B000930B0895A1E21A2EAA1BBB1BFD010DC0BE
:1016C000AA1FBB1FEE1FFF1FA217B307E407F507F2
:1016D00020F0A21BB30BE40BF50B661F771F881FCE
:1016E000991F1A9469F760957095809590959B0164
:0C16F000AC01BD01CF010895F894FFCFBC
:0C16FC00AAAA00A700A600010000000040
:00000001FF
