:100000000C9446000C946F000C946F000C946F00DD
:100010000C946F000C946F000C940E020C946F0003
:100020000C946F000C946F000C946F000C942C06D1
:100030000C946F000C946F000C9486040C946F0069
:100040000C946F000C946F000C946F000C946F0074
:100050000C946F000C946F000C946F000C944E067F
:100060000C946F000C946F0035058C05A005D1052C
:10007000D805B705DB0539072A082A0842074507CE
:1000800048074A074C074E07FF07600711241FBEA9
:10009000CFEFD8E0DEBFCDBF14BE0FB6F894A89561
:1000A00080916000886180936000109260000FBEB4
:1000B00011E0A0E0B1E0E0E1F8E102C005900D92AE
:1000C000AC30B107D9F723E0ACE0B1E001C01D923C
:1000D000A231B207E1F70E94DC080C94060C0C94E4
:1000E0000000FC0150814091B302842F90E0252F45
:1000F00030E0541748F4821B930B8031910594F43F
:10010000FC01ED5EFE4F0BC0A901481B590B4131AC
:10011000510544F0821B930BFC01ED5CFE4F808186
:100120008F5F808381E080930E0108958091B302F8
:100130002CE0829FC00111248D5C9E4F0895EF92A8
:10014000FF921F93CF93DF93C3E3D1E083E1E82EC7
:1001500081E0F82E10E018831986CE010E943D0838
:100160009B878A87F70111927F011F5F2C961032BF
:1001700091F7DF91CF911F91FF90EF9008958091BB
:100180000E01813009F052C010920E018091D70209
:100190009091D802A091D902B091DA0240910C015D
:1001A00050910D01052E000C660B770B841B950BEF
:1001B000A60BB70B22E0B695A795979587952A953C
:1001C000D1F78F718093B30281112EC080E10E941C
:1001D0000205E3E1F1E020E030E080E090E060E063
:1001E00070E0408150E0640F751F429FD001439F33
:1001F000B00D529FB00D11248A0F9B1F11922F5FDB
:100200003F4F2032310569F76115710591F00E9469
:10021000F30880910C0190910D01680F791F709384
:100220000D0160930C0105C085E101C081E00E94D1
:10023000020584E690E00E94250280E00E9402050B
:1002400088EB9BE00C942502089580E090E00895EF
:100250000895DF92EF92FF920F931F93CF93DF9356
:10026000F89414B817B81AB815B818B81BB8529A39
:100270005A9A14BC85E085BD8FEF87BD82E08093DC
:100280006E0010928000109281002FE83BE03093C6
:1002900089002093880080936F005398239891EAF7
:1002A0009093B0008093B1001092B4001092B3000C
:1002B0008BE080BF83E080937F0086E080937C00AA
:1002C00083E880937A0080917A00806480937A003A
:1002D00080917A0086FDFCCF10927C0083EA8093A7
:1002E0007A0081E080937B0081E090E00E949C0B8B
:1002F0008F3F11F0809366001092DB02C1E0C09343
:10030000B402C093F8021092D20210920C0380E95A
:1003100090E00E949C0B8093D1028091D10288735F
:1003200011F0C093D1021092FC021092FB028FEFE9
:1003300090E09093FA028093F9021092D702109203
:10034000D8021092D9021092DA0281E08093120151
:1003500082E49FE090930B0380930A0380EB90E08C
:100360000E949C0BC82F81EB90E00E949C0B2C2FCD
:1003700030E0382B30930E0320930D0385E090E09E
:100380000E949C0B8093110389E090E00E949C0BDB
:100390008093FD028CE090E00E949C0B80930F0301
:1003A00084E190E00E949C0B809310030CED12E01E
:1003B00055EBE52E52E0F52EC0E2D0E0CE010E94D2
:1003C0009C0BD82ECE0101960E949C0B2D2D30E067
:1003D000322F2227282BF801219331938F01CE0150
:1003E000C0960E949C0BD82ECE01C1960E949C0BF9
:1003F0002D2D30E0322F2227282BF7012193319326
:100400007F012296CC33D105C9F67894DF91CF9144
:100410001F910F91FF90EF90DF9008951F920F9220
:100420000FB60F9211248F930FB6F894A895809170
:100430006000886180936000109260000FBE8F9111
:100440000F900FBE0F901F901895009741F0EFECA2
:10045000F7E03197F1F700C000000197F6CF08955B
:100460008093B3006093B40008958FEF8093B3003E
:100470008093B4008FE090E00C9425028091DB0221
:1004800081111EC0F89487E080937C0083E88093FC
:100490007A0080917A00806480937A0080917A005B
:1004A00086FDFCCF809178009091790010927C00BD
:1004B00023EA20937A0021E020937B00789408952A
:1004C0008FEF9FEF08958091DB0281111EC0F89499
:1004D00088EC80937C0087E880937A0080917A0092
:1004E000806480937A0080917A0086FDFCCF8091B1
:1004F00078009091790010927C0023EA20937A0092
:1005000021E020937B00789408958FEF9FEF08956A
:10051000CF93DF9320E030E080E0E3EAF1E0C6E053
:10052000D3E8A1E0B0E090E0F894C0937C00D093D1
:100530007A0040917A00406440937A0040917A00BA
:1005400046FDFCCF40917800509179004170509168
:100550007A00506450937A0050917A0056FDFCCF97
:10056000609178007091790010927C00E0937A009D
:10057000F0937B0078949F5F6170461751F044239D
:1005800059F0AD01022E01C0440F0A94EAF7842B02
:1005900003C0903849F6F3CF2F5F3F4F2830310525
:1005A00009F0C1CFDF91CF9108958091000198E0CB
:1005B000899F90011124282790910F0181E0890FD4
:1005C00080930F01822F82958695877028279695B4
:1005D0009695822F892780930001089580930001CA
:1005E00008958091DB02811116C0F89486E0809313
:1005F0007C0083E880937A0080917A008064809305
:100600007A0080917A0086FDFCCF809178009091ED
:100610007900789408958FEF9FEF08952F923F927D
:100620004F925F926F927F928F929F92AF92BF9202
:10063000CF92DF92EF92FF920F931F93CF93DF93AE
:100640001C01FC01C281D381C438F3E0DF070CF048
:100650007EC08091B5029091B6028C179D0708F478
:100660006FC0E7EBF2E011E0819191918C179D074B
:1006700020F01F5F1E30C1F71DE0812F90E0FC01CC
:10068000EE0FFF1FEB54FD4FE080F180880F991FA4
:10069000FC01ED54FD4F80819181B701681B790BFE
:1006A00080E090E00E94450A9B01AC010E94310964
:1006B0004B015C01BE010D2E000C880B990B0E94B2
:1006C000470A2B013C01B70180E090E00E94450AF7
:1006D0006B017C01612F70E080E090E00E94450A90
:1006E00020E030E040E05FE30E94D30A20E030E009
:1006F000A9010E943109A50194010E94D30A9B011E
:10070000AC01C701B6010E9430099B01AC01C301D5
:10071000B2010E94300920E030E040E251E40E9442
:10072000D30A0E940F0A7B01C501B4010E940F0A7F
:10073000AB01BC01C701BA010E94F308162F01C02A
:1007400010E0CD3B82E0D8070CF4CAC001C01FEF17
:10075000F101C080D1808091DC029091DD028C1586
:100760009D0588F0EEEDF2E081E090E0382EE1901A
:10077000F190EC14FD0408F458C001968E309105F8
:10078000A9F70AE501C000E01F3F09F44BC0BE0114
:10079000DD0F880B990B0E94470A6B017C01612FCA
:1007A00070E080E090E00E94450A4B015C01A701E7
:1007B000960160E070E081E694E40E9430099B01BC
:1007C000AC01C501B4010E94D30A4B015C01602F4A
:1007D00070E080E090E00E94450A2B013C0120E09F
:1007E00030E04FE254E4C701B6010E9430099B019A
:1007F000AC01C301B2010E94D30A9B01AC01C50147
:10080000B4010E94310920E030E048E453E40E9442
:100810009D0920E030E044E052E40E9431090E944A
:10082000160A60C061E2600F5DC0880F991FFC016D
:10083000E652FD4F80819181B701681B790B80E002
:1008400090E00E94450A9B01AC010E9431094B01D6
:100850005C01B601DD0C880B990B0E94470A2B0145
:100860003C01B70180E090E00E94450A6B017C01E9
:10087000632D70E080E090E00E94450A20E030E0C7
:1008800040E05FE30E94D30A20E030E0A9010E942B
:100890003109A50194010E94D30A9B01AC01C70153
:1008A000B6010E9430099B01AC01C301B2010E9454
:1008B000300920E030E040E251E40E94D30A0E9477
:1008C0000F0A7B01C501B4010E940F0AAB01BC01F4
:1008D000C701BA010E94F308062F6F3F09F054CFF9
:1008E00061E2610F862FDF91CF911F910F91FF90F1
:1008F000EF90DF90CF90BF90AF909F908F907F90C0
:100900006F905F904F903F902F9008951F920F929D
:100910000FB60F9211242F933F934F935F936F93D2
:100920007F938F939F93AF93BF93EF93FF93209108
:10093000FB023091FC028091F9029091FA02820F41
:10094000931F9093FC028093FB028FEF90E09093B3
:10095000FA028093F9028FEF87BD8091D7029091C0
:10096000D802A091D902B091DA020196A11DB11D61
:100970008093D7029093D802A093D902B093DA0261
:100980008091DB0281112DC080910A0390910B03AD
:100990002091FB023091FC028217930710F58091A1
:1009A00012018430F1F4E0910301F0910401099502
:1009B0000097B9F00E945908882351F0E091010195
:1009C000F091020109951092FC021092FB0209C0FD
:1009D0000E948C0B9C0133273093FA022093F9027A
:1009E00087BDFF91EF91BF91AF919F918F917F91C3
:1009F0006F915F914F913F912F910F900FBE0F908C
:100A00001F90189580FF02C0559A01C0559881FF2C
:100A100002C0549A01C0549882FF02C03B9A01C0A0
:100A20003B9883FF02C03A9A01C03A9884FF02C003
:100A30003D9A01C03D9885FF02C03C9A08953C98BC
:100A400008958C017B01D0E0CFEF84E0D82E98E1AF
:100A5000C92E29E2B22EE0911201F0E0E730F10553
:100A6000D0F7EC5CFF4F0C940709F89480B7877FB0
:100A700080BF80917A008F7780937A0014B817B87E
:100A80001AB815B818B81BB80FB6F894A895C09244
:100A900060000FBEB092600080916000806480931F
:100AA000600083B7817F846083BFF89483B78160DF
:100AB00083BF7894889583B78E7F83BF7894109294
:100AC000DB02529A5A9A80917A00806880937A0069
:100AD00087E592E00197F1F700C0000080B78861D8
:100AE00080BF8FE30E940205EFE1FEE43197F1F74A
:100AF00000C000008091DB02882309F450C083E02D
:100B00000E940205FFEF20E782E0F1502040804084
:100B1000E1F700C0000043C08CE00E940205EFEC4A
:100B2000F7E03197F1F700C0000080E00E94020575
:100B3000FFEF21EE84E0F15020408040E1F72CC02F
:100B40000E94F1028B3AE2E09E0724F08CE00E94C2
:100B5000020581CF8938F2E09F0714F080E3F7CFD8
:100B60008736924014F08FE0F2CF83E0F0CF4899BF
:100B700016C081E00E9402058FEC97E00197F1F723
:100B800000C0000080E00E9402059FEFE1EEF4E06B
:100B90009150E040F040E1F700C000005CCF80E001
:100BA000D6CFD11102C0F8010995D0921201D1E03F
:100BB000F701099550CF80911001811107C0109263
:100BC000B3001092B4001092110145CF9091100122
:100BD00080911101981709F43ECF80911001809304
:100BE000110180911001813089F4C093B3001092FB
:100BF000B4008FE295E70197F1F700C00000809103
:100C000011038093B3001092B40025CF809110019E
:100C10001092B300C093B400823059F4EFE2F5E7CC
:100C20003197F1F700C000008091FD021092B300EF
:100C300010C0C093B300C093B4008FE295E7019752
:100C4000F1F700C000008091100390910F03909382
:100C5000B3008093B400FFCE1F920F920FB60F9295
:100C600011248F939F93109281001092850010920F
:100C7000840081E08093B4028093F8021092DB023A
:100C800010927C0093EA90937A0080937B009F916E
:100C90008F910F900FBE0F901F9018951F920F927B
:100CA0000FB60F9211240F931F932F933F934F93DF
:100CB0005F936F937F938F939F93AF93BF93EF93C4
:100CC000FF93209184003091850041E04093DB0246
:100CD0008091B402882321F1109285001092840043
:100CE0004093810010920C031092B4028091F8029C
:100CF000882309F4AFC180917A0086FDFCCF8091F2
:100D00007800909179009093D6028093D50281E08B
:100D100080937C0093EA90937A0080937B009AC141
:100D2000C9018758910984379940A0F01092810039
:100D300010928500109284004093B4024093F80210
:100D40001092DB0210927C0083EA80937A00409339
:100D50007B0080C126583109A4EFB0E00E940D0944
:100D60008C0122273327083060F481E090E001C035
:100D7000880F0A95EAF790910C03892B80930C0356
:100D800069C14093B4028091F802882341F18091B7
:100D90007A0086FDFCCF8091780090917900909345
:100DA000D4028093D30210927C0083EA80937A006D
:100DB00081E080937B0090910C03992359F010926D
:100DC000810010928500109284008093F8021092A6
:100DD000DB0240C11092F8021092D2023BC1809116
:100DE000D202E82FF0E0E250FD4F90910C03908387
:100DF0008F5F8093D2028C3009F02CC11092810059
:100E000010928500109284004093F8021092DB0249
:100E100000910803109109038EEF92E00E943D08B3
:100E20000817190709F016C1E0910703E7FD0AC08A
:100E3000E0910501F091060163ED72E08EEF92E022
:100E4000099508C188E78E0F833030F053982398B6
:100E50001092B4001092B3008E2F90E0FC01E05885
:100E6000F109EB30F10508F0F5C0E55CFF4F0C949B
:100E7000070980916E008D7F80936E0016BCE0E0C4
:100E8000F0E702C0E0E0F0E0099510921201E2C044
:100E900081E0B2C085E0B0C082E0AEC080911201B6
:100EA000833009F4D7C080911201843009F4D2C094
:100EB000539A239A1092B4001092B30083E09CC01E
:100EC0008091FE02823009F44BC080F48823A9F09F
:100ED000813009F082C08091FF02909100039093CD
:100EE0000E0380930D031092100177C0833009F434
:100EF00049C0843009F458C070C080911201863016
:100F000009F06BC060910D0380EB90E00E94A40B90
:100F100060910E0381EB90E00E94A40B609111039D
:100F200085E090E00E94A40B6091FD0289E090E0D2
:100F30000E94A40B60910F038CE090E00E94A40B30
:100F40006091100384E190E00E94A40B53982398D1
:100F50001092B4001092B30081E0809312013DC062
:100F60009091100180910103913021F4909111032F
:100F7000891799F11092110191E0909310018093DB
:100F800011032BC09091100180910203923021F443
:100F90009091FD02891709F11092110192E090934E
:100FA00010018093FD0219C020911001809104036B
:100FB00090910303233041F420911003821304C065
:100FC00020910F03921749F01092110123E0209312
:100FD000100190930F03809310038091FE028823E9
:100FE000C9F1809112018630A9F1539A239A109287
:100FF000B4001092B30086E0809312012BC0809160
:101000001201863081F0539A239A1092B400109204
:10101000B30080E00E9402051092100110921101AD
:1010200086E08093120181E090E00090FE0202C011
:10103000880F991F0A94E2F720910D0330910E0357
:1010400082239323892B21F081E08093100102C039
:1010500010921001FF91EF91BF91AF919F918F91ED
:101060007F916F915F914F913F912F911F910F91C0
:101070000F900FBE0F901F901895FC019C01265FEA
:101080003F4F8FEF9FEF41918427082E8295807FFD
:101090008025092E982F82958F700826869598278F
:1010A0008927880F880F880F8025E217F30759F7E3
:1010B00008950FB6F894A4B12091D1022A2B24B937
:1010C00021E03091D102203029F0000025B1232BFE
:1010D00025B904C000000000000000C000000000AE
:1010E0000000309525B1232325B92EEA2A95F1F782
:1010F0002BEE30B735FF0AC0A4B93091D10230953C
:1011000025B1232325B90FBE80E0089500002A955C
:1011100081F721E03091D102203029F0000025B183
:10112000232B25B904C000000000000000C000000F
:1011300000000000309525B1232325B9000024E5E7
:101140002A95F1F7FC018CE0619170E0660F771F42
:10115000616072609AE041E050E09A0126233723F3
:10116000232B3091D102203029F0000025B1232B10
:1011700025B904C000000000000000C0000000000D
:101180000000309525B1232325B9000021E52A95DB
:10119000F1F7440F551F9A9501F78A95A9F620B7E4
:1011A000206120BFA4B93091D102309525B123230D
:1011B00025B90FBE81E008950E94290181E790E0E2
:1011C000909306018093050186E990E090930401D5
:1011D000809303016FEB70E08FE990E00E9421059E
:1011E00080E090E0089597FB072E16F4009407D056
:1011F00077FD09D00E941C0907FC05D03EF49095AC
:1012000081959F4F0895709561957F4F0895EE0FDA
:10121000FF1F0590F491E02D0994A29FB001B39FA8
:10122000C001A39F700D811D1124911DB29F700DEF
:10123000811D1124911D0895AA1BBB1B51E107C0FC
:10124000AA1FBB1FA617B70710F0A61BB70B881F56
:10125000991F5A95A9F780959095BC01CD010895E5
:101260005058BB27AA270E9448090C94990A0E944B
:101270008B0A38F00E94920A20F039F49F3F19F44B
:1012800026F40C94880A0EF4E095E7FB0C94820A8D
:10129000E92F0E94AA0A58F3BA1762077307840756
:1012A000950720F079F4A6F50C94CC0A0EF4E0959D
:1012B0000B2EBA2FA02D0B01B90190010C01CA0110
:1012C000A0011124FF27591B99F0593F50F4503EBB
:1012D00068F11A16F040A22F232F342F4427585FAD
:1012E000F3CF469537952795A795F0405395C9F7C5
:1012F0007EF41F16BA0B620B730B840BBAF091507D
:10130000A1F0FF0FBB1F661F771F881FC2F70EC01B
:10131000BA0F621F731F841F48F4879577956795EE
:10132000B795F7959E3F08F0B0CF9395880F08F0DA
:101330009927EE0F9795879508950E94B1090C940F
:10134000990A0E94920A58F00E948B0A40F029F4F0
:101350005F3F29F00C94820A51110C94CD0A0C9431
:10136000880A0E94AA0A68F39923B1F3552391F3DE
:10137000951B550BBB27AA2762177307840738F004
:101380009F5F5F4F220F331F441FAA1FA9F335D061
:101390000E2E3AF0E0E832D091505040E695001C15
:1013A000CAF72BD0FE2F29D0660F771F881FBB1FCF
:1013B000261737074807AB07B0E809F0BB0B802DAD
:1013C000BF01FF2793585F4F3AF09E3F510578F0D9
:1013D0000C94820A0C94CD0A5F3FE4F3983ED4F358
:1013E000869577956795B795F7959F5FC9F7880FAD
:1013F000911D9695879597F90895E1E0660F771FFF
:10140000881FBB1F621773078407BA0720F0621B8F
:10141000730B840BBA0BEE1F88F7E09508950E94BA
:10142000160A6894B1110C94CD0A08950E94B20A6C
:1014300088F09F5798F0B92F9927B751B0F0E1F095
:10144000660F771F881F991F1AF0BA95C9F714C045
:10145000B13091F00E94CC0AB1E008950C94CC0A0E
:10146000672F782F8827B85F39F0B93FCCF386957E
:1014700077956795B395D9F73EF4909580957095DB
:1014800061957F4F8F4F9F4F0895E89409C097FB58
:101490003EF490958095709561957F4F8F4F9F4F4B
:1014A0009923A9F0F92F96E9BB279395F69587958F
:1014B00077956795B795F111F8CFFAF4BB0F11F452
:1014C00060FF1BC06F5F7F4F8F4F9F4F16C08823F9
:1014D00011F096E911C0772321F09EE8872F762F2F
:1014E00005C0662371F096E8862F70E060E02AF070
:1014F0009A95660F771F881FDAF7880F969587955C
:1015000097F9089597F99F6780E870E060E0089583
:101510009FEF80EC089500240A941616170618060B
:101520000906089500240A941216130614060506E7
:101530000895092E0394000C11F4882352F0BB0F78
:1015400040F4BF2B11F460FF04C06F5F7F4F8F4FDB
:101550009F4F089557FD9058440F551F59F05F3F16
:1015600071F04795880F97FB991F61F09F3F79F0C5
:1015700087950895121613061406551FF2CF469547
:10158000F1DF08C0161617061806991FF1CF8695C9
:101590007105610508940895E894BB2766277727AD
:1015A000CB0197F908950E94E60A0C94990A0E94CB
:1015B0008B0A38F00E94920A20F0952311F00C94C7
:1015C000820A0C94880A11240C94CD0A0E94AA0A5B
:1015D00070F3959FC1F3950F50E0551F629FF00186
:1015E000729FBB27F00DB11D639FAA27F00DB11D9F
:1015F000AA1F649F6627B00DA11D661F829F222728
:10160000B00DA11D621F739FB00DA11D621F839FAE
:10161000A00D611D221F749F3327A00D611D231F84
:10162000849F600D211D822F762F6A2F11249F57D2
:1016300050409AF0F1F088234AF0EE0FFF1FBB1FD5
:10164000661F771F881F91505040A9F79E3F510594
:1016500080F00C94820A0C94CD0A5F3FE4F3983E2C
:10166000D4F3869577956795B795F795E7959F5F3E
:10167000C1F7FE2B880F911D9695879597F90895D0
:101680008F929F92AF92BF92CF92DF92EF92FF9292
:10169000CF93DF93EC01688179818A819B81611509
:1016A00071058105910521F464E279ED8BE597E000
:1016B0002DE133EF41E050E00E94B20B49015A01A5
:1016C0009B01AC01A7EAB1E40E94D10B6B017C0144
:1016D000ACEEB4EFA50194010E94DF0BDC01CB015D
:1016E0008C0D9D1DAE1DBF1DB7FF03C00197A10945
:1016F000B04888839983AA83BB839F77DF91CF917A
:10170000FF90EF90DF90CF90BF90AF909F908F9021
:1017100008950E94400B089587E091E00E94400BDD
:101720000895A0E0B0E08093070190930801A09392
:101730000901B0930A010895F999FECF92BD81BDC8
:10174000F89A992780B50895262FF999FECF1FBAE8
:1017500092BD81BD20BD0FB6F894FA9AF99A0FBEDA
:1017600001960895052E97FB1EF400940E94C90B64
:1017700057FD07D00E94E40B07FC03D04EF40C94F5
:10178000C90B50954095309521953F4F4F4F5F4F76
:10179000089590958095709561957F4F8F4F9F4FDD
:1017A00008950E940D09A59F900DB49F900DA49FD0
:1017B000800D911D11240895B7FF0C94D10B0E9448
:1017C000D10B821B930B0895A1E21A2EAA1BBB1BFF
:1017D000FD010DC0AA1FBB1FEE1FFF1FA217B307FD
:1017E000E407F50720F0A21BB30BE40BF50B661F13
:1017F000771F881F991F1A9469F7609570958095D7
:1018000090959B01AC01BD01CF010895F894FFCFE5
:0C181000AA2801250124010100000000AD
:00000001FF
