:107000000C9434380C9451380C9451380C945138F9
:107010000C9451380C9451380C9451380C945138CC
:107020000C9451380C9451380C9451380C9490397C
:107030000C9451380C9451380C9470390C9451388C
:107040000C9451380C9451380C9451380C9451389C
:107050000C9451380C9451380C9451380C94B2392A
:107060000C9451380C94513811241FBECFEFD8E046
:10707000DEBFCDBF11E0A0E0B1E0E2E0F6E702C084
:1070800005900D92A630B107D9F721E0A6E0B1E056
:1070900001C01D92A63CB207E1F70E94B13A0C94E0
:1070A000FF3A0C94003881E085BF15BE0C940000B7
:1070B0000895FC018185813809F0A0C0F093250175
:1070C000E093240180819091AD01981731F0809375
:1070D000AD011092280110922701218130E08281B8
:1070E0009381D901AA0FBB1FA75DBE4F8D939C93BF
:1070F00084819581D901AA0FBB1FA55DBE4F8D93D9
:107100009C9386819781220F331FF901E35DFE4F27
:107110009183808380912701909128010696909316
:107120002801809327018038910508F464C080917C
:10713000AD01E82FE695E695E695F0E0EA5FFE4FB3
:10714000208130E0982F977002C0359527959A9549
:10715000E2F720FD50C0F999FECF20E8829FC001E0
:10716000112423E0FC0120935700E89507B600FCAA
:10717000FDCFA9E2B1E0BC016952714021E0FB0101
:10718000EA0FFB1F4D915D910A0120935700E8958E
:107190001124F1E0A93ABF0791F725E0FC01209303
:1071A0005700E89507B600FCFDCF81E180935700BA
:1071B000E8958CE00E9471398091AD01E82FE69549
:1071C000E695E695F0E0EA5FFE4F282F277081E014
:1071D00090E001C0880F2A95EAF79081892B80837F
:1071E000809123018F5F8093230190912601891361
:1071F00018C00C94533880E10C947139823841F4F2
:107200008081809326019091230198130AC0F1CFC9
:10721000803819F40C940038089580912301882354
:1072200041F30895089580E090E008950895F8945A
:1072300014B817B81AB815B818B81BB8529A5A9A91
:1072400014BC85E085BD8FEF87BD82E080936E0022
:1072500010928000109281002FE83BE0309389006B
:107260002093880080936F005398239891EA90931D
:10727000B0008093B1001092B4001092B3008BE084
:1072800080BF83E080937F0086E080937C0083E86A
:1072900080937A0080917A00806480937A00809154
:1072A0007A0086FDFCCF10927C0083EA80937A00FE
:1072B00081E080937B0081E090E00E94F73A8F3F6D
:1072C00011F0809366001092B50181E08093AE01C9
:1072D0008093B6011092B0011092C5017894089580
:1072E000189580FF02C0559A01C0559881FF02C0D1
:1072F000549A01C0549882FF02C03B9A01C03B9847
:1073000083FF02C03A9A01C03A9884FF02C03D9AB6
:1073100001C03D9885FF02C03C9A08953C980895AD
:107320001F920F920FB60F9211248F939F9310927A
:107330008100109285001092840081E08093AE015C
:107340008093B6011092B50110927C0093EA90935D
:107350007A0080937B009F918F910F900FBE0F90CA
:107360001F9018951F920F920FB60F9211240F9332
:107370001F932F933F934F935F936F937F938F93BD
:107380009F93AF93BF93EF93FF932091840030912D
:10739000850041E04093B5018091AE01882321F141
:1073A0001092850010928400409381001092C501D4
:1073B0001092AE018091B601882309F4A3C0809198
:1073C0007A0086FDFCCF80917800909179009093AF
:1073D000B4018093B30181E080937C0093EA9093A1
:1073E0007A0080937B008EC0C90187589109843749
:1073F0009940A0F0109281001092850010928400B4
:107400004093AE014093B6011092B50110927C00FA
:1074100083EA80937A0040937B0074C02658310938
:10742000A4EFB0E00E94E83A8C012227332708300D
:1074300011052105310560F481E090E001C0880F5D
:107440000A95EAF79091C501892B8093C5015AC02E
:107450004093AE018091B601882341F180917A007A
:1074600086FDFCCF80917800909179009093B201D5
:107470008093B10110927C0083EA80937A0081E0CE
:1074800080937B009091C501992359F0109281005F
:1074900010928500109284008093B6011092B5017D
:1074A00031C01092B6011092B0012CC08091B00191
:1074B000E82FF0E0E954FE4F9091C50190838F5F73
:1074C0008093B0018C30F1F410928100109285000D
:1074D000109284004093B6011092B5010091C10151
:1074E0001091C20187EB91E00E94953A08171907A5
:1074F00049F4E0910401F091050161EB71E087EB43
:1075000091E00995FF91EF91BF91AF919F918F917C
:107510007F916F915F914F913F912F911F910F91AB
:107520000F900FBE0F901F901895FC019C01265FD5
:107530003F4F8FEF9FEF41918427082E8295807FE8
:107540008025092E982F82958F700826869598277A
:107550008927880F880F880F8025E217F30759F7CE
:107560000895F89481E085BF82E085BFE6E0F1E010
:1075700021E0E232F20711F01192FACF8CED809304
:107580002601109223011092AD0110922801109251
:107590002701789489E598E390930501809304018D
:1075A0000E94173980E30E9471398FE097E20197BA
:1075B000F1F700C0000080E00E9471399FEF29E6DA
:1075C00088E1915020408040E1F700C00000EACF00
:1075D000A29FB001B39FC001A39F700D811D112414
:1075E000911DB29F700D811D1124911D0895F9996F
:1075F000FECF92BD81BDF89A992780B50895F89481
:02760000FFCFBA
:067602001639133912399C
:040000030000700089
:00000001FF
