:100000000C9446000C946F000C946F000C946F00DD
:100010000C946F000C946F000C9479010C946F0099
:100020000C946F000C946F000C946F000C94970567
:100030000C946F000C946F000C94F1030C946F00FF
:100040000C946F000C946F000C946F000C946F0074
:100050000C946F000C946F000C946F000C94B90515
:100060000C946F000C946F00A004F7040B053C0582
:10007000430522054605A40695079507AD06B0067B
:10008000B306B506B706B9066A07CB0611241FBE2C
:10009000CFEFD8E0DEBFCDBF14BE0FB6F894A89561
:1000A00080916000886180936000109260000FBEB4
:1000B00011E0A0E0B1E0EAEDF6E102C005900D929A
:1000C000AC30B107D9F721E0ACE0B1E001C01D923E
:1000D000AB37B207E1F70E9447080C946B0B0C9406
:1000E0000000FC019CE0A1E1B1E001900D929A9525
:1000F000E1F781E080930C010895089580910C014F
:10010000813061F410920C0181E10E946D048AE05B
:1001100090E00E94900180E00C946D040895089591
:1001200080E090E008950895DF92EF92FF920F93A0
:100130001F93CF93DF93F89414B817B81AB815B873
:1001400018B81BB8529A5A9A14BC85E085BD8FEF37
:1001500087BD82E080936E00109280001092810033
:100160002FE83BE0309389002093880080936F0054
:100170005398239891EA9093B0008093B100109225
:10018000B4001092B3008BE080BF83E080937F00C7
:1001900086E080937C0083E880937A0080917A00E7
:1001A000806480937A0080917A0086FDFCCF109263
:1001B0007C0083EA80937A0081E080937B0081E079
:1001C00090E00E94010B8F3F11F080936600109227
:1001D0004401C1E0C0931D01C093610110923B0135
:1001E0001092750180E990E00E94010B80933A0122
:1001F00080913A01887311F0C0933A011092650121
:10020000109264018FEF90E09093630180936201FC
:10021000109240011092410110924201109243014C
:1002200081E08093100182E49FE0909374018093B9
:10023000730180EB90E00E94010BC82F81EB90E0EE
:100240000E94010B2C2F30E0382B30937701209344
:10025000760185E090E00E94010B80937A0189E0AD
:1002600090E00E94010B809366018CE090E00E9478
:10027000010B8093780184E190E00E94010B809350
:10028000790105E411E05EE1E52E51E0F52EC0E2D2
:10029000D0E0CE010E94010BD82ECE0101960E9423
:1002A000010B2D2D30E0322F2227282BF80121932E
:1002B00031938F01CE01C0960E94010BD82ECE0142
:1002C000C1960E94010B2D2D30E0322F2227282BC2
:1002D000F701219331937F012296CC33D105C9F6E2
:1002E0007894DF91CF911F910F91FF90EF90DF9065
:1002F00008951F920F920FB60F9211248F930FB68D
:10030000F894A895809160008861809360001092B5
:1003100060000FBE8F910F900FBE0F901F90189529
:10032000009741F0EFECF7E03197F1F700C00000E3
:100330000197F6CF08958093B3006093B4000895B9
:100340008FEF8093B3008093B4008FE090E00C9423
:1003500090018091440181111EC0F89487E0809340
:100360007C0083E880937A0080917A008064809397
:100370007A0080917A0086FDFCCF80917800909180
:10038000790010927C0023EA20937A0021E02093E8
:100390007B00789408958FEF9FEF0895809144013A
:1003A00081111EC0F89488EC80937C0087E88093CC
:1003B0007A0080917A00806480937A0080917A003C
:1003C00086FDFCCF809178009091790010927C009E
:1003D00023EA20937A0021E020937B00789408950B
:1003E0008FEF9FEF0895CF93DF9320E030E080E020
:1003F000E3EAF1E0C6E0D3E8A1E0B0E090E0F894F1
:10040000C0937C00D0937A0040917A00406440937E
:100410007A0040917A0046FDFCCF409178005091DF
:100420007900417050917A00506450937A00509155
:100430007A0056FDFCCF609178007091790010929F
:100440007C00E0937A00F0937B0078949F5F61706A
:10045000461751F0442359F0AD01022E01C0440F5C
:100460000A94EAF7842B03C0903849F6F3CF2F5F44
:100470003F4F2830310509F0C1CFDF91CF9108956A
:100480008091000198E0899F900111242827909184
:100490000D0181E0890F80930D01822F8295869551
:1004A0008770282796959695822F8927809300013B
:1004B000089580930001089580914401811116C030
:1004C000F89486E080937C0083E880937A008091A2
:1004D0007A00806480937A0080917A0086FDFCCF58
:1004E0008091780090917900789408958FEF9FEF34
:1004F00008952F923F924F925F926F927F928F92C8
:100500009F92AF92BF92CF92DF92EF92FF920F93A2
:100510001F93CF93DF931C01FC01C281D381C438A8
:10052000F3E0DF070CF07EC080911E0190911F0167
:100530008C179D0708F46FC0E0E2F1E011E08191B3
:1005400091918C179D0720F01F5F1E30C1F71DE0B1
:10055000812F90E0FC01EE0FFF1FE25EFE4FE08076
:10056000F180880F991FFC01E45EFE4F808191812C
:10057000B701681B790B80E090E00E94AA099B01FB
:10058000AC010E9496084B015C01BE010D2E000CCF
:10059000880B990B0E94AC092B013C01B70180E04C
:1005A00090E00E94AA096B017C01612F70E080E05D
:1005B00090E00E94AA0920E030E040E05FE30E9462
:1005C000380A20E030E0A9010E949608A5019401B4
:1005D0000E94380A9B01AC01C701B6010E94950830
:1005E0009B01AC01C301B2010E94950820E030E0FC
:1005F00040E251E40E94380A0E9474097B01C5015F
:10060000B4010E947409AB01BC01C701BA010E9488
:100610005808162F01C010E0CD3B82E0D8070CF43B
:10062000CAC001C01FEFF101C080D1808091450197
:10063000909146018C159D0588F0E7E4F1E081E09A
:1006400090E0382EE190F190EC14FD0408F458C0CD
:1006500001968E309105A9F70AE501C000E01F3F21
:1006600009F44BC0BE01DD0F880B990B0E94AC0949
:100670006B017C01612F70E080E090E00E94AA098C
:100680004B015C01A701960160E070E081E694E413
:100690000E9495089B01AC01C501B4010E94380A73
:1006A0004B015C01602F70E080E090E00E94AA099D
:1006B0002B013C0120E030E04FE254E4C701B601D9
:1006C0000E9495089B01AC01C301B2010E94380A47
:1006D0009B01AC01C501B4010E94960820E030E006
:1006E00048E453E40E94020920E030E044E052E490
:1006F0000E9496080E947B0960C061E2600F5DC0A5
:10070000880F991FFC01ED5BFE4F80819181B7013D
:10071000681B790B80E090E00E94AA099B01AC0164
:100720000E9496084B015C01B601DD0C880B990B09
:100730000E94AC092B013C01B70180E090E00E94CF
:10074000AA096B017C01632D70E080E090E00E94BB
:10075000AA0920E030E040E05FE30E94380A20E090
:1007600030E0A9010E949608A50194010E94380A70
:100770009B01AC01C701B6010E9495089B01AC0129
:10078000C301B2010E94950820E030E040E251E44C
:100790000E94380A0E9474097B01C501B4010E94BD
:1007A0007409AB01BC01C701BA010E945808062FA9
:1007B0006F3F09F054CF61E2610F862FDF91CF9137
:1007C0001F910F91FF90EF90DF90CF90BF90AF906F
:1007D0009F908F907F906F905F904F903F902F9061
:1007E00008951F920F920FB60F9211242F933F93EB
:1007F0004F935F936F937F938F939F93AF93BF9329
:10080000EF93FF9320916401309165018091620123
:1008100090916301820F931F90936501809364010F
:100820008FEF90E090936301809362018FEF87BD1B
:100830008091400190914101A0914201B09143010A
:100840000196A11DB11D8093400190934101A09399
:100850004201B09343018091440181112DC08091E8
:1008600073019091740120916401309165018217A8
:10087000930710F5809110018430F1F4E0910301A9
:10088000F091040109950097B9F00E94C4078823EC
:1008900051F0E0910101F09102010995109265017A
:1008A0001092640109C00E94F10A9C013327309321
:1008B00063012093620187BDFF91EF91BF91AF91DA
:1008C0009F918F917F916F915F914F913F912F9168
:1008D0000F900FBE0F901F90189580FF02C0559A81
:1008E00001C0559881FF02C0549A01C0549882FFFC
:1008F00002C03B9A01C03B9883FF02C03A9A01C0F4
:100900003A9884FF02C03D9A01C03D9885FF02C01D
:100910003C9A08953C9808958C017B01D0E0CFEF7C
:1009200084E0D82E98E1C92E29E2B22EE091100180
:10093000F0E0E730F105D0F7EC5CFF4F0C946C0869
:10094000F89480B7877F80BF80917A008F778093FB
:100950007A0014B817B81AB815B818B81BB80FB67B
:10096000F894A895C09260000FBEB092600080918C
:10097000600080648093600083B7817F846083BF60
:10098000F89483B7816083BF7894889583B78E7F0E
:1009900083BF789410924401529A5A9A80917A00B7
:1009A000806880937A0087E592E00197F1F700C0B4
:1009B000000080B7886180BF8FE30E946D04EFE183
:1009C000FEE43197F1F700C00000809144018823D4
:1009D00009F450C083E00E946D04FFEF20E782E03D
:1009E000F15020408040E1F700C0000043C08CE09F
:1009F0000E946D04EFECF7E03197F1F700C00000C2
:100A000080E00E946D04FFEF21EE84E0F150204071
:100A10008040E1F72CC00E945C028B3AE2E09E0726
:100A200024F08CE00E946D0481CF8938F2E09F07AA
:100A300014F080E3F7CF8736924014F08FE0F2CFC6
:100A400083E0F0CF489916C081E00E946D048FECDE
:100A500097E00197F1F700C0000080E00E946D046C
:100A60009FEFE1EEF4E09150E040F040E1F700C08C
:100A700000005CCF80E0D6CFD11102C0F80109950B
:100A8000D0921001D1E0F701099550CF80910E016D
:100A9000811107C01092B3001092B40010920F01A0
:100AA00045CF90910E0180910F01981709F43ECF28
:100AB00080910E0180930F0180910E01813089F4A5
:100AC000C093B3001092B4008FE295E70197F1F75D
:100AD00000C0000080917A018093B3001092B400AE
:100AE00025CF80910E011092B300C093B4008230E4
:100AF00059F4EFE2F5E73197F1F700C0000080917B
:100B000066011092B30010C0C093B300C093B4004C
:100B10008FE295E70197F1F700C00000809179011D
:100B2000909178019093B3008093B400FFCE1F9210
:100B30000F920FB60F9211248F939F931092810002
:100B4000109285001092840081E080931D018093B3
:100B500061011092440110927C0093EA90937A0014
:100B600080937B009F918F910F900FBE0F901F90ED
:100B700018951F920F920FB60F9211240F931F9387
:100B80002F933F934F935F936F937F938F939F9395
:100B9000AF93BF93EF93FF93209184003091850032
:100BA00041E04093440180911D01882321F110927E
:100BB000850010928400409381001092750110927C
:100BC0001D0180916101882309F4AFC180917A00F1
:100BD00086FDFCCF809178009091790090933F0141
:100BE00080933E0181E080937C0093EA90937A00A9
:100BF00080937B009AC1C901875891098437994035
:100C0000A0F0109281001092850010928400409311
:100C10001D01409361011092440110927C0083EA0F
:100C200080937A0040937B0080C126583109A4EF5D
:100C3000B0E00E9472088C0122273327083060F44C
:100C400081E090E001C0880F0A95EAF79091750164
:100C5000892B8093750169C140931D0180916101C9
:100C6000882341F180917A0086FDFCCF8091780045
:100C70009091790090933D0180933C0110927C000B
:100C800083EA80937A0081E080937B0090917501E4
:100C9000992359F0109281001092850010928400DF
:100CA000809361011092440140C110926101109241
:100CB0003B013BC180913B01E82FF0E0E959FE4F39
:100CC0009091750190838F5F80933B018C3009F088
:100CD0002CC11092810010928500109284004093E4
:100CE000610110924401009171011091720187E637
:100CF00091E00E94A8070817190709F016C1E091B2
:100D00007001E7FD0AC0E0910501F09106016CE376
:100D100071E087E691E0099508C188E78E0F83307E
:100D200030F0539823981092B4001092B3008E2F95
:100D300090E0FC01E058F109EB30F10508F0F5C056
:100D4000E55CFF4F0C946C0880916E008D7F809362
:100D50006E0016BCE0E0F0E702C0E0E0F0E00995CC
:100D600010921001E2C081E0B2C085E0B0C082E024
:100D7000AEC080911001833009F4D7C0809110017A
:100D8000843009F4D2C0539A239A1092B40010927E
:100D9000B30083E09CC080916701823009F44BC0AE
:100DA00080F48823A9F0813009F082C08091680125
:100DB00090916901909377018093760110920E01D2
:100DC00077C0833009F449C0843009F458C070C03A
:100DD00080911001863009F06BC06091760180EB44
:100DE00090E00E94090B6091770181EB90E00E94F6
:100DF000090B60917A0185E090E00E94090B6091F7
:100E0000660189E090E00E94090B609178018CE016
:100E100090E00E94090B6091790184E190E00E94CA
:100E2000090B539823981092B4001092B30081E0FC
:100E3000809310013DC090910E0180916A01913024
:100E400021F490917A01891799F110920F0191E0A4
:100E500090930E0180937A012BC090910E018091A6
:100E60006B01923021F490916601891709F110927B
:100E70000F0192E090930E018093660119C02091BA
:100E80000E0180916D0190916C01233041F420910D
:100E90007901821304C020917801921749F01092D1
:100EA0000F0123E020930E01909378018093790144
:100EB000809167018823C9F1809110018630A9F1E2
:100EC000539A239A1092B4001092B30086E0809354
:100ED00010012BC080911001863081F0539A239A23
:100EE0001092B4001092B30080E00E946D04109242
:100EF0000E0110920F0186E08093100181E090E0D6
:100F00000090670102C0880F991F0A94E2F72091B0
:100F100076013091770182239323892B21F081E0A0
:100F200080930E0102C010920E01FF91EF91BF91CC
:100F3000AF919F918F917F916F915F914F913F9171
:100F40002F911F910F910F900FBE0F901F9018952A
:100F5000FC019C01265F3F4F8FEF9FEF419184275B
:100F6000082E8295807F8025092E982F82958F707C
:100F70000826869598278927880F880F880F80254F
:100F8000E217F30759F708950FB6F894A4B120912A
:100F90003A012A2B24B921E030913A01203029F07E
:100FA000000025B1232B25B904C00000000000007B
:100FB00000C0000000000000309525B1232325B9B2
:100FC0002EEA2A95F1F72BEE30B735FF0AC0A4B907
:100FD00030913A01309525B1232325B90FBE80E029
:100FE000089500002A9581F721E030913A012030E0
:100FF00029F0000025B1232B25B904C00000000012
:10100000000000C0000000000000309525B123233F
:1010100025B9000024E52A95F1F7FC018CE06191E7
:1010200070E0660F771F616072609AE041E050E007
:101030009A0126233723232B30913A01203029F0BF
:10104000000025B1232B25B904C0000000000000DA
:1010500000C0000000000000309525B1232325B911
:10106000000021E52A95F1F7440F551F9A9501F7E5
:101070008A95A9F620B7206120BFA4B930913A0122
:10108000309525B1232325B90FBE81E008950E9434
:10109000940081E790E090930601809305016EE74C
:1010A00070E08DE790E00E948C0480E090E008956D
:1010B00097FB072E16F4009407D077FD09D00E9405
:1010C000810807FC05D03EF4909581959F4F0895C7
:1010D000709561957F4F0895EE0FFF1F0590F49175
:1010E000E02D0994A29FB001B39FC001A39F700D92
:1010F000811D1124911DB29F700D811D1124911D20
:101100000895AA1BBB1B51E107C0AA1FBB1FA6174E
:10111000B70710F0A61BB70B881F991F5A95A9F7A0
:1011200080959095BC01CD0108955058BB27AA2702
:101130000E94AD080C94FE090E94F00938F00E944C
:10114000F70920F039F49F3F19F426F40C94ED09C7
:101150000EF4E095E7FB0C94E709E92F0E940F0AD3
:1011600058F3BA17620773078407950720F079F4DC
:10117000A6F50C94310A0EF4E0950B2EBA2FA02D93
:101180000B01B90190010C01CA01A0011124FF2734
:10119000591B99F0593F50F4503E68F11A16F0402F
:1011A000A22F232F342F4427585FF3CF469537952E
:1011B0002795A795F0405395C9F77EF41F16BA0BF3
:1011C000620B730B840BBAF09150A1F0FF0FBB1FA1
:1011D000661F771F881FC2F70EC0BA0F621F731FEA
:1011E000841F48F4879577956795B795F7959E3F47
:1011F00008F0B0CF9395880F08F09927EE0F9795D8
:10120000879508950E9416090C94FE090E94F7091B
:1012100058F00E94F00940F029F45F3F29F00C9447
:10122000E70951110C94320A0C94ED090E940F0A3F
:1012300068F39923B1F3552391F3951B550BBB2705
:10124000AA2762177307840738F09F5F5F4F220F4A
:10125000331F441FAA1FA9F335D00E2E3AF0E0E841
:1012600032D091505040E695001CCAF72BD0FE2F8B
:1012700029D0660F771F881FBB1F2617370748071F
:10128000AB07B0E809F0BB0B802DBF01FF279358D7
:101290005F4F3AF09E3F510578F00C94E7090C94AB
:1012A000320A5F3FE4F3983ED4F3869577956795CD
:1012B000B795F7959F5FC9F7880F911D969587950C
:1012C00097F90895E1E0660F771F881FBB1F62172B
:1012D00073078407BA0720F0621B730B840BBA0BE9
:1012E000EE1F88F7E09508950E947B096894B1117C
:1012F0000C94320A08950E94170A88F09F5798F0BC
:10130000B92F9927B751B0F0E1F0660F771F881F0A
:10131000991F1AF0BA95C9F714C0B13091F00E9424
:10132000310AB1E008950C94310A672F782F88278D
:10133000B85F39F0B93FCCF3869577956795B3954B
:10134000D9F73EF490958095709561957F4F8F4FBA
:101350009F4F0895E89409C097FB3EF490958095BF
:10136000709561957F4F8F4F9F4F9923A9F0F92F6B
:1013700096E9BB279395F695879577956795B795E9
:10138000F111F8CFFAF4BB0F11F460FF1BC06F5FCF
:101390007F4F8F4F9F4F16C0882311F096E911C0E1
:1013A000772321F09EE8872F762F05C0662371F002
:1013B00096E8862F70E060E02AF09A95660F771F16
:1013C000881FDAF7880F9695879597F9089597F90A
:1013D0009F6780E870E060E008959FEF80EC0895DB
:1013E00000240A9416161706180609060895002404
:1013F0000A9412161306140605060895092E03947E
:10140000000C11F4882352F0BB0F40F4BF2B11F4F1
:1014100060FF04C06F5F7F4F8F4F9F4F089557FD50
:101420009058440F551F59F05F3F71F04795880F52
:1014300097FB991F61F09F3F79F0879508951216E9
:1014400013061406551FF2CF4695F1DF08C0161695
:1014500017061806991FF1CF869571056105089446
:101460000895E894BB2766277727CB0197F908955D
:101470000E944B0A0C94FE090E94F00938F00E9469
:10148000F70920F0952311F00C94E7090C94ED096D
:1014900011240C94320A0E940F0A70F3959FC1F335
:1014A000950F50E0551F629FF001729FBB27F00D12
:1014B000B11D639FAA27F00DB11DAA1F649F662767
:1014C000B00DA11D661F829F2227B00DA11D621FB6
:1014D000739FB00DA11D621F839FA00D611D221F70
:1014E000749F3327A00D611D231F849F600D211D54
:1014F000822F762F6A2F11249F5750409AF0F1F0D7
:1015000088234AF0EE0FFF1FBB1F661F771F881F3F
:1015100091505040A9F79E3F510580F00C94E70987
:101520000C94320A5F3FE4F3983ED4F386957795A6
:101530006795B795F795E7959F5FC1F7FE2B880FE5
:10154000911D9695879597F908958F929F92AF92E6
:10155000BF92CF92DF92EF92FF92CF93DF93EC0195
:10156000688179818A819B81611571058105910569
:1015700021F464E279ED8BE597E02DE133EF41E072
:1015800050E00E94170B49015A019B01AC01A7EAE8
:10159000B1E40E94360B6B017C01ACEEB4EFA50107
:1015A00094010E94440BDC01CB018C0D9D1DAE1DEE
:1015B000BF1DB7FF03C00197A109B0488883998375
:1015C000AA83BB839F77DF91CF91FF90EF90DF904D
:1015D000CF90BF90AF909F908F9008950E94A50AE2
:1015E000089587E091E00E94A50A0895A0E0B0E088
:1015F0008093070190930801A0930901B0930A0119
:101600000895F999FECF92BD81BDF89A992780B5CA
:101610000895262FF999FECF1FBA92BD81BD20BD36
:101620000FB6F894FA9AF99A0FBE01960895052E0E
:1016300097FB1EF400940E942E0B57FD07D00E94CA
:10164000490B07FC03D04EF40C942E0B509540959B
:10165000309521953F4F4F4F5F4F0895909580955E
:10166000709561957F4F8F4F9F4F08950E9472082C
:10167000A59F900DB49F900DA49F800D911D1124E6
:101680000895B7FF0C94360B0E94360B821B930B08
:101690000895A1E21A2EAA1BBB1BFD010DC0AA1FB3
:1016A000BB1FEE1FFF1FA217B307E407F50720F0CB
:1016B000A21BB30BE40BF50B661F771F881F991F46
:1016C0001A9469F760957095809590959B01AC018F
:0A16D000BD01CF010895F894FFCF8B
:0C16DA00AA930090008F000100000000A7
:00000001FF
