:100000000C9446000C946F000C946F000C946F00DD
:100010000C946F000C946F000C9472020C946F009F
:100020000C946F000C946F000C946F000C9490066D
:100030000C946F000C946F000C94EA040C946F0005
:100040000C946F000C946F000C946F000C946F0074
:100050000C946F000C946F000C946F000C94B2061B
:100060000C946F000C946F009905F005040635069A
:100070003C061B063F069D078E088E08A607A907AB
:10008000AC07AE07B007B2076308C40711241FBE50
:10009000CFEFD8E0DEBFCDBF14BE0FB6F894A89561
:1000A00080916000886180936000109260000FBEB4
:1000B00011E0A0E0B1E0E4EEF8E102C005900D929D
:1000C000A231B107D9F721E0A2E1B1E001C01D9250
:1000D000AD38B207E1F70E9440090C94700C0C9403
:1000E000000081E0809313010895FC01208130E03D
:1000F000F901E65DFE4F4081411106C041E04083B9
:10010000F901EB5DFE4F4083DC011196E5E2F1E081
:100110008D91813021F49081913009F08083319666
:1001200081E0EA32F807A1F781E080931401089595
:10013000109222012091880130918901A5E2B1E05D
:10014000EAE2F1E080E090E041E02817390719F495
:100150004C93408302C01C921082019611963196F6
:100160008530910591F720931901809125018093A5
:100170001A018091260180931B01809127018093B1
:100180001C018091280180931D0180912901809399
:100190001E01109220011092210189E191E00E943C
:1001A000A10890932401809323010895CF93DF93B6
:1001B000C9E1D1E01986809188018883E5E2F1E008
:1001C0008081898381818A8382818B8383818C83EF
:1001D00084818D83CE010E94A1089B878A87CE01EE
:1001E000DF91CF910895FC01680F791F80E0E61739
:1001F000F70719F09191890FFACF0895833089F0AC
:1002000028F4813041F0823049F00895843061F063
:10021000853069F00895809100010BC08091010143
:1002200008C08091020105C08091030102C0809145
:1002300004010C9466054091520150915301609164
:1002400054017091550180911201481B51096109B7
:1002500071098091050190E0A0E0B0E08417950756
:10026000A607B70708F045C02091880130918901A1
:10027000A5E2B1E0EAE2F1E080E090E041E0281799
:10028000390719F44C93408302C01C9210820196E6
:10029000119631968530910591F780915201909198
:1002A0005301A0915401B091550180931201209304
:1002B00019018091250180931A0180912601809374
:1002C0001B018091270180931C018091280180935C
:1002D0001D018091290180931E011092200110922E
:1002E000210189E191E00E94A1089093240180936B
:1002F000230165E070E085E291E00E94F3008093C5
:1003000006010E94FE00109213011092140108953C
:10031000089580E090E008950895DF92EF92FF92B3
:100320000F931F93CF93DF93F89414B817B81AB8AC
:1003300015B818B81BB8529A5A9A14BC85E085BDF6
:100340008FEF87BD82E080936E0010928000109244
:1003500081002FE83BE03093890020938800809350
:100360006F005398239891EA9093B0008093B10066
:100370001092B4001092B3008BE080BF83E08093B2
:100380007F0086E080937C0083E880937A008091F0
:100390007A00806480937A0080917A0086FDFCCF99
:1003A00010927C0083EA80937A0081E080937B0046
:1003B00081E090E00E94060C8F3F11F08093660070
:1003C00010925601C1E0C0932F01C09373011092A7
:1003D0004D011092870180E990E00E94060C809305
:1003E0004C0180914C01887311F0C0934C01109224
:1003F0007701109276018FEF90E0909375018093D2
:1004000074011092520110925301109254011092F3
:10041000550181E08093180182E49FE0909386016A
:100420008093850180EB90E00E94060CC82F81EB41
:1004300090E00E94060C2C2F30E0382B309389017D
:100440002093880185E090E00E94060C80938C0147
:1004500089E090E00E94060C809378018CE090E0A7
:100460000E94060C80938A0184E190E00E94060CB1
:1004700080938B0107E511E050E3E52E51E0F52E66
:10048000C0E2D0E0CE010E94060CD82ECE0101962B
:100490000E94060C2D2D30E0322F2227282BF80148
:1004A000219331938F01CE01C0960E94060CD82E65
:1004B000CE01C1960E94060C2D2D30E0322F22274E
:1004C000282BF701219331937F012296CC33D1055C
:1004D000C9F67894DF91CF911F910F91FF90EF9023
:1004E000DF9008951F920F920FB60F9211248F93F1
:1004F0000FB6F894A89580916000886180936000A1
:10050000109260000FBE8F910F900FBE0F901F9042
:100510001895009741F0EFECF7E03197F1F700C044
:1005200000000197F6CF08958093B3006093B40064
:1005300008958FEF8093B3008093B4008FE090E034
:100540000C9489028091560181111EC0F89487E0B5
:1005500080937C0083E880937A0080917A008064A5
:1005600080937A0080917A0086FDFCCF809178009C
:100570009091790010927C0023EA20937A0021E088
:1005800020937B00789408958FEF9FEF08958091DA
:10059000560181111EC0F89488EC80937C0087E896
:1005A00080937A0080917A00806480937A008091B1
:1005B0007A0086FDFCCF80917800909179001092AE
:1005C0007C0023EA20937A0021E020937B0078943A
:1005D00008958FEF9FEF0895CF93DF9320E030E0F1
:1005E00080E0E3EAF1E0C6E0D3E8A1E0B0E090E02B
:1005F000F894C0937C00D0937A0040917A004064D4
:1006000040937A0040917A0046FDFCCF40917800FB
:1006100050917900417050917A00506450937A0063
:1006200050917A0056FDFCCF60917800709179006E
:1006300010927C00E0937A00F0937B0078949F5FA7
:100640006170461751F0442359F0AD01022E01C0EC
:10065000440F0A94EAF7842B03C0903849F6F3CF8D
:100660002F5F3F4F2830310509F0C1CFDF91CF9187
:1006700008958091070198E0899F9001112428270F
:100680009091150181E0890F80931501822F829549
:1006900086958770282796959695822F892780932F
:1006A00007010895809307010895809156018111F3
:1006B00016C0F89486E080937C0083E880937A00EB
:1006C00080917A00806480937A0080917A0086FD20
:1006D000FCCF8091780090917900789408958FEF05
:1006E0009FEF08952F923F924F925F926F927F9269
:1006F0008F929F92AF92BF92CF92DF92EF92FF9232
:100700000F931F93CF93DF931C01FC01C281D38110
:10071000C438F3E0DF070CF07EC080913001909187
:1007200031018C179D0708F46FC0E2E3F1E011E09E
:10073000819191918C179D0720F01F5F1E30C1F7AA
:100740001DE0812F90E0FC01EE0FFF1FE05DFE4FEA
:10075000E080F180880F991FFC01E25DFE4F8081EF
:100760009181B701681B790B80E090E00E94AF0A8D
:100770009B01AC010E949B094B015C01BE010D2E47
:10078000000C880B990B0E94B10A2B013C01B701A8
:1007900080E090E00E94AF0A6B017C01612F70E065
:1007A00080E090E00E94AF0A20E030E040E05FE3AC
:1007B0000E943D0B20E030E0A9010E949B09A501A9
:1007C00094010E943D0B9B01AC01C701B6010E9440
:1007D0009A099B01AC01C301B2010E949A0920E071
:1007E00030E040E251E40E943D0B0E94790A7B0117
:1007F000C501B4010E94790AAB01BC01C701BA016D
:100800000E945D09162F01C010E0CD3B82E0D807A1
:100810000CF4CAC001C01FEFF101C080D1808091EB
:100820005701909158018C159D0588F0E9E5F1E09C
:1008300081E090E0382EE190F190EC14FD0408F492
:1008400058C001968E309105A9F70AE501C000E075
:100850001F3F09F44BC0BE01DD0F880B990B0E94AE
:10086000B10A6B017C01612F70E080E090E00E9492
:10087000AF0A4B015C01A701960160E070E081E6E0
:1008800094E40E949A099B01AC01C501B4010E9445
:100890003D0B4B015C01602F70E080E090E00E9416
:1008A000AF0A2B013C0120E030E04FE254E4C701E5
:1008B000B6010E949A099B01AC01C301B2010E94DA
:1008C0003D0B9B01AC01C501B4010E949B0920E0D6
:1008D00030E048E453E40E94070A20E030E044E0BE
:1008E00052E40E949B090E94800A60C061E2600F8E
:1008F0005DC0880F991FFC01EB5AFE4F80819181EA
:10090000B701681B790B80E090E00E94AF0A9B0161
:10091000AC010E949B094B015C01B601DD0C880B08
:10092000990B0E94B10A2B013C01B70180E090E0D5
:100930000E94AF0A6B017C01632D70E080E090E0C3
:100940000E94AF0A20E030E040E05FE30E943D0BF0
:1009500020E030E0A9010E949B09A50194010E94BA
:100960003D0B9B01AC01C701B6010E949A099B0196
:10097000AC01C301B2010E949A0920E030E040E2DC
:1009800051E40E943D0B0E94790A7B01C501B4012C
:100990000E94790AAB01BC01C701BA010E945D093E
:1009A000062F6F3F09F054CF61E2610F862FDF9170
:1009B000CF911F910F91FF90EF90DF90CF90BF905C
:1009C000AF909F908F907F906F905F904F903F90EF
:1009D0002F9008951F920F920FB60F9211242F930C
:1009E0003F934F935F936F937F938F939F93AF93B7
:1009F000BF93EF93FF93209176013091770180911F
:100A0000740190917501820F931F909377018093E9
:100A100076018FEF90E090937501809374018FEFD2
:100A200087BD8091520190915301A0915401B091E2
:100A300055010196A11DB11D809352019093530160
:100A4000A0935401B09355018091560181112DC09E
:100A500080918501909186012091760130917701F6
:100A60008217930710F5809118018430F1F4E0911A
:100A70000A01F0910B0109950097B9F00E94BD0899
:100A8000882351F0E0910801F09109010995109235
:100A900077011092760109C00E94F60B9C01332762
:100AA000309375012093740187BDFF91EF91BF9141
:100AB000AF919F918F917F916F915F914F913F91F6
:100AC0002F910F900FBE0F901F90189580FF02C0BE
:100AD000559A01C0559881FF02C0549A01C054989C
:100AE00082FF02C03B9A01C03B9883FF02C03A9A42
:100AF00001C03A9884FF02C03D9A01C03D9885FF2D
:100B000002C03C9A08953C9808958C017B01D0E086
:100B1000CFEF84E0D82E98E1C92E29E2B22EE091E1
:100B20001801F0E0E730F105D0F7EC5CFF4F0C94D2
:100B30007109F89480B7877F80BF80917A008F77A2
:100B400080937A0014B817B81AB815B818B81BB83B
:100B50000FB6F894A895C09260000FBEB0926000E6
:100B60008091600080648093600083B7817F84609F
:100B700083BFF89483B7816083BF7894889583B7E7
:100B80008E7F83BF789410925601529A5A9A809120
:100B90007A00806880937A0087E592E00197F1F708
:100BA00000C0000080B7886180BF8FE30E946605A7
:100BB000EFE1FEE43197F1F700C0000080915601AB
:100BC000882309F450C083E00E946605FFEF20E708
:100BD00082E0F15020408040E1F700C0000043C0B7
:100BE0008CE00E946605EFECF7E03197F1F700C06A
:100BF000000080E00E946605FFEF21EE84E0F150E6
:100C000020408040E1F72CC00E9455038B3AE2E07F
:100C10009E0724F08CE00E94660581CF8938F2E0BF
:100C20009F0714F080E3F7CF8736924014F08FE0EF
:100C3000F2CF83E0F0CF489916C081E00E946605AC
:100C40008FEC97E00197F1F700C0000080E00E9470
:100C500066059FEFE1EEF4E09150E040F040E1F7EF
:100C600000C000005CCF80E0D6CFD11102C0F801F7
:100C70000995D0921801D1E0F701099550CF8091E4
:100C80001601811107C01092B3001092B4001092A7
:100C9000170145CF9091160180911701981709F41B
:100CA0003ECF80911601809317018091160181300B
:100CB00089F4C093B3001092B4008FE295E70197D6
:100CC000F1F700C0000080918C018093B300109276
:100CD000B40025CF809116011092B300C093B400E8
:100CE000823059F4EFE2F5E73197F1F700C00000E8
:100CF000809178011092B30010C0C093B300C093EC
:100D0000B4008FE295E70197F1F700C000008091F1
:100D10008B0190918A019093B3008093B400FFCE31
:100D20001F920F920FB60F9211248F939F931092E0
:100D30008100109285001092840081E080932F0141
:100D4000809373011092560110927C0093EA909365
:100D50007A0080937B009F918F910F900FBE0F9030
:100D60001F9018951F920F920FB60F9211240F9398
:100D70001F932F933F934F935F936F937F938F9323
:100D80009F93AF93BF93EF93FF9320918400309193
:100D9000850041E04093560180912F01882321F185
:100DA0001092850010928400409381001092870178
:100DB00010922F0180917301882309F4AFC18091B3
:100DC0007A0086FDFCCF8091780090917900909315
:100DD00051018093500181E080937C0093EA9093CD
:100DE0007A0080937B009AC1C901875891098437A2
:100DF0009940A0F01092810010928500109284001A
:100E000040932F01409373011092560110927C0081
:100E100083EA80937A0040937B0080C12658310991
:100E2000A4EFB0E00E9477098C0122273327083015
:100E300060F481E090E001C0880F0A95EAF7909194
:100E40008701892B8093870169C140932F0180918D
:100E50007301882341F180917A0086FDFCCF809157
:100E600078009091790090934F0180934E011092F9
:100E70007C0083EA80937A0081E080937B009091EC
:100E80008701992359F010928100109285001092E9
:100E90008400809373011092560140C11092730137
:100EA00010924D013BC180914D01E82FF0E0E758D1
:100EB000FE4F9091870190838F5F80934D018C301E
:100EC00009F02CC1109281001092850010928400CC
:100ED0004093730110925601009183011091840197
:100EE00089E791E00E94A1080817190709F016C1C7
:100EF000E0918201E7FD0AC0E0910C01F0910D0143
:100F00006EE471E089E791E0099508C188E78E0FEA
:100F1000833030F0539823981092B4001092B300AD
:100F20008E2F90E0FC01E058F109EB30F10508F05C
:100F3000F5C0E55CFF4F0C94710980916E008D7FC8
:100F400080936E0016BCE0E0F0E702C0E0E0F0E065
:100F5000099510921801E2C081E0B2C085E0B0C0EE
:100F600082E0AEC080911801833009F4D7C080912F
:100F70001801843009F4D2C0539A239A1092B40015
:100F80001092B30083E09CC080917901823009F413
:100F90004BC080F48823A9F0813009F082C0809191
:100FA0007A0190917B01909389018093880110923E
:100FB000160177C0833009F449C0843009F458C061
:100FC00070C080911801863009F06BC06091880173
:100FD00080EB90E00E940E0C6091890181EB90E023
:100FE0000E940E0C60918C0185E090E00E940E0C36
:100FF0006091780189E090E00E940E0C60918A0176
:101000008CE090E00E940E0C60918B0184E190E0F6
:101010000E940E0C539823981092B4001092B300C3
:1010200081E0809318013DC09091160180917C0170
:10103000913021F490918C01891799F11092170148
:1010400091E09093160180938C012BC09091160132
:1010500080917D01923021F490917801891709F1F6
:101060001092170192E0909316018093780119C0B5
:101070002091160180917F0190917E01233041F4EF
:1010800020918B01821304C020918A01921749F0AC
:101090001092170123E02093160190938A01809308
:1010A0008B01809179018823C9F1809118018630E4
:1010B000A9F1539A239A1092B4001092B30086E0DB
:1010C000809318012BC080911801863081F0539ACB
:1010D000239A1092B4001092B30080E00E9466053B
:1010E000109216011092170186E08093180181E09A
:1010F00090E00090790102C0880F991F0A94E2F7EE
:10110000209188013091890182239323892B21F03A
:1011100081E08093160102C010921601FF91EF91B9
:10112000BF91AF919F918F917F916F915F914F91FF
:101130003F912F911F910F910F900FBE0F901F9015
:101140001895FC019C01265F3F4F8FEF9FEF419167
:101150008427082E8295807F8025092E982F8295DE
:101160008F700826869598278927880F880F880F03
:101170008025E217F30759F708950FB6F894A4B144
:1011800020914C012A2B24B921E030914C012030D0
:1011900029F0000025B1232B25B904C00000000070
:1011A000000000C0000000000000309525B123239E
:1011B00025B92EEA2A95F1F72BEE30B735FF0AC094
:1011C000A4B930914C01309525B1232325B90FBE28
:1011D00080E0089500002A9581F721E030914C01CC
:1011E000203029F0000025B1232B25B904C00000D0
:1011F0000000000000C0000000000000309525B194
:10120000232325B9000024E52A95F1F7FC018CE0A1
:10121000619170E0660F771F616072609AE041E053
:1012200050E09A0126233723232B30914C012030A4
:1012300029F0000025B1232B25B904C000000000CF
:10124000000000C0000000000000309525B12323FD
:1012500025B9000021E52A95F1F7440F551F9A950D
:1012600001F78A95A9F620B7206120BFA4B9309173
:101270004C01309525B1232325B90FBE81E0089597
:101280000E948D0186ED90E090930B0180930A01FE
:1012900081E790E0909309018093080185E790E051
:1012A00090930D0180930C016BE171E088E990E06F
:1012B0000E94850580E090E0089597FB072E16F4C4
:1012C000009407D077FD09D00E94860907FC05D05D
:1012D0003EF4909581959F4F0895709561957F4F4D
:1012E0000895EE0FFF1F0590F491E02D0994A29F41
:1012F000B001B39FC001A39F700D811D1124911DEA
:10130000B29F700D811D1124911D0895AA1BBB1B56
:1013100051E107C0AA1FBB1FA617B70710F0A61BF5
:10132000B70B881F991F5A95A9F780959095BC0116
:10133000CD0108955058BB27AA270E94B2090C94EA
:10134000030B0E94F50A38F00E94FC0A20F039F4E1
:101350009F3F19F426F40C94F20A0EF4E095E7FB93
:101360000C94EC0AE92F0E94140B58F3BA17620789
:1013700073078407950720F079F4A6F50C94360BD3
:101380000EF4E0950B2EBA2FA02D0B01B9019001A0
:101390000C01CA01A0011124FF27591B99F0593FE4
:1013A00050F4503E68F11A16F040A22F232F342F2C
:1013B0004427585FF3CF469537952795A795F0407A
:1013C0005395C9F77EF41F16BA0B620B730B840B8F
:1013D000BAF09150A1F0FF0FBB1F661F771F881F47
:1013E000C2F70EC0BA0F621F731F841F48F487959F
:1013F00077956795B795F7959E3F08F0B0CF939591
:10140000880F08F09927EE0F9795879508950E9409
:101410001B0A0C94030B0E94FC0A58F00E94F50A68
:1014200040F029F45F3F29F00C94EC0A51110C9420
:10143000370B0C94F20A0E94140B68F39923B1F352
:10144000552391F3951B550BBB27AA2762177307EA
:10145000840738F09F5F5F4F220F331F441FAA1F7E
:10146000A9F335D00E2E3AF0E0E832D0915050403A
:10147000E695001CCAF72BD0FE2F29D0660F771FE8
:10148000881FBB1F261737074807AB07B0E809F0CE
:10149000BB0B802DBF01FF2793585F4F3AF09E3F53
:1014A000510578F00C94EC0A0C94370B5F3FE4F391
:1014B000983ED4F3869577956795B795F7959F5F96
:1014C000C9F7880F911D9695879597F90895E1E0E2
:1014D000660F771F881FBB1F621773078407BA0741
:1014E00020F0621B730B840BBA0BEE1F88F7E0959C
:1014F00008950E94800A6894B1110C94370B0895E6
:101500000E941C0B88F09F5798F0B92F9927B7516C
:10151000B0F0E1F0660F771F881F991F1AF0BA9597
:10152000C9F714C0B13091F00E94360BB1E00895B4
:101530000C94360B672F782F8827B85F39F0B93FA6
:10154000CCF3869577956795B395D9F73EF490954A
:101550008095709561957F4F8F4F9F4F0895E894C8
:1015600009C097FB3EF490958095709561957F4FEB
:101570008F4F9F4F9923A9F0F92F96E9BB27939599
:10158000F695879577956795B795F111F8CFFAF4A9
:10159000BB0F11F460FF1BC06F5F7F4F8F4F9F4FDA
:1015A00016C0882311F096E911C0772321F09EE838
:1015B000872F762F05C0662371F096E8862F70E09E
:1015C00060E02AF09A95660F771F881FDAF7880F78
:1015D0009695879597F9089597F99F6780E870E049
:1015E00060E008959FEF80EC089500240A94161699
:1015F000170618060906089500240A941216130601
:10160000140605060895092E0394000C11F488238E
:1016100052F0BB0F40F4BF2B11F460FF04C06F5FAA
:101620007F4F8F4F9F4F089557FD9058440F551F80
:1016300059F05F3F71F04795880F97FB991F61F054
:101640009F3F79F087950895121613061406551FCB
:10165000F2CF4695F1DF08C0161617061806991F37
:10166000F1CF86957105610508940895E894BB272C
:1016700066277727CB0197F908950E94500B0C94A9
:10168000030B0E94F50A38F00E94FC0A20F0952313
:1016900011F00C94EC0A0C94F20A11240C94370B00
:1016A0000E94140B70F3959FC1F3950F50E0551FE6
:1016B000629FF001729FBB27F00DB11D639FAA27A7
:1016C000F00DB11DAA1F649F6627B00DA11D661FF6
:1016D000829F2227B00DA11D621F739FB00DA11D17
:1016E000621F839FA00D611D221F749F3327A00DD1
:1016F000611D231F849F600D211D822F762F6A2F6D
:1017000011249F5750409AF0F1F088234AF0EE0FD1
:10171000FF1FBB1F661F771F881F91505040A9F7FE
:101720009E3F510580F00C94EC0A0C94370B5F3F00
:10173000E4F3983ED4F3869577956795B795F7953A
:10174000E7959F5FC1F7FE2B880F911D96958795B2
:1017500097F908958F929F92AF92BF92CF92DF92A6
:10176000EF92FF92CF93DF93EC01688179818A81B8
:101770009B81611571058105910521F464E279ED84
:101780008BE597E02DE133EF41E050E00E941C0C27
:1017900049015A019B01AC01A7EAB1E40E943B0C4C
:1017A0006B017C01ACEEB4EFA50194010E94490CE1
:1017B000DC01CB018C0D9D1DAE1DBF1DB7FF03C00D
:1017C0000197A109B04888839983AA83BB839F7737
:1017D000DF91CF91FF90EF90DF90CF90BF90AF90CF
:1017E0009F908F9008950E94AA0B08958EE091E03B
:1017F0000E94AA0B0895A0E0B0E080930E019093A0
:101800000F01A0931001B09311010895F999FECF33
:1018100092BD81BDF89A992780B50895262FF99930
:10182000FECF1FBA92BD81BD20BD0FB6F894FA9AC3
:10183000F99A0FBE01960895052E97FB1EF40094A9
:101840000E94330C57FD07D00E944E0C07FC03D0BA
:101850004EF40C94330C50954095309521953F4FA4
:101860004F4F5F4F089590958095709561957F4F8C
:101870008F4F9F4F08950E947709A59F900DB49FA9
:10188000900DA49F800D911D11240895B7FF0C9415
:101890003B0C0E943B0C821B930B0895A1E21A2E75
:1018A000AA1BBB1BFD010DC0AA1FBB1FEE1FFF1F04
:1018B000A217B307E407F50720F0A21BB30BE40B54
:1018C000F50B661F771F881F991F1A9469F760959B
:1018D0007095809590959B01AC01BD01CF01089555
:0418E000F894FFCFAA
:1018E4003F030F0C308001AA8C018901880101009B
:0218F4000000F2
:00000001FF
