:100000000C945A000C9483000C9483000C9483008D
:100010000C9483000C9483000C944C040C94830087
:100020000C9483000C9483000C9483000C946A0855
:100030000C9483000C9483000C94C4060C948300ED
:100040000C9483000C9483000C9483000C94830024
:100050000C9483000C9483000C9483000C948C0803
:100060000C9483000C9483007307CA07DE070F0803
:100070001608F50719087709680A680A80098309CC
:10008000860988098A098C093D0A9E09072C7AA5E8
:10009000BA6CC590DA3B9365FC8BBC53F810FD3C01
:1000A0005692834DBD879D3AB63DCBC9BF5BBE73AB
:1000B000DA0FC93F11241FBECFEFD8E0DEBFCDBF9E
:1000C00014BE0FB6F894A895809160008861809363
:1000D0006000109260000FBE11E0A0E0B1E0E2EF1E
:1000E000FDE102C005900D92A431B107D9F721E0DE
:1000F000A4E1B1E001C01D92A639B207E1F70E9468
:100100001A0B0C94F70E0C940000CF93DF93C4E20B
:10011000D1E01986809191018883809115018983AE
:10012000809117018A83CE010E947B0A9B878A8770
:10013000CE01DF91CF91089590911B01981701F1A5
:1001400080931B01813041F028F0823061F08330D0
:1001500081F0089560E011C00E94730460919401E1
:10016000809193010BC00E94730460E0809195011F
:1001700005C00E9473046091810180E00C946E04BC
:10018000089580911A018E3118F410920701089594
:1001900080912201813019F0823039F008958091E8
:1001A0001601833230F483E005C08091160183325A
:1001B000D0F782E00C949C0080911601833220F0ED
:1001C00081E080930701089581E00C949C00609188
:1001D0000201A0919101B0919201509100014091D2
:1001E0000101E3E0F1E080E090E0861748F421911E
:1001F00030E02A173B0711F4582F492F0196F5CF0D
:100200005093000140930101089580910001909165
:100210000101009769F4809104018093350181E028
:1002200080932301809105018093200182E022C008
:100230008130910571F4809105018093350182E050
:10024000809323018091030180932001109221016A
:1002500008959C012D5F3E4FF90132979081909354
:10026000350131969081909320019EEF980F9093E5
:1002700023018150809321010895EF92FF920F9303
:100280001F93CF93DF93CDB7DEB70DB71EB7209185
:1002900002018DB79EB7821B91090FB6F8949EBFDD
:1002A0000FBE8DBF01963FEF320F43E051E07C015E
:1002B000FC016E2F681B621728F4DA016D91AD0105
:1002C0006193F7CFFC01E30FF11D8081809303015F
:1002D000E4E0F1E081E0821730F4D7019D917D01E7
:1002E00091938F5FF8CF0E94E7000FB6F8941EBF7E
:1002F0000FBE0DBFDF91CF911F910F91FF90EF9037
:1003000008958091910190919201009711F480E0FD
:100310001EC08130910511F481E019C08230910531
:1003200011F484E014C08330910511F480E10FC012
:100330008430910511F485E00AC08530910511F4EF
:1003400081E105C0069711F484E101C085E10C94B8
:10035000400780910201823059F481E00E944007F9
:1003600088EC90E00E94630480E00E944007F5CF93
:1003700010922D018091910180932401109225010A
:100380001092260110922701109228011092290143
:1003900010922A0110922B0184E291E00E947B0AC4
:1003A00090932F0180932E010E9481010E94E7000B
:1003B0008091000190910101019659F485E10E941C
:1003C000400788EC90E00E94630480E00E944007B0
:1003D000F5CF0E94050181E0809322011092340143
:1003E0000895CF9380911A01882309F49DC08091CC
:1003F0001801882309F498C080911701882309F413
:1004000093C080911901813029F41092190180E084
:100410000E9440078091020190E001972091000125
:10042000309101018217930709F07AC0809134015D
:10043000811127C09091180180911701891708F147
:1004400080912301282F30E02115310531F481E01E
:10045000809334019093160114C04091350140936C
:1004600020018093210190931701F901EE5FFE4F67
:1004700090819093350181508093230184E680938D
:100480001801C0913401C13021F0B8F0C23009F137
:100490004BC085E10E9440072091180180913701EF
:1004A00090E0820F911D06962091170130E082178F
:1004B00093071CF482E08093340180910701882324
:1004C00029F0813089F5CF910C94C100CF910C9423
:1004D000DC0080E00E94400780E00E949C000E94B7
:1004E0003D010E94050188EE93E00E946304809123
:1004F000150190E001966EEF70E00E94310B809341
:1005000015010E94810180912201813031F08230F9
:1005100059F481E08093220107C0C093220104C0F6
:1005200080E0CF910C949C00CF910895CF93DF93FE
:10053000EC0181E080931901FB0180819181A2810E
:10054000B3818093300190933101A0933201B09335
:10055000330188818093360189818093140180E37F
:1005600091E00E944C0580931A01882389F19091B3
:10057000360120913501921303C08093180109C000
:1005800020912001921305C0809317018A818093E6
:1005900037010E94810180913401882329F0813044
:1005A00039F48091180102C08091170180931601DF
:1005B0008091140190911501981750F480931501C2
:1005C000109234010E943D01DF91CF910C940501FE
:1005D000DF91CF9108954F925F926F927F928F92A9
:1005E0009F92AF92BF92CF92DF92EF92FF92CF9302
:1005F000DF9300D000D0CDB7DEB76091170170E077
:1006000080E090E00E94940C6B017C0160911801E5
:1006100070E080E090E00E94940C4B015C016091DE
:10062000370170E080E090E00E94940C69837A8347
:100630008B839C839B01AC010E94690D2B013C01C3
:10064000A7019601C701B6010E94690D9B01AC018B
:10065000C301B2010E94800B2B013C01A501940152
:10066000C501B4010E94690D9B01AC01C301B20137
:100670000E947F0B4B015C01A7019601C701B601E7
:100680000E94800B29813A814B815C810E94690D17
:100690009B01AC01C501B4010E94EC0B0F900F90BF
:1006A0000F900F90DF91CF91FF90EF90DF90CF9060
:1006B000BF90AF909F908F907F906F905F904F9082
:1006C0000C946E0B089580E090E008950895DF92F9
:1006D000EF92FF920F931F93CF93DF93F89414B888
:1006E00017B81AB815B818B81BB8529A5A9A14BC49
:1006F00085E085BD8FEF87BD82E080936E0010920C
:100700008000109281002FE83BE030938900209315
:10071000880080936F005398239891EA9093B000DB
:100720008093B1001092B4001092B3008BE080BFB0
:1007300083E080937F0086E080937C0083E8809351
:100740007A0080917A00806480937A0080917A00A8
:1007500086FDFCCF10927C0083EA80937A0081E0D2
:1007600080937B0081E090E00E948D0E8F3F11F01E
:100770008093660010925F01C1E0C0933801C0937E
:100780007C01109256011092900180E990E00E9445
:100790008D0E8093550180915501887311F0C0939F
:1007A00055011092800110927F018FEF90E090939D
:1007B0007E0180937D0110925B0110925C0110928A
:1007C0005D0110925E0181E080931F0182E49FE051
:1007D00090938F0180938E0180EB90E00E948D0EAC
:1007E000C82F81EB90E00E948D0E2C2F30E0382B2B
:1007F000309392012093910185E090E00E948D0E4C
:100800008093950189E090E00E948D0E8093810194
:100810008CE090E00E948D0E8093930184E190E043
:100820000E948D0E8093940100E611E059E3E52EBD
:1008300051E0F52EC0E2D0E0CE010E948D0ED82E00
:10084000CE0101960E948D0E2D2D30E0322F2227F1
:10085000282BF801219331938F01CE01C0960E947D
:100860008D0ED82ECE01C1960E948D0E2D2D30E01A
:10087000322F2227282BF701219331937F012296D3
:10088000CC33D105C9F67894DF91CF911F910F91A8
:10089000FF90EF90DF9008951F920F920FB60F9286
:1008A00011248F930FB6F894A89580916000886109
:1008B00080936000109260000FBE8F910F900FBE6A
:1008C0000F901F901895009741F0EFECF7E03197EB
:1008D000F1F700C000000197F6CF08958093B300B0
:1008E0006093B40008958FEF8093B3008093B400B9
:1008F0008FE090E00C94630480915F0181111EC031
:10090000F89487E080937C0083E880937A0080915C
:100910007A00806480937A0080917A0086FDFCCF13
:10092000809178009091790010927C0023EA2093C6
:100930007A0021E020937B00789408958FEF9FEF59
:10094000089580915F0181111EC0F89488EC809316
:100950007C0087E880937A0080917A00806480939D
:100960007A0080917A0086FDFCCF8091780090918A
:10097000790010927C0023EA20937A0021E02093F2
:100980007B00789408958FEF9FEF0895CF93DF93C6
:1009900020E030E080E0E3EAF1E0C6E0D3E8A1E067
:1009A000B0E090E0F894C0937C00D0937A0040913E
:1009B0007A00406440937A0040917A0046FDFCCF73
:1009C0004091780050917900417050917A005064C4
:1009D00050937A0050917A0056FDFCCF60917800D8
:1009E0007091790010927C00E0937A00F0937B0084
:1009F00078949F5F6170461751F0442359F0AD0120
:100A0000022E01C0440F0A94EAF7842B03C09038E9
:100A100049F6F3CF2F5F3F4F2830310509F0C1CFA2
:100A2000DF91CF9108958091080198E0899F90010E
:100A30001124282790911C0181E0890F80931C01CB
:100A4000822F829586958770282796959695822F76
:100A50008927809308010895809308010895809163
:100A60005F01811116C0F89486E080937C0083E8D2
:100A700080937A0080917A00806480937A008091DC
:100A80007A0086FDFCCF809178009091790078946F
:100A900008958FEF9FEF08952F923F924F925F92AC
:100AA0006F927F928F929F92AF92BF92CF92DF927E
:100AB000EF92FF920F931F93CF93DF931C01FC01E2
:100AC000C281D381C438F3E0DF070CF07EC080918F
:100AD000390190913A018C179D0708F46FC0EBE340
:100AE000F1E011E0819191918C179D0720F01F5F3B
:100AF0001E30C1F71DE0812F90E0FC01EE0FFF1FBB
:100B0000E75CFE4FE080F180880F991FFC01E95CF3
:100B1000FE4F80819181B701681B790B80E090E0E6
:100B20000E94940C9B01AC010E94800B4B015C0164
:100B3000BE010D2E000C880B990B0E94960C2B0108
:100B40003C01B70180E090E00E94940C6B017C01B5
:100B5000612F70E080E090E00E94940C20E030E093
:100B600040E05FE30E94690D20E030E0A9010E94AF
:100B7000800BA50194010E94690D9B01AC01C70186
:100B8000B6010E947F0B9B01AC01C301B2010E9420
:100B90007F0B20E030E040E251E40E94690D0E94AA
:100BA0005E0C7B01C501B4010E945E0CAB01BC016F
:100BB000C701BA010E94310B162F01C010E0CD3BD6
:100BC00082E0D8070CF4CAC001C01FEFF101C08059
:100BD000D18080916001909161018C159D0588F014
:100BE000E2E6F1E081E090E0382EE190F190EC1443
:100BF000FD0408F458C001968E309105A9F70AE566
:100C000001C000E01F3F09F44BC0BE01DD0F880B9F
:100C1000990B0E94960C6B017C01612F70E080E0C3
:100C200090E00E94940C4B015C01A701960160E0EA
:100C300070E081E694E40E947F0B9B01AC01C5014A
:100C4000B4010E94690D4B015C01602F70E080E0EF
:100C500090E00E94940C2B013C0120E030E04FE238
:100C600054E4C701B6010E947F0B9B01AC01C30194
:100C7000B2010E94690D9B01AC01C501B4010E9443
:100C8000800B20E030E048E453E40E94EC0B20E0CD
:100C900030E044E052E40E94800B0E94650C60C08A
:100CA00061E2600F5DC0880F991FFC01E25AFE4FA0
:100CB00080819181B701681B790B80E090E00E94F0
:100CC000940C9B01AC010E94800B4B015C01B601AE
:100CD000DD0C880B990B0E94960C2B013C01B7018F
:100CE00080E090E00E94940C6B017C01632D70E029
:100CF00080E090E00E94940C20E030E040E05FE370
:100D00000E94690D20E030E0A9010E94800BA5013E
:100D100094010E94690D9B01AC01C701B6010E94BC
:100D20007F0B9B01AC01C301B2010E947F0B20E04D
:100D300030E040E251E40E94690D0E945E0C7B01AC
:100D4000C501B4010E945E0CAB01BC01C701BA0130
:100D50000E94310B062F6F3F09F054CF61E2610F03
:100D6000862FDF91CF911F910F91FF90EF90DF9031
:100D7000CF90BF90AF909F908F907F906F905F903B
:100D80004F903F902F9008951F920F920FB60F92A1
:100D900011242F933F934F935F936F937F938F9380
:100DA0009F93AF93BF93EF93FF9320917F01309177
:100DB000800180917D0190917E01820F931F90931D
:100DC000800180937F018FEF90E090937E0180936C
:100DD0007D018FEF87BD80915B0190915C01A091B7
:100DE0005D01B0915E010196A11DB11D80935B0173
:100DF00090935C01A0935D01B0935E0180915F01CF
:100E000081112DC080918E0190918F0120917F01E1
:100E1000309180018217930710F580911F01843073
:100E2000F1F4E0910B01F0910C0109950097B9F0F4
:100E30000E94970A882351F0E0910901F0910A017C
:100E400009951092800110927F0109C00E947D0EC9
:100E50009C01332730937E0120937D0187BDFF9154
:100E6000EF91BF91AF919F918F917F916F915F9122
:100E70004F913F912F910F900FBE0F901F9018959B
:100E800080FF02C0559A01C0559881FF02C0549A54
:100E900001C0549882FF02C03B9A01C03B9883FF77
:100EA00002C03A9A01C03A9884FF02C03D9A01C03C
:100EB0003D9885FF02C03C9A08953C9808958C01A6
:100EC0007B01D0E0CFEF84E0D82E98E1C92E29E253
:100ED000B22EE0911F01F0E0E730F105D0F7EC5CB5
:100EE000FF4F0C94450BF89480B7877F80BF8091AB
:100EF0007A008F7780937A0014B817B81AB815B8AB
:100F000018B81BB80FB6F894A895C09260000FBE31
:100F1000B09260008091600080648093600083B72D
:100F2000817F846083BFF89483B7816083BF7894A6
:100F3000889583B78E7F83BF789410925F01529A11
:100F40005A9A80917A00806880937A0087E592E0CF
:100F50000197F1F700C0000080B7886180BF8FE380
:100F60000E944007EFE1FEE43197F1F700C0000076
:100F700080915F01882309F450C083E00E944007FC
:100F8000FFEF20E782E0F15020408040E1F700C011
:100F9000000043C08CE00E944007EFECF7E031977F
:100FA000F1F700C0000080E00E944007FFEF21EE53
:100FB00084E0F15020408040E1F72CC00E942F05D2
:100FC0008B3AE2E09E0724F08CE00E94400781CF3C
:100FD0008938F2E09F0714F080E3F7CF873692401C
:100FE00014F08FE0F2CF83E0F0CF489916C081E093
:100FF0000E9440078FEC97E00197F1F700C00000D6
:1010000080E00E9440079FEFE1EEF4E09150E04065
:10101000F040E1F700C000005CCF80E0D6CFD111F6
:1010200002C0F8010995D0921F01D1E0F70109959E
:1010300050CF80911D01811107C01092B300109212
:10104000B40010921E0145CF90911D0180911E01A8
:10105000981709F43ECF80911D0180931E01809165
:101060001D01813089F4C093B3001092B4008FE267
:1010700095E70197F1F700C00000809195018093FA
:10108000B3001092B40025CF80911D011092B300DF
:10109000C093B400823059F4EFE2F5E73197F1F7ED
:1010A00000C00000809181011092B30010C0C09375
:1010B000B300C093B4008FE295E70197F1F700C049
:1010C000000080919401909193019093B3008093DC
:1010D000B400FFCE1F920F920FB60F9211248F9380
:1010E0009F9310928100109285001092840081E0FD
:1010F0008093380180937C0110925F0110927C00F4
:1011000093EA90937A0080937B009F918F910F9048
:101110000FBE0F901F9018951F920F920FB60F924F
:1011200011240F931F932F933F934F935F936F93CC
:101130007F938F939F93AF93BF93EF93FF932091F0
:1011400084003091850041E040935F018091380137
:10115000882321F110928500109284004093810031
:10116000109290011092380180917C01882309F43B
:10117000AFC180917A0086FDFCCF8091780090917C
:10118000790090935A018093590181E080937C000B
:1011900093EA90937A0080937B009AC1C9018758A3
:1011A000910984379940A0F0109281001092850037
:1011B000109284004093380140937C0110925F01AB
:1011C00010927C0083EA80937A0040937B0080C178
:1011D00026583109A4EFB0E00E944B0B8C01222766
:1011E0003327083060F481E090E001C0880F0A9551
:1011F000EAF790919001892B8093900169C1409307
:10120000380180917C01882341F180917A0086FD2C
:10121000FCCF809178009091790090935801809351
:10122000570110927C0083EA80937A0081E08093DA
:101230007B0090919001992359F0109281001092B7
:1012400085001092840080937C0110925F0140C160
:1012500010927C01109256013BC180915601E82FFB
:10126000F0E0EE57FE4F9091900190838F5F809356
:1012700056018C3009F02CC110928100109285002B
:101280001092840040937C0110925F0100918C01C8
:1012900010918D0182E891E00E947B0A08171907DE
:1012A00009F016C1E0918B01E7FD0AC0E0910D0144
:1012B000F0910E0167E571E082E891E0099508C1BF
:1012C00088E78E0F833030F0539823981092B40043
:1012D0001092B3008E2F90E0FC01E058F109EB3042
:1012E000F10508F0F5C0E55CFF4F0C94450B8091CB
:1012F0006E008D7F80936E0016BCE0E0F0E702C0C8
:10130000E0E0F0E0099510921F01E2C081E0B2C078
:1013100085E0B0C082E0AEC080911F01833009F447
:10132000D7C080911F01843009F4D2C0539A239A08
:101330001092B4001092B30083E09CC080918201AF
:10134000823009F44BC080F48823A9F0813009F081
:1013500082C0809183019091840190939201809347
:10136000910110921D0177C0833009F449C0843087
:1013700009F458C070C080911F01863009F06BC01D
:101380006091910180EB90E00E94950E6091920136
:1013900081EB90E00E94950E6091950185E090E0D0
:1013A0000E94950E6091810189E090E00E94950E67
:1013B000609193018CE090E00E94950E6091940101
:1013C00084E190E00E94950E539823981092B40007
:1013D0001092B30081E080931F013DC090911D01E8
:1013E00080918501913021F490919501891799F1AF
:1013F00010921E0191E090931D01809395012BC0E6
:1014000090911D0180918601923021F4909181018B
:10141000891709F110921E0192E090931D018093AB
:10142000810119C020911D0180918801909187014F
:10143000233041F420919401821304C02091930140
:10144000921749F010921E0123E020931D01909302
:10145000930180939401809182018823C9F1809146
:101460001F018630A9F1539A239A1092B40010926A
:10147000B30086E080931F012BC080911F0186304E
:1014800081F0539A239A1092B4001092B30080E036
:101490000E94400710921D0110921E0186E0809369
:1014A0001F0181E090E00090820102C0880F991F27
:1014B0000A94E2F7209191013091920182239323C3
:1014C000892B21F081E080931D0102C010921D0143
:1014D000FF91EF91BF91AF919F918F917F916F910C
:1014E0005F914F913F912F911F910F910F900FBEE0
:1014F0000F901F901895FC019C01265F3F4F8FEFC6
:101500009FEF41918427082E8295807F8025092EA8
:10151000982F82958F700826869598278927880F9F
:10152000880F880F8025E217F30759F708950FB643
:10153000F894A4B1209155012A2B24B921E03091CF
:101540005501203029F0000025B1232B25B904C016
:1015500000000000000000C0000000000000309506
:1015600025B1232325B92EEA2A95F1F72BEE30B7C2
:1015700035FF0AC0A4B930915501309525B1232318
:1015800025B90FBE80E0089500002A9581F721E07B
:1015900030915501203029F0000025B1232B25B9C9
:1015A00004C000000000000000C0000000000000B7
:1015B000309525B1232325B9000024E52A95F1F7BC
:1015C000FC018CE0619170E0660F771F61607260D2
:1015D0009AE041E050E09A0126233723232B3091F3
:1015E0005501203029F0000025B1232B25B904C076
:1015F00000000000000000C0000000000000309566
:1016000025B1232325B9000021E52A95F1F7440FE0
:10161000551F9A9501F78A95A9F620B7206120BF3A
:10162000A4B930915501309525B1232325B90FBEBA
:1016300081E008950E94670386E992E090930E018D
:1016400080930D0185E890E090930C0180930B014D
:1016500061EF71E089EA91E00E945F0780E090E02D
:10166000089597FB072E16F4009407D077FD09D054
:101670000E945A0B07FC05D03EF4909581959F4F30
:101680000895709561957F4F0895EE0FFF1F0590A7
:10169000F491E02D0994A29FB001B39FC001A39FD4
:1016A000700D811D1124911DB29F700D811D11249B
:1016B000911D0895AA1BBB1B51E107C0AA1FBB1FA8
:1016C000A617B70710F0A61BB70B881F991F5A95CE
:1016D000A9F780959095BC01CD0108959F939F77C0
:1016E0000E94D10C0F90002042F49058A2EA2AEDFB
:1016F0003FE049E450E40E94970B0C942F0D5058A2
:10170000BB27AA270E94970B0C942F0D0E94210D36
:1017100038F00E94280D20F039F49F3F19F426F488
:101720000C94F70C0EF4E095E7FB0C94F10CE92F08
:101730000E94400D58F3BA17620773078407950794
:1017400020F079F4A6F50C94620D0EF4E0950B2EC2
:10175000BA2FA02D0B01B90190010C01CA01A00103
:101760001124FF27591B99F0593F50F4503E68F15E
:101770001A16F040A22F232F342F4427585FF3CF9F
:10178000469537952795A795F0405395C9F77EF470
:101790001F16BA0B620B730B840BBAF09150A1F0B9
:1017A000FF0FBB1F661F771F881FC2F70EC0BA0F3F
:1017B000621F731F841F48F4879577956795B795C7
:1017C000F7959E3F08F0B0CF9395880F08F09927C2
:1017D000EE0F9795879508950E94000C0C942F0D9D
:1017E0000E94280D58F00E94210D40F029F45F3F1F
:1017F00029F00C94F10C51110C94630D0C94F70C1E
:101800000E94400D68F39923B1F3552391F3951B82
:10181000550BBB27AA2762177307840738F09F5F11
:101820005F4F220F331F441FAA1FA9F335D00E2E7E
:101830003AF0E0E832D091505040E695001CCAF7EB
:101840002BD0FE2F29D0660F771F881FBB1F2617AE
:1018500037074807AB07B0E809F0BB0B802DBF0185
:10186000FF2793585F4F3AF09E3F510578F00C9454
:10187000F10C0C94630D5F3FE4F3983ED4F386952E
:1018800077956795B795F7959F5FC9F7880F911D75
:101890009695879597F90895E1E0660F771F881F61
:1018A000BB1F621773078407BA0720F0621B730B14
:1018B000840BBA0BEE1F88F7E09508950E94650C23
:1018C0006894B1110C94630D08950E94480D88F03E
:1018D0009F5798F0B92F9927B751B0F0E1F0660FF4
:1018E000771F881F991F1AF0BA95C9F714C0B13035
:1018F00091F00E94620DB1E008950C94620D672F83
:10190000782F8827B85F39F0B93FCCF38695779563
:101910006795B395D9F73EF490958095709561954C
:101920007F4F8F4F9F4F0895E89409C097FB3EF477
:1019300090958095709561957F4F8F4F9F4F99231C
:10194000A9F0F92F96E9BB279395F695879577959A
:101950006795B795F111F8CFFAF4BB0F11F460FF5A
:101960001BC06F5F7F4F8F4F9F4F16C0882311F0B2
:1019700096E911C0772321F09EE8872F762F05C0C6
:10198000662371F096E8862F70E060E02AF09A9561
:10199000660F771F881FDAF7880F9695879597F956
:1019A0000895DF93CF931F930F938B01EC01ECE825
:1019B000F0E00E94FA0C0E942F0D9801AE018B01FD
:1019C000EC0160E070E080E89FE30E947F0B0E94E2
:1019D000DC0D9801AE010F911F91CF91DF910C9416
:1019E0007C0D97F99F6780E870E060E008959FEFB5
:1019F00080EC0895DF93CF931F930F93FF92EF92A4
:101A0000DF927B018C01689406C0DA2EEF010E9400
:101A10007C0DFE01E894A591259135914591559154
:101A2000A6F3EF010E94970BFE019701A801DA943B
:101A300069F7DF90EF90FF900F911F91CF91DF91A9
:101A4000089500240A941616170618060906089524
:101A500000240A9412161306140605060895092E8A
:101A60000394000C11F4882352F0BB0F40F4BF2BF9
:101A700011F460FF04C06F5F7F4F8F4F9F4F089539
:101A800057FD9058440F551F59F05F3F71F047952F
:101A9000880F97FB991F61F09F3F79F08795089514
:101AA000121613061406551FF2CF4695F1DF08C033
:101AB000161617061806991FF1CF86957105610550
:101AC00008940895E894BB2766277727CB0197F9F8
:101AD00008950E947C0D0C942F0D0E94210D38F06A
:101AE0000E94280D20F0952311F00C94F10C0C9419
:101AF000F70C11240C94630D0E94400D70F3959F18
:101B0000C1F3950F50E0551F629FF001729FBB27F4
:101B1000F00DB11D639FAA27F00DB11DAA1F649F90
:101B20006627B00DA11D661F829F2227B00DA11D43
:101B3000621F739FB00DA11D621F839FA00D611DC9
:101B4000221F749F3327A00D611D231F849F600DEA
:101B5000211D822F762F6A2F11249F5750409AF013
:101B6000F1F088234AF0EE0FFF1FBB1F661F771F9F
:101B7000881F91505040A9F79E3F510580F00C946A
:101B8000F10C0C94630D5F3FE4F3983ED4F386951B
:101B900077956795B795F795E7959F5FC1F7FE2B0A
:101BA000880F911D9695879597F9089519F416F465
:101BB0000C94F70C0C941C0E0E94480DB8F399235A
:101BC000C9F3B6F39F57550B87FF0E942A0E0024D6
:101BD000A0E640EA900180585695979528F4805CDD
:101BE000660F771F881F20F026173707480730F445
:101BF000621B730B840B202931294A2BA69517945D
:101C00000794202531254A2758F7660F771F881F2C
:101C100020F026173707480730F4620B730B840B4C
:101C2000200D311D411DA09581F7B901842F9158D8
:101C3000880F9695879508959F3F31F0915020F435
:101C4000879577956795B795880F911D9695879598
:101C500097F9089591505040660F771F881FD2F76B
:101C600008958F929F92AF92BF92CF92DF92EF92A0
:101C7000FF92CF93DF93EC01688179818A819B8108
:101C8000611571058105910521F464E279ED8BE51B
:101C900097E02DE133EF41E050E00E94A30E4901AF
:101CA0005A019B01AC01A7EAB1E40E94C20E6B018C
:101CB0007C01ACEEB4EFA50194010E94D00EDC01D2
:101CC000CB018C0D9D1DAE1DBF1DB7FF03C001973D
:101CD000A109B04888839983AA83BB839F77DF914A
:101CE000CF91FF90EF90DF90CF90BF90AF909F90FB
:101CF0008F9008950E94310E08958FE091E00E9428
:101D0000310E0895A0E0B0E080930F019093100190
:101D1000A0931101B09312010895F999FECF92BDDD
:101D200081BDF89A992780B50895262FF999FECF9D
:101D30001FBA92BD81BD20BD0FB6F894FA9AF99AE8
:101D40000FBE01960895052E97FB1EF400940E9485
:101D5000BA0E57FD07D00E94D50E07FC03D04EF4F3
:101D60000C94BA0E50954095309521953F4F4F4FAA
:101D70005F4F089590958095709561957F4F8F4F37
:101D80009F4F08950E944B0BA59F900DB49F900DFF
:101D9000A49F800D911D11240895B7FF0C94C20ECD
:101DA0000E94C20E821B930B0895A1E21A2EAA1B59
:101DB000BB1BFD010DC0AA1FBB1FEE1FFF1FA217FB
:101DC000B307E407F50720F0A21BB30BE40BF50BF8
:101DD000661F771F881F991F1A9469F76095709581
:101DE000809590959B01AC01BD01CF010895F894B9
:021DF000FFCF23
:101DF200FFFF040102030401AA66036303620301F5
:041E020000000000DC
:00000001FF
